{
  "_format": "hh-sol-artifact-1",
  "contractName": "BattleGame",
  "sourceName": "contracts/BattleGame.sol",
  "abi": [
    {
      "anonymous": false,
      "inputs": [
        {
          "indexed": true,
          "internalType": "uint256",
          "name": "battleId",
          "type": "uint256"
        },
        {
          "indexed": false,
          "internalType": "address",
          "name": "winner",
          "type": "address"
        }
      ],
      "name": "BattleFinished",
      "type": "event"
    },
    {
      "anonymous": false,
      "inputs": [
        {
          "indexed": true,
          "internalType": "uint256",
          "name": "battleId",
          "type": "uint256"
        },
        {
          "indexed": false,
          "internalType": "address",
          "name": "player1",
          "type": "address"
        },
        {
          "indexed": false,
          "internalType": "address",
          "name": "player2",
          "type": "address"
        }
      ],
      "name": "BattleInitiated",
      "type": "event"
    },
    {
      "anonymous": false,
      "inputs": [
        {
          "indexed": true,
          "internalType": "uint256",
          "name": "battleId",
          "type": "uint256"
        },
        {
          "indexed": false,
          "internalType": "address",
          "name": "player",
          "type": "address"
        },
        {
          "indexed": false,
          "internalType": "uint256",
          "name": "damageDealt",
          "type": "uint256"
        }
      ],
      "name": "TurnPlayed",
      "type": "event"
    },
    {
      "inputs": [],
      "name": "battleId",
      "outputs": [
        {
          "internalType": "uint256",
          "name": "",
          "type": "uint256"
        }
      ],
      "stateMutability": "view",
      "type": "function"
    },
    {
      "inputs": [
        {
          "internalType": "uint256",
          "name": "",
          "type": "uint256"
        }
      ],
      "name": "battles",
      "outputs": [
        {
          "internalType": "address",
          "name": "player1",
          "type": "address"
        },
        {
          "internalType": "address",
          "name": "player2",
          "type": "address"
        },
        {
          "components": [
            {
              "internalType": "uint256",
              "name": "id",
              "type": "uint256"
            },
            {
              "internalType": "enum BattleGame.Type",
              "name": "creatureType",
              "type": "uint8"
            },
            {
              "internalType": "uint256",
              "name": "hp",
              "type": "uint256"
            },
            {
              "internalType": "uint256",
              "name": "attack",
              "type": "uint256"
            }
          ],
          "internalType": "struct BattleGame.Creature",
          "name": "creature1",
          "type": "tuple"
        },
        {
          "components": [
            {
              "internalType": "uint256",
              "name": "id",
              "type": "uint256"
            },
            {
              "internalType": "enum BattleGame.Type",
              "name": "creatureType",
              "type": "uint8"
            },
            {
              "internalType": "uint256",
              "name": "hp",
              "type": "uint256"
            },
            {
              "internalType": "uint256",
              "name": "attack",
              "type": "uint256"
            }
          ],
          "internalType": "struct BattleGame.Creature",
          "name": "creature2",
          "type": "tuple"
        },
        {
          "internalType": "enum BattleGame.Turn",
          "name": "currentTurn",
          "type": "uint8"
        },
        {
          "internalType": "enum BattleGame.BattleState",
          "name": "state",
          "type": "uint8"
        }
      ],
      "stateMutability": "view",
      "type": "function"
    },
    {
      "inputs": [
        {
          "internalType": "uint256",
          "name": "_battleId",
          "type": "uint256"
        }
      ],
      "name": "getBattle",
      "outputs": [
        {
          "components": [
            {
              "internalType": "address",
              "name": "player1",
              "type": "address"
            },
            {
              "internalType": "address",
              "name": "player2",
              "type": "address"
            },
            {
              "components": [
                {
                  "internalType": "uint256",
                  "name": "id",
                  "type": "uint256"
                },
                {
                  "internalType": "enum BattleGame.Type",
                  "name": "creatureType",
                  "type": "uint8"
                },
                {
                  "internalType": "uint256",
                  "name": "hp",
                  "type": "uint256"
                },
                {
                  "internalType": "uint256",
                  "name": "attack",
                  "type": "uint256"
                }
              ],
              "internalType": "struct BattleGame.Creature",
              "name": "creature1",
              "type": "tuple"
            },
            {
              "components": [
                {
                  "internalType": "uint256",
                  "name": "id",
                  "type": "uint256"
                },
                {
                  "internalType": "enum BattleGame.Type",
                  "name": "creatureType",
                  "type": "uint8"
                },
                {
                  "internalType": "uint256",
                  "name": "hp",
                  "type": "uint256"
                },
                {
                  "internalType": "uint256",
                  "name": "attack",
                  "type": "uint256"
                }
              ],
              "internalType": "struct BattleGame.Creature",
              "name": "creature2",
              "type": "tuple"
            },
            {
              "internalType": "enum BattleGame.Turn",
              "name": "currentTurn",
              "type": "uint8"
            },
            {
              "internalType": "enum BattleGame.BattleState",
              "name": "state",
              "type": "uint8"
            }
          ],
          "internalType": "struct BattleGame.Battle",
          "name": "",
          "type": "tuple"
        }
      ],
      "stateMutability": "view",
      "type": "function"
    },
    {
      "inputs": [
        {
          "internalType": "address",
          "name": "_player2",
          "type": "address"
        },
        {
          "internalType": "uint256",
          "name": "_creature1Id",
          "type": "uint256"
        },
        {
          "internalType": "enum BattleGame.Type",
          "name": "_creature1Type",
          "type": "uint8"
        },
        {
          "internalType": "uint256",
          "name": "_attack1",
          "type": "uint256"
        },
        {
          "internalType": "uint256",
          "name": "_hp1",
          "type": "uint256"
        },
        {
          "internalType": "uint256",
          "name": "_creature2Id",
          "type": "uint256"
        },
        {
          "internalType": "enum BattleGame.Type",
          "name": "_creature2Type",
          "type": "uint8"
        },
        {
          "internalType": "uint256",
          "name": "_attack2",
          "type": "uint256"
        },
        {
          "internalType": "uint256",
          "name": "_hp2",
          "type": "uint256"
        }
      ],
      "name": "initiateBattle",
      "outputs": [],
      "stateMutability": "nonpayable",
      "type": "function"
    },
    {
      "inputs": [
        {
          "internalType": "uint256",
          "name": "_battleId",
          "type": "uint256"
        }
      ],
      "name": "playTurn",
      "outputs": [],
      "stateMutability": "nonpayable",
      "type": "function"
    }
  ],
  "bytecode": "0x6080604052348015600f57600080fd5b506117168061001f6000396000f3fe608060405234801561001057600080fd5b50600436106100575760003560e01c806301a1b7781461005c578063606d2e961461007a5780636dd0ce7a146100af578063a0fc6cff146100df578063f2022830146100fb575b600080fd5b610064610117565b6040516100719190610e79565b60405180910390f35b610094600480360381019061008f9190610ec5565b61011d565b6040516100a69695949392919061109e565b60405180910390f35b6100c960048036038101906100c49190610ec5565b610279565b6040516100d69190611202565b60405180910390f35b6100f960048036038101906100f49190610ec5565b6104a2565b005b6101156004803603810190610110919061126f565b610844565b005b60005481565b60016020528060005260406000206000915090508060000160009054906101000a900473ffffffffffffffffffffffffffffffffffffffff16908060010160009054906101000a900473ffffffffffffffffffffffffffffffffffffffff169080600201604051806080016040529081600082015481526020016001820160009054906101000a900460ff1660028111156101bb576101ba610f42565b5b60028111156101cd576101cc610f42565b5b8152602001600282015481526020016003820154815250509080600601604051806080016040529081600082015481526020016001820160009054906101000a900460ff16600281111561022457610223610f42565b5b600281111561023657610235610f42565b5b8152602001600282015481526020016003820154815250509080600a0160009054906101000a900460ff169080600a0160019054906101000a900460ff16905086565b610281610d94565b600160008381526020019081526020016000206040518060c00160405290816000820160009054906101000a900473ffffffffffffffffffffffffffffffffffffffff1673ffffffffffffffffffffffffffffffffffffffff1673ffffffffffffffffffffffffffffffffffffffff1681526020016001820160009054906101000a900473ffffffffffffffffffffffffffffffffffffffff1673ffffffffffffffffffffffffffffffffffffffff1673ffffffffffffffffffffffffffffffffffffffff16815260200160028201604051806080016040529081600082015481526020016001820160009054906101000a900460ff16600281111561038a57610389610f42565b5b600281111561039c5761039b610f42565b5b815260200160028201548152602001600382015481525050815260200160068201604051806080016040529081600082015481526020016001820160009054906101000a900460ff1660028111156103f7576103f6610f42565b5b600281111561040957610408610f42565b5b8152602001600282015481526020016003820154815250508152602001600a820160009054906101000a900460ff16600181111561044a57610449610f42565b5b600181111561045c5761045b610f42565b5b8152602001600a820160019054906101000a900460ff16600281111561048557610484610f42565b5b600281111561049757610496610f42565b5b815250509050919050565b6000600160008381526020019081526020016000209050600160028111156104cd576104cc610f42565b5b81600a0160019054906101000a900460ff1660028111156104f1576104f0610f42565b5b14610531576040517f08c379a000000000000000000000000000000000000000000000000000000000815260040161052890611396565b60405180910390fd5b61053a81610bab565b73ffffffffffffffffffffffffffffffffffffffff163373ffffffffffffffffffffffffffffffffffffffff16146105a7576040517f08c379a000000000000000000000000000000000000000000000000000000000815260040161059e90611402565b60405180910390fd5b60008060018111156105bc576105bb610f42565b5b82600a0160009054906101000a900460ff1660018111156105e0576105df610f42565b5b146105ee57816006016105f3565b816002015b9050600080600181111561060a57610609610f42565b5b83600a0160009054906101000a900460ff16600181111561062e5761062d610f42565b5b1461063c5782600201610641565b826006015b90506000826003015490506106788360010160009054906101000a900460ff168360010160009054906101000a900460ff16610c40565b1561068d5760058161068a9190611451565b90505b60006005610699610d5d565b6106a391906114b4565b036106b8576005816106b59190611451565b90505b808260020154116107755760008260020181905550600284600a0160016101000a81548160ff021916908360028111156106f5576106f4610f42565b5b0217905550847f0aeaf4e1a7d8da8386bd84fd8836d358f20ec58e526751f798b2252b844e81a1338360405161072c9291906114e5565b60405180910390a2847fac42e100579fbdd7752727e9b2f0f4ddca94d28d395fd6e6eb8cdcb3f53a62e033604051610764919061150e565b60405180910390a250505050610841565b808260020160008282546107899190611529565b92505081905550847f0aeaf4e1a7d8da8386bd84fd8836d358f20ec58e526751f798b2252b844e81a133836040516107c29291906114e5565b60405180910390a2600060018111156107de576107dd610f42565b5b84600a0160009054906101000a900460ff16600181111561080257610801610f42565b5b1461080e576000610811565b60015b84600a0160006101000a81548160ff0219169083600181111561083757610836610f42565b5b0217905550505050505b50565b600073ffffffffffffffffffffffffffffffffffffffff168973ffffffffffffffffffffffffffffffffffffffff16036108b3576040517f08c379a00000000000000000000000000000000000000000000000000000000081526004016108aa906115a9565b60405180910390fd5b6040518060c001604052803373ffffffffffffffffffffffffffffffffffffffff1681526020018a73ffffffffffffffffffffffffffffffffffffffff16815260200160405180608001604052808b81526020018a600281111561091a57610919610f42565b5b8152602001888152602001898152508152602001604051806080016040528087815260200186600281111561095257610951610f42565b5b81526020018481526020018581525081526020016000600181111561097a57610979610f42565b5b81526020016001600281111561099357610992610f42565b5b815250600160008054815260200190815260200160002060008201518160000160006101000a81548173ffffffffffffffffffffffffffffffffffffffff021916908373ffffffffffffffffffffffffffffffffffffffff16021790555060208201518160010160006101000a81548173ffffffffffffffffffffffffffffffffffffffff021916908373ffffffffffffffffffffffffffffffffffffffff1602179055506040820151816002016000820151816000015560208201518160010160006101000a81548160ff02191690836002811115610a7657610a75610f42565b5b0217905550604082015181600201556060820151816003015550506060820151816006016000820151816000015560208201518160010160006101000a81548160ff02191690836002811115610acf57610ace610f42565b5b021790555060408201518160020155606082015181600301555050608082015181600a0160006101000a81548160ff02191690836001811115610b1557610b14610f42565b5b021790555060a082015181600a0160016101000a81548160ff02191690836002811115610b4557610b44610f42565b5b02179055509050506000547f0d9b746a57b16eb4d5d7f015870d42bbe60b1d8f4687d254a0d2b170703a88e2338b604051610b819291906115c9565b60405180910390a2600080815480929190610b9b906115f2565b9190505550505050505050505050565b6000806001811115610bc057610bbf610f42565b5b82600a0160009054906101000a900460ff166001811115610be457610be3610f42565b5b14610c13578160010160009054906101000a900473ffffffffffffffffffffffffffffffffffffffff16610c39565b8160000160009054906101000a900473ffffffffffffffffffffffffffffffffffffffff165b9050919050565b6000806002811115610c5557610c54610f42565b5b836002811115610c6857610c67610f42565b5b148015610c985750600280811115610c8357610c82610f42565b5b826002811115610c9657610c95610f42565b5b145b80610cf7575060016002811115610cb257610cb1610f42565b5b836002811115610cc557610cc4610f42565b5b148015610cf6575060006002811115610ce157610ce0610f42565b5b826002811115610cf457610cf3610f42565b5b145b5b80610d555750600280811115610d1057610d0f610f42565b5b836002811115610d2357610d22610f42565b5b148015610d54575060016002811115610d3f57610d3e610f42565b5b826002811115610d5257610d51610f42565b5b145b5b905092915050565b60004233600054604051602001610d76939291906116a3565b6040516020818303038152906040528051906020012060001c905090565b6040518060c00160405280600073ffffffffffffffffffffffffffffffffffffffff168152602001600073ffffffffffffffffffffffffffffffffffffffff168152602001610de1610e26565b8152602001610dee610e26565b815260200160006001811115610e0757610e06610f42565b5b815260200160006002811115610e2057610e1f610f42565b5b81525090565b60405180608001604052806000815260200160006002811115610e4c57610e4b610f42565b5b815260200160008152602001600081525090565b6000819050919050565b610e7381610e60565b82525050565b6000602082019050610e8e6000830184610e6a565b92915050565b600080fd5b610ea281610e60565b8114610ead57600080fd5b50565b600081359050610ebf81610e99565b92915050565b600060208284031215610edb57610eda610e94565b5b6000610ee984828501610eb0565b91505092915050565b600073ffffffffffffffffffffffffffffffffffffffff82169050919050565b6000610f1d82610ef2565b9050919050565b610f2d81610f12565b82525050565b610f3c81610e60565b82525050565b7f4e487b7100000000000000000000000000000000000000000000000000000000600052602160045260246000fd5b60038110610f8257610f81610f42565b5b50565b6000819050610f9382610f71565b919050565b6000610fa382610f85565b9050919050565b610fb381610f98565b82525050565b608082016000820151610fcf6000850182610f33565b506020820151610fe26020850182610faa565b506040820151610ff56040850182610f33565b5060608201516110086060850182610f33565b50505050565b6002811061101f5761101e610f42565b5b50565b60008190506110308261100e565b919050565b600061104082611022565b9050919050565b61105081611035565b82525050565b6003811061106757611066610f42565b5b50565b600081905061107882611056565b919050565b60006110888261106a565b9050919050565b6110988161107d565b82525050565b6000610180820190506110b46000830189610f24565b6110c16020830188610f24565b6110ce6040830187610fb9565b6110db60c0830186610fb9565b6110e9610140830185611047565b6110f761016083018461108f565b979650505050505050565b61110b81610f12565b82525050565b6080820160008201516111276000850182610f33565b50602082015161113a6020850182610faa565b50604082015161114d6040850182610f33565b5060608201516111606060850182610f33565b50505050565b61116f81611035565b82525050565b61117e8161107d565b82525050565b6101808201600082015161119b6000850182611102565b5060208201516111ae6020850182611102565b5060408201516111c16040850182611111565b5060608201516111d460c0850182611111565b5060808201516111e8610140850182611166565b5060a08201516111fc610160850182611175565b50505050565b6000610180820190506112186000830184611184565b92915050565b61122781610f12565b811461123257600080fd5b50565b6000813590506112448161121e565b92915050565b6003811061125757600080fd5b50565b6000813590506112698161124a565b92915050565b60008060008060008060008060006101208a8c03121561129257611291610e94565b5b60006112a08c828d01611235565b99505060206112b18c828d01610eb0565b98505060406112c28c828d0161125a565b97505060606112d38c828d01610eb0565b96505060806112e48c828d01610eb0565b95505060a06112f58c828d01610eb0565b94505060c06113068c828d0161125a565b93505060e06113178c828d01610eb0565b9250506101006113298c828d01610eb0565b9150509295985092959850929598565b600082825260208201905092915050565b7f426174746c65206e6f7420616374697665000000000000000000000000000000600082015250565b6000611380601183611339565b915061138b8261134a565b602082019050919050565b600060208201905081810360008301526113af81611373565b9050919050565b7f4e6f7420796f7572207475726e00000000000000000000000000000000000000600082015250565b60006113ec600d83611339565b91506113f7826113b6565b602082019050919050565b6000602082019050818103600083015261141b816113df565b9050919050565b7f4e487b7100000000000000000000000000000000000000000000000000000000600052601160045260246000fd5b600061145c82610e60565b915061146783610e60565b925082820190508082111561147f5761147e611422565b5b92915050565b7f4e487b7100000000000000000000000000000000000000000000000000000000600052601260045260246000fd5b60006114bf82610e60565b91506114ca83610e60565b9250826114da576114d9611485565b5b828206905092915050565b60006040820190506114fa6000830185610f24565b6115076020830184610e6a565b9392505050565b60006020820190506115236000830184610f24565b92915050565b600061153482610e60565b915061153f83610e60565b925082820390508181111561155757611556611422565b5b92915050565b7f496e76616c6964206f70706f6e656e7400000000000000000000000000000000600082015250565b6000611593601083611339565b915061159e8261155d565b602082019050919050565b600060208201905081810360008301526115c281611586565b9050919050565b60006040820190506115de6000830185610f24565b6115eb6020830184610f24565b9392505050565b60006115fd82610e60565b91507fffffffffffffffffffffffffffffffffffffffffffffffffffffffffffffffff820361162f5761162e611422565b5b600182019050919050565b6000819050919050565b61165561165082610e60565b61163a565b82525050565b60008160601b9050919050565b60006116738261165b565b9050919050565b600061168582611668565b9050919050565b61169d61169882610f12565b61167a565b82525050565b60006116af8286611644565b6020820191506116bf828561168c565b6014820191506116cf8284611644565b60208201915081905094935050505056fea264697066735822122033b0c231a5ed283e159076e90c4378f3cdfa728cc6a95f3a714356b28f05ab4c64736f6c634300081b0033",
  "linkReferences": {},
  "deployedLinkReferences": {}
}