{
  "_format": "hh-sol-artifact-1",
  "contractName": "BattleGame",
  "sourceName": "contracts/BattleGame.sol",
  "abi": [
    {
      "anonymous": false,
      "inputs": [
        {
          "indexed": true,
          "internalType": "uint256",
          "name": "battleId",
          "type": "uint256"
        },
        {
          "indexed": false,
          "internalType": "address",
          "name": "winner",
          "type": "address"
        }
      ],
      "name": "BattleFinished",
      "type": "event"
    },
    {
      "anonymous": false,
      "inputs": [
        {
          "indexed": true,
          "internalType": "uint256",
          "name": "battleId",
          "type": "uint256"
        },
        {
          "indexed": false,
          "internalType": "address",
          "name": "player1",
          "type": "address"
        },
        {
          "indexed": false,
          "internalType": "address",
          "name": "player2",
          "type": "address"
        }
      ],
      "name": "BattleInitiated",
      "type": "event"
    },
    {
      "anonymous": false,
      "inputs": [
        {
          "indexed": true,
          "internalType": "address",
          "name": "player",
          "type": "address"
        }
      ],
      "name": "JoinedQueue",
      "type": "event"
    },
    {
      "anonymous": false,
      "inputs": [
        {
          "indexed": true,
          "internalType": "address",
          "name": "player",
          "type": "address"
        }
      ],
      "name": "LeftQueue",
      "type": "event"
    },
    {
      "anonymous": false,
      "inputs": [
        {
          "indexed": true,
          "internalType": "uint256",
          "name": "battleId",
          "type": "uint256"
        },
        {
          "indexed": true,
          "internalType": "address",
          "name": "player1",
          "type": "address"
        },
        {
          "indexed": true,
          "internalType": "address",
          "name": "player2",
          "type": "address"
        }
      ],
      "name": "MatchFound",
      "type": "event"
    },
    {
      "anonymous": false,
      "inputs": [
        {
          "indexed": true,
          "internalType": "uint256",
          "name": "battleId",
          "type": "uint256"
        },
        {
          "indexed": false,
          "internalType": "address",
          "name": "player",
          "type": "address"
        },
        {
          "indexed": false,
          "internalType": "uint256",
          "name": "damageDealt",
          "type": "uint256"
        }
      ],
      "name": "TurnPlayed",
      "type": "event"
    },
    {
      "inputs": [],
      "name": "battleId",
      "outputs": [
        {
          "internalType": "uint256",
          "name": "",
          "type": "uint256"
        }
      ],
      "stateMutability": "view",
      "type": "function"
    },
    {
      "inputs": [
        {
          "internalType": "uint256",
          "name": "",
          "type": "uint256"
        }
      ],
      "name": "battles",
      "outputs": [
        {
          "internalType": "address",
          "name": "player1",
          "type": "address"
        },
        {
          "internalType": "address",
          "name": "player2",
          "type": "address"
        },
        {
          "components": [
            {
              "internalType": "uint256",
              "name": "id",
              "type": "uint256"
            },
            {
              "internalType": "enum BattleGame.Type",
              "name": "creatureType",
              "type": "uint8"
            },
            {
              "internalType": "uint256",
              "name": "hp",
              "type": "uint256"
            },
            {
              "internalType": "uint256",
              "name": "attack",
              "type": "uint256"
            }
          ],
          "internalType": "struct BattleGame.Creature",
          "name": "creature1",
          "type": "tuple"
        },
        {
          "components": [
            {
              "internalType": "uint256",
              "name": "id",
              "type": "uint256"
            },
            {
              "internalType": "enum BattleGame.Type",
              "name": "creatureType",
              "type": "uint8"
            },
            {
              "internalType": "uint256",
              "name": "hp",
              "type": "uint256"
            },
            {
              "internalType": "uint256",
              "name": "attack",
              "type": "uint256"
            }
          ],
          "internalType": "struct BattleGame.Creature",
          "name": "creature2",
          "type": "tuple"
        },
        {
          "internalType": "enum BattleGame.Turn",
          "name": "currentTurn",
          "type": "uint8"
        },
        {
          "internalType": "enum BattleGame.BattleState",
          "name": "state",
          "type": "uint8"
        }
      ],
      "stateMutability": "view",
      "type": "function"
    },
    {
      "inputs": [
        {
          "internalType": "uint256",
          "name": "_battleId",
          "type": "uint256"
        }
      ],
      "name": "getBattle",
      "outputs": [
        {
          "components": [
            {
              "internalType": "address",
              "name": "player1",
              "type": "address"
            },
            {
              "internalType": "address",
              "name": "player2",
              "type": "address"
            },
            {
              "components": [
                {
                  "internalType": "uint256",
                  "name": "id",
                  "type": "uint256"
                },
                {
                  "internalType": "enum BattleGame.Type",
                  "name": "creatureType",
                  "type": "uint8"
                },
                {
                  "internalType": "uint256",
                  "name": "hp",
                  "type": "uint256"
                },
                {
                  "internalType": "uint256",
                  "name": "attack",
                  "type": "uint256"
                }
              ],
              "internalType": "struct BattleGame.Creature",
              "name": "creature1",
              "type": "tuple"
            },
            {
              "components": [
                {
                  "internalType": "uint256",
                  "name": "id",
                  "type": "uint256"
                },
                {
                  "internalType": "enum BattleGame.Type",
                  "name": "creatureType",
                  "type": "uint8"
                },
                {
                  "internalType": "uint256",
                  "name": "hp",
                  "type": "uint256"
                },
                {
                  "internalType": "uint256",
                  "name": "attack",
                  "type": "uint256"
                }
              ],
              "internalType": "struct BattleGame.Creature",
              "name": "creature2",
              "type": "tuple"
            },
            {
              "internalType": "enum BattleGame.Turn",
              "name": "currentTurn",
              "type": "uint8"
            },
            {
              "internalType": "enum BattleGame.BattleState",
              "name": "state",
              "type": "uint8"
            }
          ],
          "internalType": "struct BattleGame.Battle",
          "name": "",
          "type": "tuple"
        }
      ],
      "stateMutability": "view",
      "type": "function"
    },
    {
      "inputs": [
        {
          "internalType": "address",
          "name": "",
          "type": "address"
        }
      ],
      "name": "inQueue",
      "outputs": [
        {
          "internalType": "bool",
          "name": "",
          "type": "bool"
        }
      ],
      "stateMutability": "view",
      "type": "function"
    },
    {
      "inputs": [
        {
          "internalType": "address",
          "name": "_player2",
          "type": "address"
        },
        {
          "internalType": "uint256",
          "name": "_creature1Id",
          "type": "uint256"
        },
        {
          "internalType": "enum BattleGame.Type",
          "name": "_creature1Type",
          "type": "uint8"
        },
        {
          "internalType": "uint256",
          "name": "_attack1",
          "type": "uint256"
        },
        {
          "internalType": "uint256",
          "name": "_hp1",
          "type": "uint256"
        },
        {
          "internalType": "uint256",
          "name": "_creature2Id",
          "type": "uint256"
        },
        {
          "internalType": "enum BattleGame.Type",
          "name": "_creature2Type",
          "type": "uint8"
        },
        {
          "internalType": "uint256",
          "name": "_attack2",
          "type": "uint256"
        },
        {
          "internalType": "uint256",
          "name": "_hp2",
          "type": "uint256"
        }
      ],
      "name": "initiateBattle",
      "outputs": [],
      "stateMutability": "nonpayable",
      "type": "function"
    },
    {
      "inputs": [
        {
          "internalType": "uint256",
          "name": "creatureId",
          "type": "uint256"
        }
      ],
      "name": "joinQueue",
      "outputs": [],
      "stateMutability": "nonpayable",
      "type": "function"
    },
    {
      "inputs": [],
      "name": "leaveQueue",
      "outputs": [],
      "stateMutability": "nonpayable",
      "type": "function"
    },
    {
      "inputs": [
        {
          "internalType": "uint256",
          "name": "",
          "type": "uint256"
        }
      ],
      "name": "matchmakingQueue",
      "outputs": [
        {
          "internalType": "address",
          "name": "",
          "type": "address"
        }
      ],
      "stateMutability": "view",
      "type": "function"
    },
    {
      "inputs": [
        {
          "internalType": "uint256",
          "name": "_battleId",
          "type": "uint256"
        }
      ],
      "name": "playTurn",
      "outputs": [],
      "stateMutability": "nonpayable",
      "type": "function"
    },
    {
      "inputs": [
        {
          "internalType": "address",
          "name": "",
          "type": "address"
        },
        {
          "internalType": "uint256",
          "name": "",
          "type": "uint256"
        }
      ],
      "name": "playerBattles",
      "outputs": [
        {
          "internalType": "uint256",
          "name": "",
          "type": "uint256"
        }
      ],
      "stateMutability": "view",
      "type": "function"
    }
  ],
  "bytecode": "0x6080604052348015600f57600080fd5b506126028061001f6000396000f3fe608060405234801561001057600080fd5b506004361061009e5760003560e01c80636e74c4ca116100665780636e74c4ca146101865780638465de04146101b657806396949420146101c0578063a0fc6cff146101dc578063f2022830146101f85761009e565b806301a1b778146100a357806307c57902146100c1578063606d2e96146100f1578063641ef4cd146101265780636dd0ce7a14610156575b600080fd5b6100ab610214565b6040516100b89190611b5d565b60405180910390f35b6100db60048036038101906100d69190611bdb565b61021a565b6040516100e89190611c23565b60405180910390f35b61010b60048036038101906101069190611c6a565b61023a565b60405161011d96959493929190611e11565b60405180910390f35b610140600480360381019061013b9190611e75565b610396565b60405161014d9190611b5d565b60405180910390f35b610170600480360381019061016b9190611c6a565b6103c7565b60405161017d9190611fb5565b60405180910390f35b6101a0600480360381019061019b9190611c6a565b6105f0565b6040516101ad9190611fd1565b60405180910390f35b6101be61062f565b005b6101da60048036038101906101d59190611c6a565b6108df565b005b6101f660048036038101906101f19190611c6a565b610a83565b005b610212600480360381019061020d9190612011565b610e25565b005b60005481565b60036020528060005260406000206000915054906101000a900460ff1681565b60016020528060005260406000206000915090508060000160009054906101000a900473ffffffffffffffffffffffffffffffffffffffff16908060010160009054906101000a900473ffffffffffffffffffffffffffffffffffffffff169080600201604051806080016040529081600082015481526020016001820160009054906101000a900460ff1660028111156102d8576102d7611cb5565b5b60028111156102ea576102e9611cb5565b5b8152602001600282015481526020016003820154815250509080600601604051806080016040529081600082015481526020016001820160009054906101000a900460ff16600281111561034157610340611cb5565b5b600281111561035357610352611cb5565b5b8152602001600282015481526020016003820154815250509080600a0160009054906101000a900460ff169080600a0160019054906101000a900460ff16905086565b600260205281600052604060002081815481106103b257600080fd5b90600052602060002001600091509150505481565b6103cf6119d1565b600160008381526020019081526020016000206040518060c00160405290816000820160009054906101000a900473ffffffffffffffffffffffffffffffffffffffff1673ffffffffffffffffffffffffffffffffffffffff1673ffffffffffffffffffffffffffffffffffffffff1681526020016001820160009054906101000a900473ffffffffffffffffffffffffffffffffffffffff1673ffffffffffffffffffffffffffffffffffffffff1673ffffffffffffffffffffffffffffffffffffffff16815260200160028201604051806080016040529081600082015481526020016001820160009054906101000a900460ff1660028111156104d8576104d7611cb5565b5b60028111156104ea576104e9611cb5565b5b815260200160028201548152602001600382015481525050815260200160068201604051806080016040529081600082015481526020016001820160009054906101000a900460ff16600281111561054557610544611cb5565b5b600281111561055757610556611cb5565b5b8152602001600282015481526020016003820154815250508152602001600a820160009054906101000a900460ff16600181111561059857610597611cb5565b5b60018111156105aa576105a9611cb5565b5b8152602001600a820160019054906101000a900460ff1660028111156105d3576105d2611cb5565b5b60028111156105e5576105e4611cb5565b5b815250509050919050565b6004818154811061060057600080fd5b906000526020600020016000915054906101000a900473ffffffffffffffffffffffffffffffffffffffff1681565b600360003373ffffffffffffffffffffffffffffffffffffffff1673ffffffffffffffffffffffffffffffffffffffff16815260200190815260200160002060009054906101000a900460ff166106bb576040517f08c379a00000000000000000000000000000000000000000000000000000000081526004016106b290612138565b60405180910390fd5b60005b600480549050811015610841573373ffffffffffffffffffffffffffffffffffffffff16600482815481106106f6576106f5612158565b5b9060005260206000200160009054906101000a900473ffffffffffffffffffffffffffffffffffffffff1673ffffffffffffffffffffffffffffffffffffffff1603610834576004600160048054905061075091906121b6565b8154811061076157610760612158565b5b9060005260206000200160009054906101000a900473ffffffffffffffffffffffffffffffffffffffff16600482815481106107a05761079f612158565b5b9060005260206000200160006101000a81548173ffffffffffffffffffffffffffffffffffffffff021916908373ffffffffffffffffffffffffffffffffffffffff16021790555060048054806107fa576107f96121ea565b5b6001900381819060005260206000200160006101000a81549073ffffffffffffffffffffffffffffffffffffffff02191690559055610841565b80806001019150506106be565b506000600360003373ffffffffffffffffffffffffffffffffffffffff1673ffffffffffffffffffffffffffffffffffffffff16815260200190815260200160002060006101000a81548160ff0219169083151502179055503373ffffffffffffffffffffffffffffffffffffffff167faac57fce87dda1f66bb21fc6b2da7a6c9f1c71979408b4ce34569fb07568d87160405160405180910390a2565b600360003373ffffffffffffffffffffffffffffffffffffffff1673ffffffffffffffffffffffffffffffffffffffff16815260200190815260200160002060009054906101000a900460ff161561096c576040517f08c379a000000000000000000000000000000000000000000000000000000000815260040161096390612265565b60405180910390fd5b6001600360003373ffffffffffffffffffffffffffffffffffffffff1673ffffffffffffffffffffffffffffffffffffffff16815260200190815260200160002060006101000a81548160ff0219169083151502179055506004339080600181540180825580915050600190039060005260206000200160009091909190916101000a81548173ffffffffffffffffffffffffffffffffffffffff021916908373ffffffffffffffffffffffffffffffffffffffff1602179055503373ffffffffffffffffffffffffffffffffffffffff167e6d08e4f17ebddfd27e28836dad12fdeb04a52edcdce0d024bd58037804349b60405160405180910390a2600260048054905010610a8057610a7f8161118c565b5b50565b600060016000838152602001908152602001600020905060016002811115610aae57610aad611cb5565b5b81600a0160019054906101000a900460ff166002811115610ad257610ad1611cb5565b5b14610b12576040517f08c379a0000000000000000000000000000000000000000000000000000000008152600401610b09906122d1565b60405180910390fd5b610b1b816116c7565b73ffffffffffffffffffffffffffffffffffffffff163373ffffffffffffffffffffffffffffffffffffffff1614610b88576040517f08c379a0000000000000000000000000000000000000000000000000000000008152600401610b7f9061233d565b60405180910390fd5b6000806001811115610b9d57610b9c611cb5565b5b82600a0160009054906101000a900460ff166001811115610bc157610bc0611cb5565b5b14610bcf5781600601610bd4565b816002015b90506000806001811115610beb57610bea611cb5565b5b83600a0160009054906101000a900460ff166001811115610c0f57610c0e611cb5565b5b14610c1d5782600201610c22565b826006015b9050600082600301549050610c598360010160009054906101000a900460ff168360010160009054906101000a900460ff1661175c565b15610c6e57600581610c6b919061235d565b90505b60006005610c7a611879565b610c8491906123c0565b03610c9957600581610c96919061235d565b90505b80826002015411610d565760008260020181905550600284600a0160016101000a81548160ff02191690836002811115610cd657610cd5611cb5565b5b0217905550847f0aeaf4e1a7d8da8386bd84fd8836d358f20ec58e526751f798b2252b844e81a13383604051610d0d9291906123f1565b60405180910390a2847fac42e100579fbdd7752727e9b2f0f4ddca94d28d395fd6e6eb8cdcb3f53a62e033604051610d459190611fd1565b60405180910390a250505050610e22565b80826002016000828254610d6a91906121b6565b92505081905550847f0aeaf4e1a7d8da8386bd84fd8836d358f20ec58e526751f798b2252b844e81a13383604051610da39291906123f1565b60405180910390a260006001811115610dbf57610dbe611cb5565b5b84600a0160009054906101000a900460ff166001811115610de357610de2611cb5565b5b14610def576000610df2565b60015b84600a0160006101000a81548160ff02191690836001811115610e1857610e17611cb5565b5b0217905550505050505b50565b600073ffffffffffffffffffffffffffffffffffffffff168973ffffffffffffffffffffffffffffffffffffffff1603610e94576040517f08c379a0000000000000000000000000000000000000000000000000000000008152600401610e8b90612466565b60405180910390fd5b6040518060c001604052803373ffffffffffffffffffffffffffffffffffffffff1681526020018a73ffffffffffffffffffffffffffffffffffffffff16815260200160405180608001604052808b81526020018a6002811115610efb57610efa611cb5565b5b81526020018881526020018981525081526020016040518060800160405280878152602001866002811115610f3357610f32611cb5565b5b815260200184815260200185815250815260200160006001811115610f5b57610f5a611cb5565b5b815260200160016002811115610f7457610f73611cb5565b5b815250600160008054815260200190815260200160002060008201518160000160006101000a81548173ffffffffffffffffffffffffffffffffffffffff021916908373ffffffffffffffffffffffffffffffffffffffff16021790555060208201518160010160006101000a81548173ffffffffffffffffffffffffffffffffffffffff021916908373ffffffffffffffffffffffffffffffffffffffff1602179055506040820151816002016000820151816000015560208201518160010160006101000a81548160ff0219169083600281111561105757611056611cb5565b5b0217905550604082015181600201556060820151816003015550506060820151816006016000820151816000015560208201518160010160006101000a81548160ff021916908360028111156110b0576110af611cb5565b5b021790555060408201518160020155606082015181600301555050608082015181600a0160006101000a81548160ff021916908360018111156110f6576110f5611cb5565b5b021790555060a082015181600a0160016101000a81548160ff0219169083600281111561112657611125611cb5565b5b02179055509050506000547f0d9b746a57b16eb4d5d7f015870d42bbe60b1d8f4687d254a0d2b170703a88e2338b604051611162929190612486565b60405180910390a260008081548092919061117c906124af565b9190505550505050505050505050565b600060046000815481106111a3576111a2612158565b5b9060005260206000200160009054906101000a900473ffffffffffffffffffffffffffffffffffffffff169050600060046001815481106111e7576111e6612158565b5b9060005260206000200160009054906101000a900473ffffffffffffffffffffffffffffffffffffffff16905061121c6118b0565b60049080519060200190611231929190611a63565b506000600360008473ffffffffffffffffffffffffffffffffffffffff1673ffffffffffffffffffffffffffffffffffffffff16815260200190815260200160002060006101000a81548160ff0219169083151502179055506000600360008373ffffffffffffffffffffffffffffffffffffffff1673ffffffffffffffffffffffffffffffffffffffff16815260200190815260200160002060006101000a81548160ff02191690831515021790555060008060008154809291906112f6906124af565b9190505590506040518060c001604052808473ffffffffffffffffffffffffffffffffffffffff1681526020018373ffffffffffffffffffffffffffffffffffffffff16815260200160405180608001604052808781526020016000600281111561136457611363611cb5565b5b81526020016064815260200160148152508152602001604051806080016040528087815260200160028081111561139e5761139d611cb5565b5b81526020016064815260200160148152508152602001600060018111156113c8576113c7611cb5565b5b8152602001600160028111156113e1576113e0611cb5565b5b8152506001600083815260200190815260200160002060008201518160000160006101000a81548173ffffffffffffffffffffffffffffffffffffffff021916908373ffffffffffffffffffffffffffffffffffffffff16021790555060208201518160010160006101000a81548173ffffffffffffffffffffffffffffffffffffffff021916908373ffffffffffffffffffffffffffffffffffffffff1602179055506040820151816002016000820151816000015560208201518160010160006101000a81548160ff021916908360028111156114c3576114c2611cb5565b5b0217905550604082015181600201556060820151816003015550506060820151816006016000820151816000015560208201518160010160006101000a81548160ff0219169083600281111561151c5761151b611cb5565b5b021790555060408201518160020155606082015181600301555050608082015181600a0160006101000a81548160ff0219169083600181111561156257611561611cb5565b5b021790555060a082015181600a0160016101000a81548160ff0219169083600281111561159257611591611cb5565b5b0217905550905050600260008473ffffffffffffffffffffffffffffffffffffffff1673ffffffffffffffffffffffffffffffffffffffff168152602001908152602001600020819080600181540180825580915050600190039060005260206000200160009091909190915055600260008373ffffffffffffffffffffffffffffffffffffffff1673ffffffffffffffffffffffffffffffffffffffff1681526020019081526020016000208190806001815401808255809150506001900390600052602060002001600090919091909150558173ffffffffffffffffffffffffffffffffffffffff168373ffffffffffffffffffffffffffffffffffffffff16827f3eab390a19df3698835a8a5f3d9d7ea7273f887dbb211fcd100f92af40f182b160405160405180910390a450505050565b60008060018111156116dc576116db611cb5565b5b82600a0160009054906101000a900460ff166001811115611700576116ff611cb5565b5b1461172f578160010160009054906101000a900473ffffffffffffffffffffffffffffffffffffffff16611755565b8160000160009054906101000a900473ffffffffffffffffffffffffffffffffffffffff165b9050919050565b600080600281111561177157611770611cb5565b5b83600281111561178457611783611cb5565b5b1480156117b4575060028081111561179f5761179e611cb5565b5b8260028111156117b2576117b1611cb5565b5b145b806118135750600160028111156117ce576117cd611cb5565b5b8360028111156117e1576117e0611cb5565b5b1480156118125750600060028111156117fd576117fc611cb5565b5b8260028111156118105761180f611cb5565b5b145b5b80611871575060028081111561182c5761182b611cb5565b5b83600281111561183f5761183e611cb5565b5b14801561187057506001600281111561185b5761185a611cb5565b5b82600281111561186e5761186d611cb5565b5b145b5b905092915050565b6000423360005460405160200161189293929190612560565b6040516020818303038152906040528051906020012060001c905090565b6060600060026004805490506118c691906121b6565b67ffffffffffffffff8111156118df576118de61259d565b5b60405190808252806020026020018201604052801561190d5781602001602082028036833780820191505090505b5090506000600290505b6004805490508110156119c9576004818154811061193857611937612158565b5b9060005260206000200160009054906101000a900473ffffffffffffffffffffffffffffffffffffffff168260028361197191906121b6565b8151811061198257611981612158565b5b602002602001019073ffffffffffffffffffffffffffffffffffffffff16908173ffffffffffffffffffffffffffffffffffffffff16815250508080600101915050611917565b508091505090565b6040518060c00160405280600073ffffffffffffffffffffffffffffffffffffffff168152602001600073ffffffffffffffffffffffffffffffffffffffff168152602001611a1e611aed565b8152602001611a2b611aed565b815260200160006001811115611a4457611a43611cb5565b5b815260200160006002811115611a5d57611a5c611cb5565b5b81525090565b828054828255906000526020600020908101928215611adc579160200282015b82811115611adb5782518260006101000a81548173ffffffffffffffffffffffffffffffffffffffff021916908373ffffffffffffffffffffffffffffffffffffffff16021790555091602001919060010190611a83565b5b509050611ae99190611b27565b5090565b60405180608001604052806000815260200160006002811115611b1357611b12611cb5565b5b815260200160008152602001600081525090565b5b80821115611b40576000816000905550600101611b28565b5090565b6000819050919050565b611b5781611b44565b82525050565b6000602082019050611b726000830184611b4e565b92915050565b600080fd5b600073ffffffffffffffffffffffffffffffffffffffff82169050919050565b6000611ba882611b7d565b9050919050565b611bb881611b9d565b8114611bc357600080fd5b50565b600081359050611bd581611baf565b92915050565b600060208284031215611bf157611bf0611b78565b5b6000611bff84828501611bc6565b91505092915050565b60008115159050919050565b611c1d81611c08565b82525050565b6000602082019050611c386000830184611c14565b92915050565b611c4781611b44565b8114611c5257600080fd5b50565b600081359050611c6481611c3e565b92915050565b600060208284031215611c8057611c7f611b78565b5b6000611c8e84828501611c55565b91505092915050565b611ca081611b9d565b82525050565b611caf81611b44565b82525050565b7f4e487b7100000000000000000000000000000000000000000000000000000000600052602160045260246000fd5b60038110611cf557611cf4611cb5565b5b50565b6000819050611d0682611ce4565b919050565b6000611d1682611cf8565b9050919050565b611d2681611d0b565b82525050565b608082016000820151611d426000850182611ca6565b506020820151611d556020850182611d1d565b506040820151611d686040850182611ca6565b506060820151611d7b6060850182611ca6565b50505050565b60028110611d9257611d91611cb5565b5b50565b6000819050611da382611d81565b919050565b6000611db382611d95565b9050919050565b611dc381611da8565b82525050565b60038110611dda57611dd9611cb5565b5b50565b6000819050611deb82611dc9565b919050565b6000611dfb82611ddd565b9050919050565b611e0b81611df0565b82525050565b600061018082019050611e276000830189611c97565b611e346020830188611c97565b611e416040830187611d2c565b611e4e60c0830186611d2c565b611e5c610140830185611dba565b611e6a610160830184611e02565b979650505050505050565b60008060408385031215611e8c57611e8b611b78565b5b6000611e9a85828601611bc6565b9250506020611eab85828601611c55565b9150509250929050565b611ebe81611b9d565b82525050565b608082016000820151611eda6000850182611ca6565b506020820151611eed6020850182611d1d565b506040820151611f006040850182611ca6565b506060820151611f136060850182611ca6565b50505050565b611f2281611da8565b82525050565b611f3181611df0565b82525050565b61018082016000820151611f4e6000850182611eb5565b506020820151611f616020850182611eb5565b506040820151611f746040850182611ec4565b506060820151611f8760c0850182611ec4565b506080820151611f9b610140850182611f19565b5060a0820151611faf610160850182611f28565b50505050565b600061018082019050611fcb6000830184611f37565b92915050565b6000602082019050611fe66000830184611c97565b92915050565b60038110611ff957600080fd5b50565b60008135905061200b81611fec565b92915050565b60008060008060008060008060006101208a8c03121561203457612033611b78565b5b60006120428c828d01611bc6565b99505060206120538c828d01611c55565b98505060406120648c828d01611ffc565b97505060606120758c828d01611c55565b96505060806120868c828d01611c55565b95505060a06120978c828d01611c55565b94505060c06120a88c828d01611ffc565b93505060e06120b98c828d01611c55565b9250506101006120cb8c828d01611c55565b9150509295985092959850929598565b600082825260208201905092915050565b7f4e6f7420696e206d617463686d616b696e672071756575650000000000000000600082015250565b60006121226018836120db565b915061212d826120ec565b602082019050919050565b6000602082019050818103600083015261215181612115565b9050919050565b7f4e487b7100000000000000000000000000000000000000000000000000000000600052603260045260246000fd5b7f4e487b7100000000000000000000000000000000000000000000000000000000600052601160045260246000fd5b60006121c182611b44565b91506121cc83611b44565b92508282039050818111156121e4576121e3612187565b5b92915050565b7f4e487b7100000000000000000000000000000000000000000000000000000000600052603160045260246000fd5b7f416c726561647920696e206d617463686d616b696e6720717565756500000000600082015250565b600061224f601c836120db565b915061225a82612219565b602082019050919050565b6000602082019050818103600083015261227e81612242565b9050919050565b7f426174746c65206e6f7420616374697665000000000000000000000000000000600082015250565b60006122bb6011836120db565b91506122c682612285565b602082019050919050565b600060208201905081810360008301526122ea816122ae565b9050919050565b7f4e6f7420796f7572207475726e00000000000000000000000000000000000000600082015250565b6000612327600d836120db565b9150612332826122f1565b602082019050919050565b600060208201905081810360008301526123568161231a565b9050919050565b600061236882611b44565b915061237383611b44565b925082820190508082111561238b5761238a612187565b5b92915050565b7f4e487b7100000000000000000000000000000000000000000000000000000000600052601260045260246000fd5b60006123cb82611b44565b91506123d683611b44565b9250826123e6576123e5612391565b5b828206905092915050565b60006040820190506124066000830185611c97565b6124136020830184611b4e565b9392505050565b7f496e76616c6964206f70706f6e656e7400000000000000000000000000000000600082015250565b60006124506010836120db565b915061245b8261241a565b602082019050919050565b6000602082019050818103600083015261247f81612443565b9050919050565b600060408201905061249b6000830185611c97565b6124a86020830184611c97565b9392505050565b60006124ba82611b44565b91507fffffffffffffffffffffffffffffffffffffffffffffffffffffffffffffffff82036124ec576124eb612187565b5b600182019050919050565b6000819050919050565b61251261250d82611b44565b6124f7565b82525050565b60008160601b9050919050565b600061253082612518565b9050919050565b600061254282612525565b9050919050565b61255a61255582611b9d565b612537565b82525050565b600061256c8286612501565b60208201915061257c8285612549565b60148201915061258c8284612501565b602082019150819050949350505050565b7f4e487b7100000000000000000000000000000000000000000000000000000000600052604160045260246000fdfea26469706673582212204ad17027d92b7968d58155ca76a24ec45af7c4ff3571aac233eba1eef17643c564736f6c634300081b0033",
  "linkReferences": {},
  "deployedLinkReferences": {}
}