{
  "_format": "hh-sol-artifact-1",
  "contractName": "CreatureNFT",
  "sourceName": "contracts/CreatureNFT.sol",
  "abi": [
    {
      "inputs": [
        {
          "internalType": "address",
          "name": "initialOwner",
          "type": "address"
        }
      ],
      "stateMutability": "nonpayable",
      "type": "constructor"
    },
    {
      "inputs": [],
      "name": "ERC721EnumerableForbiddenBatchMint",
      "type": "error"
    },
    {
      "inputs": [
        {
          "internalType": "address",
          "name": "sender",
          "type": "address"
        },
        {
          "internalType": "uint256",
          "name": "tokenId",
          "type": "uint256"
        },
        {
          "internalType": "address",
          "name": "owner",
          "type": "address"
        }
      ],
      "name": "ERC721IncorrectOwner",
      "type": "error"
    },
    {
      "inputs": [
        {
          "internalType": "address",
          "name": "operator",
          "type": "address"
        },
        {
          "internalType": "uint256",
          "name": "tokenId",
          "type": "uint256"
        }
      ],
      "name": "ERC721InsufficientApproval",
      "type": "error"
    },
    {
      "inputs": [
        {
          "internalType": "address",
          "name": "approver",
          "type": "address"
        }
      ],
      "name": "ERC721InvalidApprover",
      "type": "error"
    },
    {
      "inputs": [
        {
          "internalType": "address",
          "name": "operator",
          "type": "address"
        }
      ],
      "name": "ERC721InvalidOperator",
      "type": "error"
    },
    {
      "inputs": [
        {
          "internalType": "address",
          "name": "owner",
          "type": "address"
        }
      ],
      "name": "ERC721InvalidOwner",
      "type": "error"
    },
    {
      "inputs": [
        {
          "internalType": "address",
          "name": "receiver",
          "type": "address"
        }
      ],
      "name": "ERC721InvalidReceiver",
      "type": "error"
    },
    {
      "inputs": [
        {
          "internalType": "address",
          "name": "sender",
          "type": "address"
        }
      ],
      "name": "ERC721InvalidSender",
      "type": "error"
    },
    {
      "inputs": [
        {
          "internalType": "uint256",
          "name": "tokenId",
          "type": "uint256"
        }
      ],
      "name": "ERC721NonexistentToken",
      "type": "error"
    },
    {
      "inputs": [
        {
          "internalType": "address",
          "name": "owner",
          "type": "address"
        },
        {
          "internalType": "uint256",
          "name": "index",
          "type": "uint256"
        }
      ],
      "name": "ERC721OutOfBoundsIndex",
      "type": "error"
    },
    {
      "inputs": [
        {
          "internalType": "address",
          "name": "owner",
          "type": "address"
        }
      ],
      "name": "OwnableInvalidOwner",
      "type": "error"
    },
    {
      "inputs": [
        {
          "internalType": "address",
          "name": "account",
          "type": "address"
        }
      ],
      "name": "OwnableUnauthorizedAccount",
      "type": "error"
    },
    {
      "anonymous": false,
      "inputs": [
        {
          "indexed": true,
          "internalType": "address",
          "name": "owner",
          "type": "address"
        },
        {
          "indexed": true,
          "internalType": "address",
          "name": "approved",
          "type": "address"
        },
        {
          "indexed": true,
          "internalType": "uint256",
          "name": "tokenId",
          "type": "uint256"
        }
      ],
      "name": "Approval",
      "type": "event"
    },
    {
      "anonymous": false,
      "inputs": [
        {
          "indexed": true,
          "internalType": "address",
          "name": "owner",
          "type": "address"
        },
        {
          "indexed": true,
          "internalType": "address",
          "name": "operator",
          "type": "address"
        },
        {
          "indexed": false,
          "internalType": "bool",
          "name": "approved",
          "type": "bool"
        }
      ],
      "name": "ApprovalForAll",
      "type": "event"
    },
    {
      "anonymous": false,
      "inputs": [
        {
          "indexed": false,
          "internalType": "uint256",
          "name": "_fromTokenId",
          "type": "uint256"
        },
        {
          "indexed": false,
          "internalType": "uint256",
          "name": "_toTokenId",
          "type": "uint256"
        }
      ],
      "name": "BatchMetadataUpdate",
      "type": "event"
    },
    {
      "anonymous": false,
      "inputs": [
        {
          "indexed": true,
          "internalType": "uint256",
          "name": "parent1",
          "type": "uint256"
        },
        {
          "indexed": true,
          "internalType": "uint256",
          "name": "parent2",
          "type": "uint256"
        },
        {
          "indexed": false,
          "internalType": "uint256",
          "name": "newTokenId",
          "type": "uint256"
        }
      ],
      "name": "CreatureBred",
      "type": "event"
    },
    {
      "anonymous": false,
      "inputs": [
        {
          "indexed": true,
          "internalType": "uint256",
          "name": "tokenId",
          "type": "uint256"
        },
        {
          "indexed": false,
          "internalType": "uint256",
          "name": "newLevel",
          "type": "uint256"
        }
      ],
      "name": "LevelUp",
      "type": "event"
    },
    {
      "anonymous": false,
      "inputs": [
        {
          "indexed": false,
          "internalType": "uint256",
          "name": "_tokenId",
          "type": "uint256"
        }
      ],
      "name": "MetadataUpdate",
      "type": "event"
    },
    {
      "anonymous": false,
      "inputs": [
        {
          "indexed": true,
          "internalType": "address",
          "name": "previousOwner",
          "type": "address"
        },
        {
          "indexed": true,
          "internalType": "address",
          "name": "newOwner",
          "type": "address"
        }
      ],
      "name": "OwnershipTransferred",
      "type": "event"
    },
    {
      "anonymous": false,
      "inputs": [
        {
          "indexed": true,
          "internalType": "address",
          "name": "from",
          "type": "address"
        },
        {
          "indexed": true,
          "internalType": "address",
          "name": "to",
          "type": "address"
        },
        {
          "indexed": true,
          "internalType": "uint256",
          "name": "tokenId",
          "type": "uint256"
        }
      ],
      "name": "Transfer",
      "type": "event"
    },
    {
      "anonymous": false,
      "inputs": [
        {
          "indexed": true,
          "internalType": "uint256",
          "name": "tokenId",
          "type": "uint256"
        },
        {
          "indexed": false,
          "internalType": "uint256",
          "name": "amount",
          "type": "uint256"
        },
        {
          "indexed": false,
          "internalType": "uint256",
          "name": "newXP",
          "type": "uint256"
        }
      ],
      "name": "XPAdded",
      "type": "event"
    },
    {
      "inputs": [
        {
          "internalType": "uint256",
          "name": "tokenId",
          "type": "uint256"
        },
        {
          "internalType": "uint256",
          "name": "amount",
          "type": "uint256"
        }
      ],
      "name": "addXP",
      "outputs": [],
      "stateMutability": "nonpayable",
      "type": "function"
    },
    {
      "inputs": [
        {
          "internalType": "address",
          "name": "to",
          "type": "address"
        },
        {
          "internalType": "uint256",
          "name": "tokenId",
          "type": "uint256"
        }
      ],
      "name": "approve",
      "outputs": [],
      "stateMutability": "nonpayable",
      "type": "function"
    },
    {
      "inputs": [
        {
          "internalType": "address",
          "name": "owner",
          "type": "address"
        }
      ],
      "name": "balanceOf",
      "outputs": [
        {
          "internalType": "uint256",
          "name": "",
          "type": "uint256"
        }
      ],
      "stateMutability": "view",
      "type": "function"
    },
    {
      "inputs": [
        {
          "internalType": "uint256",
          "name": "parent1",
          "type": "uint256"
        },
        {
          "internalType": "uint256",
          "name": "parent2",
          "type": "uint256"
        },
        {
          "internalType": "string",
          "name": "newURI",
          "type": "string"
        },
        {
          "internalType": "string",
          "name": "rarityLevel",
          "type": "string"
        }
      ],
      "name": "breedCreatures",
      "outputs": [],
      "stateMutability": "nonpayable",
      "type": "function"
    },
    {
      "inputs": [],
      "name": "breedingCooldown",
      "outputs": [
        {
          "internalType": "uint256",
          "name": "",
          "type": "uint256"
        }
      ],
      "stateMutability": "view",
      "type": "function"
    },
    {
      "inputs": [
        {
          "internalType": "uint256",
          "name": "tokenId",
          "type": "uint256"
        }
      ],
      "name": "burn",
      "outputs": [],
      "stateMutability": "nonpayable",
      "type": "function"
    },
    {
      "inputs": [
        {
          "internalType": "uint256",
          "name": "tokenId",
          "type": "uint256"
        }
      ],
      "name": "getApproved",
      "outputs": [
        {
          "internalType": "address",
          "name": "",
          "type": "address"
        }
      ],
      "stateMutability": "view",
      "type": "function"
    },
    {
      "inputs": [
        {
          "internalType": "uint256",
          "name": "tokenId",
          "type": "uint256"
        }
      ],
      "name": "getLevel",
      "outputs": [
        {
          "internalType": "uint256",
          "name": "",
          "type": "uint256"
        }
      ],
      "stateMutability": "view",
      "type": "function"
    },
    {
      "inputs": [
        {
          "internalType": "uint256",
          "name": "tokenId",
          "type": "uint256"
        }
      ],
      "name": "getTraits",
      "outputs": [
        {
          "internalType": "uint256",
          "name": "power",
          "type": "uint256"
        },
        {
          "internalType": "uint256",
          "name": "speed",
          "type": "uint256"
        },
        {
          "internalType": "uint256",
          "name": "defense",
          "type": "uint256"
        },
        {
          "internalType": "uint256",
          "name": "intelligence",
          "type": "uint256"
        }
      ],
      "stateMutability": "view",
      "type": "function"
    },
    {
      "inputs": [
        {
          "internalType": "uint256",
          "name": "tokenId",
          "type": "uint256"
        }
      ],
      "name": "getXP",
      "outputs": [
        {
          "internalType": "uint256",
          "name": "",
          "type": "uint256"
        }
      ],
      "stateMutability": "view",
      "type": "function"
    },
    {
      "inputs": [
        {
          "internalType": "address",
          "name": "owner",
          "type": "address"
        },
        {
          "internalType": "address",
          "name": "operator",
          "type": "address"
        }
      ],
      "name": "isApprovedForAll",
      "outputs": [
        {
          "internalType": "bool",
          "name": "",
          "type": "bool"
        }
      ],
      "stateMutability": "view",
      "type": "function"
    },
    {
      "inputs": [
        {
          "internalType": "uint256",
          "name": "",
          "type": "uint256"
        }
      ],
      "name": "lastBredAt",
      "outputs": [
        {
          "internalType": "uint256",
          "name": "",
          "type": "uint256"
        }
      ],
      "stateMutability": "view",
      "type": "function"
    },
    {
      "inputs": [
        {
          "internalType": "address",
          "name": "to",
          "type": "address"
        },
        {
          "internalType": "string",
          "name": "uri",
          "type": "string"
        },
        {
          "internalType": "uint256",
          "name": "powerInit",
          "type": "uint256"
        },
        {
          "internalType": "uint256",
          "name": "speedInit",
          "type": "uint256"
        },
        {
          "internalType": "uint256",
          "name": "defenseInit",
          "type": "uint256"
        },
        {
          "internalType": "uint256",
          "name": "intelligenceInit",
          "type": "uint256"
        },
        {
          "internalType": "string",
          "name": "rarityLevel",
          "type": "string"
        }
      ],
      "name": "mintCreature",
      "outputs": [],
      "stateMutability": "nonpayable",
      "type": "function"
    },
    {
      "inputs": [],
      "name": "mintFirstCreature",
      "outputs": [],
      "stateMutability": "nonpayable",
      "type": "function"
    },
    {
      "inputs": [],
      "name": "name",
      "outputs": [
        {
          "internalType": "string",
          "name": "",
          "type": "string"
        }
      ],
      "stateMutability": "view",
      "type": "function"
    },
    {
      "inputs": [],
      "name": "owner",
      "outputs": [
        {
          "internalType": "address",
          "name": "",
          "type": "address"
        }
      ],
      "stateMutability": "view",
      "type": "function"
    },
    {
      "inputs": [
        {
          "internalType": "uint256",
          "name": "tokenId",
          "type": "uint256"
        }
      ],
      "name": "ownerOf",
      "outputs": [
        {
          "internalType": "address",
          "name": "",
          "type": "address"
        }
      ],
      "stateMutability": "view",
      "type": "function"
    },
    {
      "inputs": [
        {
          "internalType": "uint256",
          "name": "",
          "type": "uint256"
        }
      ],
      "name": "rarity",
      "outputs": [
        {
          "internalType": "string",
          "name": "",
          "type": "string"
        }
      ],
      "stateMutability": "view",
      "type": "function"
    },
    {
      "inputs": [],
      "name": "renounceOwnership",
      "outputs": [],
      "stateMutability": "nonpayable",
      "type": "function"
    },
    {
      "inputs": [
        {
          "internalType": "address",
          "name": "from",
          "type": "address"
        },
        {
          "internalType": "address",
          "name": "to",
          "type": "address"
        },
        {
          "internalType": "uint256",
          "name": "tokenId",
          "type": "uint256"
        }
      ],
      "name": "safeTransferFrom",
      "outputs": [],
      "stateMutability": "nonpayable",
      "type": "function"
    },
    {
      "inputs": [
        {
          "internalType": "address",
          "name": "from",
          "type": "address"
        },
        {
          "internalType": "address",
          "name": "to",
          "type": "address"
        },
        {
          "internalType": "uint256",
          "name": "tokenId",
          "type": "uint256"
        },
        {
          "internalType": "bytes",
          "name": "data",
          "type": "bytes"
        }
      ],
      "name": "safeTransferFrom",
      "outputs": [],
      "stateMutability": "nonpayable",
      "type": "function"
    },
    {
      "inputs": [
        {
          "internalType": "address",
          "name": "operator",
          "type": "address"
        },
        {
          "internalType": "bool",
          "name": "approved",
          "type": "bool"
        }
      ],
      "name": "setApprovalForAll",
      "outputs": [],
      "stateMutability": "nonpayable",
      "type": "function"
    },
    {
      "inputs": [
        {
          "internalType": "bytes4",
          "name": "interfaceId",
          "type": "bytes4"
        }
      ],
      "name": "supportsInterface",
      "outputs": [
        {
          "internalType": "bool",
          "name": "",
          "type": "bool"
        }
      ],
      "stateMutability": "view",
      "type": "function"
    },
    {
      "inputs": [],
      "name": "symbol",
      "outputs": [
        {
          "internalType": "string",
          "name": "",
          "type": "string"
        }
      ],
      "stateMutability": "view",
      "type": "function"
    },
    {
      "inputs": [
        {
          "internalType": "uint256",
          "name": "index",
          "type": "uint256"
        }
      ],
      "name": "tokenByIndex",
      "outputs": [
        {
          "internalType": "uint256",
          "name": "",
          "type": "uint256"
        }
      ],
      "stateMutability": "view",
      "type": "function"
    },
    {
      "inputs": [
        {
          "internalType": "address",
          "name": "owner",
          "type": "address"
        },
        {
          "internalType": "uint256",
          "name": "index",
          "type": "uint256"
        }
      ],
      "name": "tokenOfOwnerByIndex",
      "outputs": [
        {
          "internalType": "uint256",
          "name": "",
          "type": "uint256"
        }
      ],
      "stateMutability": "view",
      "type": "function"
    },
    {
      "inputs": [
        {
          "internalType": "uint256",
          "name": "tokenId",
          "type": "uint256"
        }
      ],
      "name": "tokenURI",
      "outputs": [
        {
          "internalType": "string",
          "name": "",
          "type": "string"
        }
      ],
      "stateMutability": "view",
      "type": "function"
    },
    {
      "inputs": [],
      "name": "totalSupply",
      "outputs": [
        {
          "internalType": "uint256",
          "name": "",
          "type": "uint256"
        }
      ],
      "stateMutability": "view",
      "type": "function"
    },
    {
      "inputs": [
        {
          "internalType": "uint256",
          "name": "tokenId",
          "type": "uint256"
        },
        {
          "internalType": "string",
          "name": "trait",
          "type": "string"
        },
        {
          "internalType": "uint256",
          "name": "amount",
          "type": "uint256"
        }
      ],
      "name": "trainTrait",
      "outputs": [],
      "stateMutability": "nonpayable",
      "type": "function"
    },
    {
      "inputs": [
        {
          "internalType": "address",
          "name": "from",
          "type": "address"
        },
        {
          "internalType": "address",
          "name": "to",
          "type": "address"
        },
        {
          "internalType": "uint256",
          "name": "tokenId",
          "type": "uint256"
        }
      ],
      "name": "transferFrom",
      "outputs": [],
      "stateMutability": "nonpayable",
      "type": "function"
    },
    {
      "inputs": [
        {
          "internalType": "address",
          "name": "newOwner",
          "type": "address"
        }
      ],
      "name": "transferOwnership",
      "outputs": [],
      "stateMutability": "nonpayable",
      "type": "function"
    },
    {
      "inputs": [
        {
          "internalType": "uint256",
          "name": "currentLevel",
          "type": "uint256"
        }
      ],
      "name": "xpToNextLevel",
      "outputs": [
        {
          "internalType": "uint256",
          "name": "",
          "type": "uint256"
        }
      ],
      "stateMutability": "pure",
      "type": "function"
    }
  ],
  "bytecode": "0x6080604052603c60155534801561001557600080fd5b5060405161496338038061496383398181016040528101906100379190610277565b806040518060400160405280600b81526020017f43726561747572654e46540000000000000000000000000000000000000000008152506040518060400160405280600481526020017f435254520000000000000000000000000000000000000000000000000000000081525081600090816100b391906104f4565b5080600190816100c391906104f4565b505050600073ffffffffffffffffffffffffffffffffffffffff168173ffffffffffffffffffffffffffffffffffffffff16036101385760006040517f1e4fbdf700000000000000000000000000000000000000000000000000000000815260040161012f91906105d5565b60405180910390fd5b6101478161014e60201b60201c565b50506105f0565b6000600b60009054906101000a900473ffffffffffffffffffffffffffffffffffffffff16905081600b60006101000a81548173ffffffffffffffffffffffffffffffffffffffff021916908373ffffffffffffffffffffffffffffffffffffffff1602179055508173ffffffffffffffffffffffffffffffffffffffff168173ffffffffffffffffffffffffffffffffffffffff167f8be0079c531659141344cd1fd0a4f28419497f9722a3daafe3b4186f6b6457e060405160405180910390a35050565b600080fd5b600073ffffffffffffffffffffffffffffffffffffffff82169050919050565b600061024482610219565b9050919050565b61025481610239565b811461025f57600080fd5b50565b6000815190506102718161024b565b92915050565b60006020828403121561028d5761028c610214565b5b600061029b84828501610262565b91505092915050565b600081519050919050565b7f4e487b7100000000000000000000000000000000000000000000000000000000600052604160045260246000fd5b7f4e487b7100000000000000000000000000000000000000000000000000000000600052602260045260246000fd5b6000600282049050600182168061032557607f821691505b602082108103610338576103376102de565b5b50919050565b60008190508160005260206000209050919050565b60006020601f8301049050919050565b600082821b905092915050565b6000600883026103a07fffffffffffffffffffffffffffffffffffffffffffffffffffffffffffffffff82610363565b6103aa8683610363565b95508019841693508086168417925050509392505050565b6000819050919050565b6000819050919050565b60006103f16103ec6103e7846103c2565b6103cc565b6103c2565b9050919050565b6000819050919050565b61040b836103d6565b61041f610417826103f8565b848454610370565b825550505050565b600090565b610434610427565b61043f818484610402565b505050565b5b818110156104635761045860008261042c565b600181019050610445565b5050565b601f8211156104a8576104798161033e565b61048284610353565b81016020851015610491578190505b6104a561049d85610353565b830182610444565b50505b505050565b600082821c905092915050565b60006104cb600019846008026104ad565b1980831691505092915050565b60006104e483836104ba565b9150826002028217905092915050565b6104fd826102a4565b67ffffffffffffffff811115610516576105156102af565b5b610520825461030d565b61052b828285610467565b600060209050601f83116001811461055e576000841561054c578287015190505b61055685826104d8565b8655506105be565b601f19841661056c8661033e565b60005b828110156105945784890151825560018201915060208501945060208101905061056f565b868310156105b157848901516105ad601f8916826104ba565b8355505b6001600288020188555050505b505050505050565b6105cf81610239565b82525050565b60006020820190506105ea60008301846105c6565b92915050565b614364806105ff6000396000f3fe608060405234801561001057600080fd5b50600436106101f05760003560e01c80635756f25d1161010f578063a22cb465116100a2578063d4cae94511610071578063d4cae945146105c7578063e1dc0761146105f7578063e985e9c51461062a578063f2fde38b1461065a576101f0565b8063a22cb4651461052f578063a664e8761461054b578063b88d4fde1461057b578063c87b56dd14610597576101f0565b806386481d40116100de57806386481d40146104935780638b58c569146104c35780638da5cb5b146104f357806395d89b4114610511576101f0565b80635756f25d1461040d5780636352211e1461042957806370a0823114610459578063715018a614610489576101f0565b80632a9616031161018757806342842e0e1161015657806342842e0e1461038957806342966c68146103a55780634f6ccce7146103c15780635146ea0e146103f1576101f0565b80632a961603146103035780632eccfdf81461030d5780632f745c591461033d5780633b4c368c1461036d576101f0565b806318160ddd116101c357806318160ddd1461028f57806323b872dd146102ad578063240df5e6146102c957806328958818146102e7576101f0565b806301ffc9a7146101f557806306fdde0314610225578063081812fc14610243578063095ea7b314610273575b600080fd5b61020f600480360381019061020a919061302e565b610676565b60405161021c9190613076565b60405180910390f35b61022d610688565b60405161023a9190613121565b60405180910390f35b61025d60048036038101906102589190613179565b61071a565b60405161026a91906131e7565b60405180910390f35b61028d6004803603810190610288919061322e565b610736565b005b61029761074c565b6040516102a4919061327d565b60405180910390f35b6102c760048036038101906102c29190613298565b610759565b005b6102d161085b565b6040516102de919061327d565b60405180910390f35b61030160048036038101906102fc9190613420565b610861565b005b61030b610ac2565b005b61032760048036038101906103229190613179565b610c49565b604051610334919061327d565b60405180910390f35b6103576004803603810190610352919061322e565b610c5f565b604051610364919061327d565b60405180910390f35b6103876004803603810190610382919061348f565b610d08565b005b6103a3600480360381019061039e9190613298565b610df4565b005b6103bf60048036038101906103ba9190613179565b610e14565b005b6103db60048036038101906103d69190613179565b610e2b565b6040516103e8919061327d565b60405180910390f35b61040b60048036038101906104069190613569565b610ea1565b005b610427600480360381019061042291906135a9565b6110ff565b005b610443600480360381019061043e9190613179565b61145a565b60405161045091906131e7565b60405180910390f35b610473600480360381019061046e9190613648565b61146c565b604051610480919061327d565b60405180910390f35b610491611526565b005b6104ad60048036038101906104a89190613179565b61153a565b6040516104ba919061327d565b60405180910390f35b6104dd60048036038101906104d89190613179565b6115cd565b6040516104ea9190613121565b60405180910390f35b6104fb61166d565b60405161050891906131e7565b60405180910390f35b610519611697565b6040516105269190613121565b60405180910390f35b610549600480360381019061054491906136a1565b611729565b005b61056560048036038101906105609190613179565b61173f565b604051610572919061327d565b60405180910390f35b61059560048036038101906105909190613782565b611757565b005b6105b160048036038101906105ac9190613179565b61177c565b6040516105be9190613121565b60405180910390f35b6105e160048036038101906105dc9190613179565b61178e565b6040516105ee919061327d565b60405180910390f35b610611600480360381019061060c9190613179565b611821565b6040516106219493929190613805565b60405180910390f35b610644600480360381019061063f919061384a565b611886565b6040516106519190613076565b60405180910390f35b610674600480360381019061066f9190613648565b61191a565b005b6000610681826119a0565b9050919050565b606060008054610697906138b9565b80601f01602080910402602001604051908101604052809291908181526020018280546106c3906138b9565b80156107105780601f106106e557610100808354040283529160200191610710565b820191906000526020600020905b8154815290600101906020018083116106f357829003601f168201915b5050505050905090565b600061072582611a01565b5061072f82611a89565b9050919050565b6107488282610743611ac6565b611ace565b5050565b6000600880549050905090565b600073ffffffffffffffffffffffffffffffffffffffff168273ffffffffffffffffffffffffffffffffffffffff16036107cb5760006040517f64a0ae920000000000000000000000000000000000000000000000000000000081526004016107c291906131e7565b60405180910390fd5b60006107df83836107da611ac6565b611ae0565b90508373ffffffffffffffffffffffffffffffffffffffff168173ffffffffffffffffffffffffffffffffffffffff1614610855578382826040517f64283d7b00000000000000000000000000000000000000000000000000000000815260040161084c939291906138ea565b60405180910390fd5b50505050565b60155481565b3373ffffffffffffffffffffffffffffffffffffffff166108818461145a565b73ffffffffffffffffffffffffffffffffffffffff16146108d7576040517f08c379a00000000000000000000000000000000000000000000000000000000081526004016108ce9061396d565b60405180910390fd5b6000811161091a576040517f08c379a0000000000000000000000000000000000000000000000000000000008152600401610911906139d9565b60405180910390fd5b6000828051906020012090507f2fb995b264f4328a65dd3434462358ea85212b01275efbe3314f8b3ff042592d810361097c5781600f600086815260200190815260200160002060008282546109709190613a28565b92505081905550610abc565b7f38c080e2f080733c009b17a60577cc056c6fe873d3b0562c5b2a7ac8ab39a64a81036109d257816010600086815260200190815260200160002060008282546109c69190613a28565b92505081905550610abb565b7f28888dd2f44e246e34c42016c84b90d5c47284912338748d8183bbe0084b157d8103610a285781601160008681526020019081526020016000206000828254610a1c9190613a28565b92505081905550610aba565b7f7640569a97876567a51304d4ecfba10ce772c00c69273b6430263e94f8cd3e798103610a7e5781601260008681526020019081526020016000206000828254610a729190613a28565b92505081905550610ab9565b6040517f08c379a0000000000000000000000000000000000000000000000000000000008152600401610ab090613aa8565b60405180910390fd5b5b5b5b50505050565b6000610acd3361146c565b14610b0d576040517f08c379a0000000000000000000000000000000000000000000000000000000008152600401610b0490613b14565b60405180910390fd5b60006040518060600160405280602981526020016143066029913990506000600c6000815480929190610b3f90613b34565b919050559050610b4f3382611af6565b610b598183611b14565b6001600e6000838152602001908152602001600020819055506000600d6000838152602001908152602001600020819055506032600f6000838152602001908152602001600020819055506032601060008381526020019081526020016000208190555060326011600083815260200190815260200160002081905550603260126000838152602001908152602001600020819055506040518060400160405280600681526020017f436f6d6d6f6e0000000000000000000000000000000000000000000000000000815250601360008381526020019081526020016000209081610c449190613d28565b505050565b6000816064610c589190613dfa565b9050919050565b6000610c6a8361146c565b8210610caf5782826040517fa57d13dc000000000000000000000000000000000000000000000000000000008152600401610ca6929190613e3c565b60405180910390fd5b600660008473ffffffffffffffffffffffffffffffffffffffff1673ffffffffffffffffffffffffffffffffffffffff168152602001908152602001600020600083815260200190815260200160002054905092915050565b6000600c6000815480929190610d1d90613b34565b919050559050610d2d8882611af6565b610d378188611b14565b6001600e6000838152602001908152602001600020819055506000600d60008381526020019081526020016000208190555085600f60008381526020019081526020016000208190555084601060008381526020019081526020016000208190555083601160008381526020019081526020016000208190555082601260008381526020019081526020016000208190555081601360008381526020019081526020016000209081610de99190613d28565b505050505050505050565b610e0f83838360405180602001604052806000815250611757565b505050565b610e27600082610e22611ac6565b611ae0565b5050565b6000610e3561074c565b8210610e7b576000826040517fa57d13dc000000000000000000000000000000000000000000000000000000008152600401610e72929190613e3c565b60405180910390fd5b60088281548110610e8f57610e8e613e65565b5b90600052602060002001549050919050565b600073ffffffffffffffffffffffffffffffffffffffff16610ec283611b70565b73ffffffffffffffffffffffffffffffffffffffff1603610f18576040517f08c379a0000000000000000000000000000000000000000000000000000000008152600401610f0f90613ee0565b60405180910390fd5b3373ffffffffffffffffffffffffffffffffffffffff16610f388361145a565b73ffffffffffffffffffffffffffffffffffffffff1614610f8e576040517f08c379a0000000000000000000000000000000000000000000000000000000008152600401610f859061396d565b60405180910390fd5b80600d60008481526020019081526020016000206000828254610fb19190613a28565b925050819055505b610fd5600e600084815260200190815260200160002054610c49565b600d600084815260200190815260200160002054106110ae5761100a600e600084815260200190815260200160002054610c49565b600d6000848152602001908152602001600020600082825461102c9190613f00565b925050819055506001600e600084815260200190815260200160002060008282546110579190613a28565b92505081905550817f3b7ca85b5e3d1ebb3a81e8d9e27bfeb9ef2f447026c115421132a20b0733b73f600e6000858152602001908152602001600020546040516110a1919061327d565b60405180910390a2610fb9565b817ffbe4d1b535a27c18c0f7e9e9e1892f6997d6752b3d98e2ffc5164b07c7a4c34582600d6000868152602001908152602001600020546040516110f3929190613f34565b60405180910390a25050565b3373ffffffffffffffffffffffffffffffffffffffff1661111f8561145a565b73ffffffffffffffffffffffffffffffffffffffff1614801561117557503373ffffffffffffffffffffffffffffffffffffffff1661115d8461145a565b73ffffffffffffffffffffffffffffffffffffffff16145b6111b4576040517f08c379a00000000000000000000000000000000000000000000000000000000081526004016111ab90613fa9565b60405180910390fd5b8284036111f6576040517f08c379a00000000000000000000000000000000000000000000000000000000081526004016111ed9061403b565b60405180910390fd5b60155460146000868152602001908152602001600020546112179190613a28565b421015611259576040517f08c379a0000000000000000000000000000000000000000000000000000000008152600401611250906140a7565b60405180910390fd5b601554601460008581526020019081526020016000205461127a9190613a28565b4210156112bc576040517f08c379a00000000000000000000000000000000000000000000000000000000081526004016112b390614113565b60405180910390fd5b60006002600f600086815260200190815260200160002054600f6000888152602001908152602001600020546112f29190613a28565b6112fc9190614162565b905060006002601060008781526020019081526020016000205460106000898152602001908152602001600020546113349190613a28565b61133e9190614162565b9050600060026011600088815260200190815260200160002054601160008a8152602001908152602001600020546113769190613a28565b6113809190614162565b9050600060026012600089815260200190815260200160002054601260008b8152602001908152602001600020546113b89190613a28565b6113c29190614162565b90506113d33387868686868b610d08565b60006001600c546113e49190613f00565b905042601460008b81526020019081526020016000208190555042601460008a81526020019081526020016000208190555087897fd22688113e185ba9c4a53004da9d15229252a61e6dbe7c1b3a5d609d89e62c4983604051611447919061327d565b60405180910390a3505050505050505050565b600061146582611a01565b9050919050565b60008073ffffffffffffffffffffffffffffffffffffffff168273ffffffffffffffffffffffffffffffffffffffff16036114df5760006040517f89c62b640000000000000000000000000000000000000000000000000000000081526004016114d691906131e7565b60405180910390fd5b600360008373ffffffffffffffffffffffffffffffffffffffff1673ffffffffffffffffffffffffffffffffffffffff168152602001908152602001600020549050919050565b61152e611bad565b6115386000611c34565b565b60008073ffffffffffffffffffffffffffffffffffffffff1661155c83611b70565b73ffffffffffffffffffffffffffffffffffffffff16036115b2576040517f08c379a00000000000000000000000000000000000000000000000000000000081526004016115a990613ee0565b60405180910390fd5b600e6000838152602001908152602001600020549050919050565b601360205280600052604060002060009150905080546115ec906138b9565b80601f0160208091040260200160405190810160405280929190818152602001828054611618906138b9565b80156116655780601f1061163a57610100808354040283529160200191611665565b820191906000526020600020905b81548152906001019060200180831161164857829003601f168201915b505050505081565b6000600b60009054906101000a900473ffffffffffffffffffffffffffffffffffffffff16905090565b6060600180546116a6906138b9565b80601f01602080910402602001604051908101604052809291908181526020018280546116d2906138b9565b801561171f5780601f106116f45761010080835404028352916020019161171f565b820191906000526020600020905b81548152906001019060200180831161170257829003601f168201915b5050505050905090565b61173b611734611ac6565b8383611cfa565b5050565b60146020528060005260406000206000915090505481565b611762848484610759565b61177661176d611ac6565b85858585611e69565b50505050565b60606117878261201a565b9050919050565b60008073ffffffffffffffffffffffffffffffffffffffff166117b083611b70565b73ffffffffffffffffffffffffffffffffffffffff1603611806576040517f08c379a00000000000000000000000000000000000000000000000000000000081526004016117fd90613ee0565b60405180910390fd5b600d6000838152602001908152602001600020549050919050565b600080600080600f60008681526020019081526020016000205493506010600086815260200190815260200160002054925060116000868152602001908152602001600020549150601260008681526020019081526020016000205490509193509193565b6000600560008473ffffffffffffffffffffffffffffffffffffffff1673ffffffffffffffffffffffffffffffffffffffff16815260200190815260200160002060008373ffffffffffffffffffffffffffffffffffffffff1673ffffffffffffffffffffffffffffffffffffffff16815260200190815260200160002060009054906101000a900460ff16905092915050565b611922611bad565b600073ffffffffffffffffffffffffffffffffffffffff168173ffffffffffffffffffffffffffffffffffffffff16036119945760006040517f1e4fbdf700000000000000000000000000000000000000000000000000000000815260040161198b91906131e7565b60405180910390fd5b61199d81611c34565b50565b6000634906490660e01b7bffffffffffffffffffffffffffffffffffffffffffffffffffffffff1916827bffffffffffffffffffffffffffffffffffffffffffffffffffffffff191614806119fa57506119f98261212d565b5b9050919050565b600080611a0d83611b70565b9050600073ffffffffffffffffffffffffffffffffffffffff168173ffffffffffffffffffffffffffffffffffffffff1603611a8057826040517f7e273289000000000000000000000000000000000000000000000000000000008152600401611a77919061327d565b60405180910390fd5b80915050919050565b60006004600083815260200190815260200160002060009054906101000a900473ffffffffffffffffffffffffffffffffffffffff169050919050565b600033905090565b611adb83838360016121a7565b505050565b6000611aed84848461236c565b90509392505050565b611b10828260405180602001604052806000815250612489565b5050565b80600a60008481526020019081526020016000209081611b349190613d28565b507ff8e1a15aba9398e019f0b49df1a4fde98ee17ae345cb5f6b5e2c27f5033e8ce782604051611b64919061327d565b60405180910390a15050565b60006002600083815260200190815260200160002060009054906101000a900473ffffffffffffffffffffffffffffffffffffffff169050919050565b611bb5611ac6565b73ffffffffffffffffffffffffffffffffffffffff16611bd361166d565b73ffffffffffffffffffffffffffffffffffffffff1614611c3257611bf6611ac6565b6040517f118cdaa7000000000000000000000000000000000000000000000000000000008152600401611c2991906131e7565b60405180910390fd5b565b6000600b60009054906101000a900473ffffffffffffffffffffffffffffffffffffffff16905081600b60006101000a81548173ffffffffffffffffffffffffffffffffffffffff021916908373ffffffffffffffffffffffffffffffffffffffff1602179055508173ffffffffffffffffffffffffffffffffffffffff168173ffffffffffffffffffffffffffffffffffffffff167f8be0079c531659141344cd1fd0a4f28419497f9722a3daafe3b4186f6b6457e060405160405180910390a35050565b600073ffffffffffffffffffffffffffffffffffffffff168273ffffffffffffffffffffffffffffffffffffffff1603611d6b57816040517f5b08ba18000000000000000000000000000000000000000000000000000000008152600401611d6291906131e7565b60405180910390fd5b80600560008573ffffffffffffffffffffffffffffffffffffffff1673ffffffffffffffffffffffffffffffffffffffff16815260200190815260200160002060008473ffffffffffffffffffffffffffffffffffffffff1673ffffffffffffffffffffffffffffffffffffffff16815260200190815260200160002060006101000a81548160ff0219169083151502179055508173ffffffffffffffffffffffffffffffffffffffff168373ffffffffffffffffffffffffffffffffffffffff167f17307eab39ab6107e8899845ad3d59bd9653f200f220920489ca2b5937696c3183604051611e5c9190613076565b60405180910390a3505050565b60008373ffffffffffffffffffffffffffffffffffffffff163b1115612013578273ffffffffffffffffffffffffffffffffffffffff1663150b7a02868685856040518563ffffffff1660e01b8152600401611ec894939291906141e8565b6020604051808303816000875af1925050508015611f0457506040513d601f19601f82011682018060405250810190611f019190614249565b60015b611f88573d8060008114611f34576040519150601f19603f3d011682016040523d82523d6000602084013e611f39565b606091505b506000815103611f8057836040517f64a0ae92000000000000000000000000000000000000000000000000000000008152600401611f7791906131e7565b60405180910390fd5b805181602001fd5b63150b7a0260e01b7bffffffffffffffffffffffffffffffffffffffffffffffffffffffff1916817bffffffffffffffffffffffffffffffffffffffffffffffffffffffff19161461201157836040517f64a0ae9200000000000000000000000000000000000000000000000000000000815260040161200891906131e7565b60405180910390fd5b505b5050505050565b606061202582611a01565b506000600a60008481526020019081526020016000208054612046906138b9565b80601f0160208091040260200160405190810160405280929190818152602001828054612072906138b9565b80156120bf5780601f10612094576101008083540402835291602001916120bf565b820191906000526020600020905b8154815290600101906020018083116120a257829003601f168201915b5050505050905060006120d06124ad565b905060008151036120e5578192505050612128565b60008251111561211a5780826040516020016121029291906142b2565b60405160208183030381529060405292505050612128565b612123846124c4565b925050505b919050565b60007f780e9d63000000000000000000000000000000000000000000000000000000007bffffffffffffffffffffffffffffffffffffffffffffffffffffffff1916827bffffffffffffffffffffffffffffffffffffffffffffffffffffffff191614806121a0575061219f8261252d565b5b9050919050565b80806121e05750600073ffffffffffffffffffffffffffffffffffffffff168273ffffffffffffffffffffffffffffffffffffffff1614155b156123145760006121f084611a01565b9050600073ffffffffffffffffffffffffffffffffffffffff168373ffffffffffffffffffffffffffffffffffffffff161415801561225b57508273ffffffffffffffffffffffffffffffffffffffff168173ffffffffffffffffffffffffffffffffffffffff1614155b801561226e575061226c8184611886565b155b156122b057826040517fa9fbf51f0000000000000000000000000000000000000000000000000000000081526004016122a791906131e7565b60405180910390fd5b811561231257838573ffffffffffffffffffffffffffffffffffffffff168273ffffffffffffffffffffffffffffffffffffffff167f8c5be1e5ebec7d5bd14f71427d1e84f3dd0314c0f7b2291e5b200ac8c7c3b92560405160405180910390a45b505b836004600085815260200190815260200160002060006101000a81548173ffffffffffffffffffffffffffffffffffffffff021916908373ffffffffffffffffffffffffffffffffffffffff16021790555050505050565b60008061237a85858561260f565b9050600073ffffffffffffffffffffffffffffffffffffffff168173ffffffffffffffffffffffffffffffffffffffff16036123be576123b984612829565b6123fd565b8473ffffffffffffffffffffffffffffffffffffffff168173ffffffffffffffffffffffffffffffffffffffff16146123fc576123fb8185612872565b5b5b600073ffffffffffffffffffffffffffffffffffffffff168573ffffffffffffffffffffffffffffffffffffffff160361243f5761243a8461295d565b61247e565b8473ffffffffffffffffffffffffffffffffffffffff168173ffffffffffffffffffffffffffffffffffffffff161461247d5761247c8585612a2e565b5b5b809150509392505050565b6124938383612ab9565b6124a861249e611ac6565b6000858585611e69565b505050565b606060405180602001604052806000815250905090565b60606124cf82611a01565b5060006124da6124ad565b905060008151116124fa5760405180602001604052806000815250612525565b8061250484612bb2565b6040516020016125159291906142b2565b6040516020818303038152906040525b915050919050565b60007f80ac58cd000000000000000000000000000000000000000000000000000000007bffffffffffffffffffffffffffffffffffffffffffffffffffffffff1916827bffffffffffffffffffffffffffffffffffffffffffffffffffffffff191614806125f857507f5b5e139f000000000000000000000000000000000000000000000000000000007bffffffffffffffffffffffffffffffffffffffffffffffffffffffff1916827bffffffffffffffffffffffffffffffffffffffffffffffffffffffff1916145b80612608575061260782612c80565b5b9050919050565b60008061261b84611b70565b9050600073ffffffffffffffffffffffffffffffffffffffff168373ffffffffffffffffffffffffffffffffffffffff161461265d5761265c818486612cea565b5b600073ffffffffffffffffffffffffffffffffffffffff168173ffffffffffffffffffffffffffffffffffffffff16146126ee5761269f6000856000806121a7565b6001600360008373ffffffffffffffffffffffffffffffffffffffff1673ffffffffffffffffffffffffffffffffffffffff168152602001908152602001600020600082825403925050819055505b600073ffffffffffffffffffffffffffffffffffffffff168573ffffffffffffffffffffffffffffffffffffffff1614612771576001600360008773ffffffffffffffffffffffffffffffffffffffff1673ffffffffffffffffffffffffffffffffffffffff168152602001908152602001600020600082825401925050819055505b846002600086815260200190815260200160002060006101000a81548173ffffffffffffffffffffffffffffffffffffffff021916908373ffffffffffffffffffffffffffffffffffffffff160217905550838573ffffffffffffffffffffffffffffffffffffffff168273ffffffffffffffffffffffffffffffffffffffff167fddf252ad1be2c89b69c2b068fc378daa952ba7f163c4a11628f55a4df523b3ef60405160405180910390a4809150509392505050565b6008805490506009600083815260200190815260200160002081905550600881908060018154018082558091505060019003906000526020600020016000909190919091505550565b600061287d8361146c565b90506000600760008481526020019081526020016000205490506000600660008673ffffffffffffffffffffffffffffffffffffffff1673ffffffffffffffffffffffffffffffffffffffff16815260200190815260200160002090508282146129295760008160008581526020019081526020016000205490508082600085815260200190815260200160002081905550826007600083815260200190815260200160002081905550505b6007600085815260200190815260200160002060009055806000848152602001908152602001600020600090555050505050565b600060016008805490506129719190613f00565b90506000600960008481526020019081526020016000205490506000600883815481106129a1576129a0613e65565b5b9060005260206000200154905080600883815481106129c3576129c2613e65565b5b906000526020600020018190555081600960008381526020019081526020016000208190555060096000858152602001908152602001600020600090556008805480612a1257612a116142d6565b5b6001900381819060005260206000200160009055905550505050565b60006001612a3b8461146c565b612a459190613f00565b905081600660008573ffffffffffffffffffffffffffffffffffffffff1673ffffffffffffffffffffffffffffffffffffffff168152602001908152602001600020600083815260200190815260200160002081905550806007600084815260200190815260200160002081905550505050565b600073ffffffffffffffffffffffffffffffffffffffff168273ffffffffffffffffffffffffffffffffffffffff1603612b2b5760006040517f64a0ae92000000000000000000000000000000000000000000000000000000008152600401612b2291906131e7565b60405180910390fd5b6000612b3983836000611ae0565b9050600073ffffffffffffffffffffffffffffffffffffffff168173ffffffffffffffffffffffffffffffffffffffff1614612bad5760006040517f73c6ac6e000000000000000000000000000000000000000000000000000000008152600401612ba491906131e7565b60405180910390fd5b505050565b606060006001612bc184612dae565b01905060008167ffffffffffffffff811115612be057612bdf6132f5565b5b6040519080825280601f01601f191660200182016040528015612c125781602001600182028036833780820191505090505b509050600082602001820190505b600115612c75578080600190039150507f3031323334353637383961626364656600000000000000000000000000000000600a86061a8153600a8581612c6957612c68614133565b5b04945060008503612c20575b819350505050919050565b60007f01ffc9a7000000000000000000000000000000000000000000000000000000007bffffffffffffffffffffffffffffffffffffffffffffffffffffffff1916827bffffffffffffffffffffffffffffffffffffffffffffffffffffffff1916149050919050565b612cf5838383612f01565b612da957600073ffffffffffffffffffffffffffffffffffffffff168373ffffffffffffffffffffffffffffffffffffffff1603612d6a57806040517f7e273289000000000000000000000000000000000000000000000000000000008152600401612d61919061327d565b60405180910390fd5b81816040517f177e802f000000000000000000000000000000000000000000000000000000008152600401612da0929190613e3c565b60405180910390fd5b505050565b600080600090507a184f03e93ff9f4daa797ed6e38ed64bf6a1f0100000000000000008310612e0c577a184f03e93ff9f4daa797ed6e38ed64bf6a1f0100000000000000008381612e0257612e01614133565b5b0492506040810190505b6d04ee2d6d415b85acef81000000008310612e49576d04ee2d6d415b85acef81000000008381612e3f57612e3e614133565b5b0492506020810190505b662386f26fc100008310612e7857662386f26fc100008381612e6e57612e6d614133565b5b0492506010810190505b6305f5e1008310612ea1576305f5e1008381612e9757612e96614133565b5b0492506008810190505b6127108310612ec6576127108381612ebc57612ebb614133565b5b0492506004810190505b60648310612ee95760648381612edf57612ede614133565b5b0492506002810190505b600a8310612ef8576001810190505b80915050919050565b60008073ffffffffffffffffffffffffffffffffffffffff168373ffffffffffffffffffffffffffffffffffffffff1614158015612fb957508273ffffffffffffffffffffffffffffffffffffffff168473ffffffffffffffffffffffffffffffffffffffff161480612f7a5750612f798484611886565b5b80612fb857508273ffffffffffffffffffffffffffffffffffffffff16612fa083611a89565b73ffffffffffffffffffffffffffffffffffffffff16145b5b90509392505050565b6000604051905090565b600080fd5b600080fd5b60007fffffffff0000000000000000000000000000000000000000000000000000000082169050919050565b61300b81612fd6565b811461301657600080fd5b50565b60008135905061302881613002565b92915050565b60006020828403121561304457613043612fcc565b5b600061305284828501613019565b91505092915050565b60008115159050919050565b6130708161305b565b82525050565b600060208201905061308b6000830184613067565b92915050565b600081519050919050565b600082825260208201905092915050565b60005b838110156130cb5780820151818401526020810190506130b0565b60008484015250505050565b6000601f19601f8301169050919050565b60006130f382613091565b6130fd818561309c565b935061310d8185602086016130ad565b613116816130d7565b840191505092915050565b6000602082019050818103600083015261313b81846130e8565b905092915050565b6000819050919050565b61315681613143565b811461316157600080fd5b50565b6000813590506131738161314d565b92915050565b60006020828403121561318f5761318e612fcc565b5b600061319d84828501613164565b91505092915050565b600073ffffffffffffffffffffffffffffffffffffffff82169050919050565b60006131d1826131a6565b9050919050565b6131e1816131c6565b82525050565b60006020820190506131fc60008301846131d8565b92915050565b61320b816131c6565b811461321657600080fd5b50565b60008135905061322881613202565b92915050565b6000806040838503121561324557613244612fcc565b5b600061325385828601613219565b925050602061326485828601613164565b9150509250929050565b61327781613143565b82525050565b6000602082019050613292600083018461326e565b92915050565b6000806000606084860312156132b1576132b0612fcc565b5b60006132bf86828701613219565b93505060206132d086828701613219565b92505060406132e186828701613164565b9150509250925092565b600080fd5b600080fd5b7f4e487b7100000000000000000000000000000000000000000000000000000000600052604160045260246000fd5b61332d826130d7565b810181811067ffffffffffffffff8211171561334c5761334b6132f5565b5b80604052505050565b600061335f612fc2565b905061336b8282613324565b919050565b600067ffffffffffffffff82111561338b5761338a6132f5565b5b613394826130d7565b9050602081019050919050565b82818337600083830152505050565b60006133c36133be84613370565b613355565b9050828152602081018484840111156133df576133de6132f0565b5b6133ea8482856133a1565b509392505050565b600082601f830112613407576134066132eb565b5b81356134178482602086016133b0565b91505092915050565b60008060006060848603121561343957613438612fcc565b5b600061344786828701613164565b935050602084013567ffffffffffffffff81111561346857613467612fd1565b5b613474868287016133f2565b925050604061348586828701613164565b9150509250925092565b600080600080600080600060e0888a0312156134ae576134ad612fcc565b5b60006134bc8a828b01613219565b975050602088013567ffffffffffffffff8111156134dd576134dc612fd1565b5b6134e98a828b016133f2565b96505060406134fa8a828b01613164565b955050606061350b8a828b01613164565b945050608061351c8a828b01613164565b93505060a061352d8a828b01613164565b92505060c088013567ffffffffffffffff81111561354e5761354d612fd1565b5b61355a8a828b016133f2565b91505092959891949750929550565b600080604083850312156135805761357f612fcc565b5b600061358e85828601613164565b925050602061359f85828601613164565b9150509250929050565b600080600080608085870312156135c3576135c2612fcc565b5b60006135d187828801613164565b94505060206135e287828801613164565b935050604085013567ffffffffffffffff81111561360357613602612fd1565b5b61360f878288016133f2565b925050606085013567ffffffffffffffff8111156136305761362f612fd1565b5b61363c878288016133f2565b91505092959194509250565b60006020828403121561365e5761365d612fcc565b5b600061366c84828501613219565b91505092915050565b61367e8161305b565b811461368957600080fd5b50565b60008135905061369b81613675565b92915050565b600080604083850312156136b8576136b7612fcc565b5b60006136c685828601613219565b92505060206136d78582860161368c565b9150509250929050565b600067ffffffffffffffff8211156136fc576136fb6132f5565b5b613705826130d7565b9050602081019050919050565b6000613725613720846136e1565b613355565b905082815260208101848484011115613741576137406132f0565b5b61374c8482856133a1565b509392505050565b600082601f830112613769576137686132eb565b5b8135613779848260208601613712565b91505092915050565b6000806000806080858703121561379c5761379b612fcc565b5b60006137aa87828801613219565b94505060206137bb87828801613219565b93505060406137cc87828801613164565b925050606085013567ffffffffffffffff8111156137ed576137ec612fd1565b5b6137f987828801613754565b91505092959194509250565b600060808201905061381a600083018761326e565b613827602083018661326e565b613834604083018561326e565b613841606083018461326e565b95945050505050565b6000806040838503121561386157613860612fcc565b5b600061386f85828601613219565b925050602061388085828601613219565b9150509250929050565b7f4e487b7100000000000000000000000000000000000000000000000000000000600052602260045260246000fd5b600060028204905060018216806138d157607f821691505b6020821081036138e4576138e361388a565b5b50919050565b60006060820190506138ff60008301866131d8565b61390c602083018561326e565b61391960408301846131d8565b949350505050565b7f4e6f7420746865206f776e657200000000000000000000000000000000000000600082015250565b6000613957600d8361309c565b915061396282613921565b602082019050919050565b600060208201905081810360008301526139868161394a565b9050919050565b7f416d6f756e74206d757374206265203e20300000000000000000000000000000600082015250565b60006139c360128361309c565b91506139ce8261398d565b602082019050919050565b600060208201905081810360008301526139f2816139b6565b9050919050565b7f4e487b7100000000000000000000000000000000000000000000000000000000600052601160045260246000fd5b6000613a3382613143565b9150613a3e83613143565b9250828201905080821115613a5657613a556139f9565b5b92915050565b7f496e76616c696420747261697400000000000000000000000000000000000000600082015250565b6000613a92600d8361309c565b9150613a9d82613a5c565b602082019050919050565b60006020820190508181036000830152613ac181613a85565b9050919050565b7f596f7520616c7265616479206f776e2061206372656174757265000000000000600082015250565b6000613afe601a8361309c565b9150613b0982613ac8565b602082019050919050565b60006020820190508181036000830152613b2d81613af1565b9050919050565b6000613b3f82613143565b91507fffffffffffffffffffffffffffffffffffffffffffffffffffffffffffffffff8203613b7157613b706139f9565b5b600182019050919050565b60008190508160005260206000209050919050565b60006020601f8301049050919050565b600082821b905092915050565b600060088302613bde7fffffffffffffffffffffffffffffffffffffffffffffffffffffffffffffffff82613ba1565b613be88683613ba1565b95508019841693508086168417925050509392505050565b6000819050919050565b6000613c25613c20613c1b84613143565b613c00565b613143565b9050919050565b6000819050919050565b613c3f83613c0a565b613c53613c4b82613c2c565b848454613bae565b825550505050565b600090565b613c68613c5b565b613c73818484613c36565b505050565b5b81811015613c9757613c8c600082613c60565b600181019050613c79565b5050565b601f821115613cdc57613cad81613b7c565b613cb684613b91565b81016020851015613cc5578190505b613cd9613cd185613b91565b830182613c78565b50505b505050565b600082821c905092915050565b6000613cff60001984600802613ce1565b1980831691505092915050565b6000613d188383613cee565b9150826002028217905092915050565b613d3182613091565b67ffffffffffffffff811115613d4a57613d496132f5565b5b613d5482546138b9565b613d5f828285613c9b565b600060209050601f831160018114613d925760008415613d80578287015190505b613d8a8582613d0c565b865550613df2565b601f198416613da086613b7c565b60005b82811015613dc857848901518255600182019150602085019450602081019050613da3565b86831015613de55784890151613de1601f891682613cee565b8355505b6001600288020188555050505b505050505050565b6000613e0582613143565b9150613e1083613143565b9250828202613e1e81613143565b91508282048414831517613e3557613e346139f9565b5b5092915050565b6000604082019050613e5160008301856131d8565b613e5e602083018461326e565b9392505050565b7f4e487b7100000000000000000000000000000000000000000000000000000000600052603260045260246000fd5b7f4e6f6e6578697374656e7420746f6b656e000000000000000000000000000000600082015250565b6000613eca60118361309c565b9150613ed582613e94565b602082019050919050565b60006020820190508181036000830152613ef981613ebd565b9050919050565b6000613f0b82613143565b9150613f1683613143565b9250828203905081811115613f2e57613f2d6139f9565b5b92915050565b6000604082019050613f49600083018561326e565b613f56602083018461326e565b9392505050565b7f596f75206d757374206f776e20626f746820706172656e747300000000000000600082015250565b6000613f9360198361309c565b9150613f9e82613f5d565b602082019050919050565b60006020820190508181036000830152613fc281613f86565b9050919050565b7f43616e6e6f74206272656564206120637265617475726520776974682069747360008201527f656c660000000000000000000000000000000000000000000000000000000000602082015250565b600061402560238361309c565b915061403082613fc9565b604082019050919050565b6000602082019050818103600083015261405481614018565b9050919050565b7f506172656e742031207374696c6c206f6e20636f6f6c646f776e000000000000600082015250565b6000614091601a8361309c565b915061409c8261405b565b602082019050919050565b600060208201905081810360008301526140c081614084565b9050919050565b7f506172656e742032207374696c6c206f6e20636f6f6c646f776e000000000000600082015250565b60006140fd601a8361309c565b9150614108826140c7565b602082019050919050565b6000602082019050818103600083015261412c816140f0565b9050919050565b7f4e487b7100000000000000000000000000000000000000000000000000000000600052601260045260246000fd5b600061416d82613143565b915061417883613143565b92508261418857614187614133565b5b828204905092915050565b600081519050919050565b600082825260208201905092915050565b60006141ba82614193565b6141c4818561419e565b93506141d48185602086016130ad565b6141dd816130d7565b840191505092915050565b60006080820190506141fd60008301876131d8565b61420a60208301866131d8565b614217604083018561326e565b818103606083015261422981846141af565b905095945050505050565b60008151905061424381613002565b92915050565b60006020828403121561425f5761425e612fcc565b5b600061426d84828501614234565b91505092915050565b600081905092915050565b600061428c82613091565b6142968185614276565b93506142a68185602086016130ad565b80840191505092915050565b60006142be8285614281565b91506142ca8284614281565b91508190509392505050565b7f4e487b7100000000000000000000000000000000000000000000000000000000600052603160045260246000fdfe68747470733a2f2f6578616d706c652e636f6d2f64656661756c742d63726561747572652e6a736f6ea2646970667358221220bee39a8c5a152c8d9a9ded3634c21bd2822dc46066eebfd0e2335f83fecf1d4064736f6c634300081b0033",
  "linkReferences": {},
  "deployedLinkReferences": {}
}