{
  "_format": "hh-sol-artifact-1",
  "contractName": "CreatureNFT",
  "sourceName": "contracts/CreatureNFT.sol",
  "abi": [
    {
      "inputs": [
        {
          "internalType": "address",
          "name": "initialOwner",
          "type": "address"
        }
      ],
      "stateMutability": "nonpayable",
      "type": "constructor"
    },
    {
      "inputs": [],
      "name": "ERC721EnumerableForbiddenBatchMint",
      "type": "error"
    },
    {
      "inputs": [
        {
          "internalType": "address",
          "name": "sender",
          "type": "address"
        },
        {
          "internalType": "uint256",
          "name": "tokenId",
          "type": "uint256"
        },
        {
          "internalType": "address",
          "name": "owner",
          "type": "address"
        }
      ],
      "name": "ERC721IncorrectOwner",
      "type": "error"
    },
    {
      "inputs": [
        {
          "internalType": "address",
          "name": "operator",
          "type": "address"
        },
        {
          "internalType": "uint256",
          "name": "tokenId",
          "type": "uint256"
        }
      ],
      "name": "ERC721InsufficientApproval",
      "type": "error"
    },
    {
      "inputs": [
        {
          "internalType": "address",
          "name": "approver",
          "type": "address"
        }
      ],
      "name": "ERC721InvalidApprover",
      "type": "error"
    },
    {
      "inputs": [
        {
          "internalType": "address",
          "name": "operator",
          "type": "address"
        }
      ],
      "name": "ERC721InvalidOperator",
      "type": "error"
    },
    {
      "inputs": [
        {
          "internalType": "address",
          "name": "owner",
          "type": "address"
        }
      ],
      "name": "ERC721InvalidOwner",
      "type": "error"
    },
    {
      "inputs": [
        {
          "internalType": "address",
          "name": "receiver",
          "type": "address"
        }
      ],
      "name": "ERC721InvalidReceiver",
      "type": "error"
    },
    {
      "inputs": [
        {
          "internalType": "address",
          "name": "sender",
          "type": "address"
        }
      ],
      "name": "ERC721InvalidSender",
      "type": "error"
    },
    {
      "inputs": [
        {
          "internalType": "uint256",
          "name": "tokenId",
          "type": "uint256"
        }
      ],
      "name": "ERC721NonexistentToken",
      "type": "error"
    },
    {
      "inputs": [
        {
          "internalType": "address",
          "name": "owner",
          "type": "address"
        },
        {
          "internalType": "uint256",
          "name": "index",
          "type": "uint256"
        }
      ],
      "name": "ERC721OutOfBoundsIndex",
      "type": "error"
    },
    {
      "inputs": [
        {
          "internalType": "address",
          "name": "owner",
          "type": "address"
        }
      ],
      "name": "OwnableInvalidOwner",
      "type": "error"
    },
    {
      "inputs": [
        {
          "internalType": "address",
          "name": "account",
          "type": "address"
        }
      ],
      "name": "OwnableUnauthorizedAccount",
      "type": "error"
    },
    {
      "anonymous": false,
      "inputs": [
        {
          "indexed": true,
          "internalType": "address",
          "name": "owner",
          "type": "address"
        },
        {
          "indexed": true,
          "internalType": "address",
          "name": "approved",
          "type": "address"
        },
        {
          "indexed": true,
          "internalType": "uint256",
          "name": "tokenId",
          "type": "uint256"
        }
      ],
      "name": "Approval",
      "type": "event"
    },
    {
      "anonymous": false,
      "inputs": [
        {
          "indexed": true,
          "internalType": "address",
          "name": "owner",
          "type": "address"
        },
        {
          "indexed": true,
          "internalType": "address",
          "name": "operator",
          "type": "address"
        },
        {
          "indexed": false,
          "internalType": "bool",
          "name": "approved",
          "type": "bool"
        }
      ],
      "name": "ApprovalForAll",
      "type": "event"
    },
    {
      "anonymous": false,
      "inputs": [
        {
          "indexed": false,
          "internalType": "uint256",
          "name": "_fromTokenId",
          "type": "uint256"
        },
        {
          "indexed": false,
          "internalType": "uint256",
          "name": "_toTokenId",
          "type": "uint256"
        }
      ],
      "name": "BatchMetadataUpdate",
      "type": "event"
    },
    {
      "anonymous": false,
      "inputs": [
        {
          "indexed": true,
          "internalType": "uint256",
          "name": "tokenId",
          "type": "uint256"
        },
        {
          "indexed": false,
          "internalType": "uint8",
          "name": "newStage",
          "type": "uint8"
        },
        {
          "indexed": false,
          "internalType": "string",
          "name": "newUri",
          "type": "string"
        }
      ],
      "name": "Evolved",
      "type": "event"
    },
    {
      "anonymous": false,
      "inputs": [
        {
          "indexed": true,
          "internalType": "uint256",
          "name": "tokenId",
          "type": "uint256"
        },
        {
          "indexed": false,
          "internalType": "uint256",
          "name": "newLevel",
          "type": "uint256"
        }
      ],
      "name": "LevelUp",
      "type": "event"
    },
    {
      "anonymous": false,
      "inputs": [
        {
          "indexed": false,
          "internalType": "uint256",
          "name": "_tokenId",
          "type": "uint256"
        }
      ],
      "name": "MetadataUpdate",
      "type": "event"
    },
    {
      "anonymous": false,
      "inputs": [
        {
          "indexed": true,
          "internalType": "address",
          "name": "previousOwner",
          "type": "address"
        },
        {
          "indexed": true,
          "internalType": "address",
          "name": "newOwner",
          "type": "address"
        }
      ],
      "name": "OwnershipTransferred",
      "type": "event"
    },
    {
      "anonymous": false,
      "inputs": [
        {
          "indexed": true,
          "internalType": "address",
          "name": "from",
          "type": "address"
        },
        {
          "indexed": true,
          "internalType": "address",
          "name": "to",
          "type": "address"
        },
        {
          "indexed": true,
          "internalType": "uint256",
          "name": "tokenId",
          "type": "uint256"
        }
      ],
      "name": "Transfer",
      "type": "event"
    },
    {
      "anonymous": false,
      "inputs": [
        {
          "indexed": true,
          "internalType": "uint256",
          "name": "tokenId",
          "type": "uint256"
        },
        {
          "indexed": false,
          "internalType": "uint256",
          "name": "amount",
          "type": "uint256"
        },
        {
          "indexed": false,
          "internalType": "uint256",
          "name": "newXP",
          "type": "uint256"
        }
      ],
      "name": "XPAdded",
      "type": "event"
    },
    {
      "inputs": [
        {
          "internalType": "uint256",
          "name": "tokenId",
          "type": "uint256"
        },
        {
          "internalType": "uint256",
          "name": "amount",
          "type": "uint256"
        }
      ],
      "name": "addXP",
      "outputs": [],
      "stateMutability": "nonpayable",
      "type": "function"
    },
    {
      "inputs": [
        {
          "internalType": "address",
          "name": "to",
          "type": "address"
        },
        {
          "internalType": "uint256",
          "name": "tokenId",
          "type": "uint256"
        }
      ],
      "name": "approve",
      "outputs": [],
      "stateMutability": "nonpayable",
      "type": "function"
    },
    {
      "inputs": [
        {
          "internalType": "address",
          "name": "owner",
          "type": "address"
        }
      ],
      "name": "balanceOf",
      "outputs": [
        {
          "internalType": "uint256",
          "name": "",
          "type": "uint256"
        }
      ],
      "stateMutability": "view",
      "type": "function"
    },
    {
      "inputs": [
        {
          "internalType": "uint256",
          "name": "tokenId",
          "type": "uint256"
        }
      ],
      "name": "burn",
      "outputs": [],
      "stateMutability": "nonpayable",
      "type": "function"
    },
    {
      "inputs": [
        {
          "internalType": "uint256",
          "name": "tokenId",
          "type": "uint256"
        }
      ],
      "name": "canEvolve",
      "outputs": [
        {
          "internalType": "bool",
          "name": "",
          "type": "bool"
        }
      ],
      "stateMutability": "view",
      "type": "function"
    },
    {
      "inputs": [
        {
          "internalType": "uint256",
          "name": "tokenId",
          "type": "uint256"
        },
        {
          "internalType": "string",
          "name": "newUri",
          "type": "string"
        }
      ],
      "name": "evolve",
      "outputs": [],
      "stateMutability": "nonpayable",
      "type": "function"
    },
    {
      "inputs": [
        {
          "internalType": "uint256",
          "name": "tokenId",
          "type": "uint256"
        }
      ],
      "name": "getApproved",
      "outputs": [
        {
          "internalType": "address",
          "name": "",
          "type": "address"
        }
      ],
      "stateMutability": "view",
      "type": "function"
    },
    {
      "inputs": [
        {
          "internalType": "uint256",
          "name": "tokenId",
          "type": "uint256"
        }
      ],
      "name": "getEvolutionStage",
      "outputs": [
        {
          "internalType": "uint8",
          "name": "",
          "type": "uint8"
        }
      ],
      "stateMutability": "view",
      "type": "function"
    },
    {
      "inputs": [
        {
          "internalType": "uint256",
          "name": "tokenId",
          "type": "uint256"
        }
      ],
      "name": "getLevel",
      "outputs": [
        {
          "internalType": "uint256",
          "name": "",
          "type": "uint256"
        }
      ],
      "stateMutability": "view",
      "type": "function"
    },
    {
      "inputs": [
        {
          "internalType": "uint256",
          "name": "tokenId",
          "type": "uint256"
        }
      ],
      "name": "getTraits",
      "outputs": [
        {
          "internalType": "uint256",
          "name": "power",
          "type": "uint256"
        },
        {
          "internalType": "uint256",
          "name": "speed",
          "type": "uint256"
        },
        {
          "internalType": "uint256",
          "name": "defense",
          "type": "uint256"
        },
        {
          "internalType": "uint256",
          "name": "intelligence",
          "type": "uint256"
        }
      ],
      "stateMutability": "view",
      "type": "function"
    },
    {
      "inputs": [
        {
          "internalType": "uint256",
          "name": "tokenId",
          "type": "uint256"
        }
      ],
      "name": "getXP",
      "outputs": [
        {
          "internalType": "uint256",
          "name": "",
          "type": "uint256"
        }
      ],
      "stateMutability": "view",
      "type": "function"
    },
    {
      "inputs": [
        {
          "internalType": "address",
          "name": "owner",
          "type": "address"
        },
        {
          "internalType": "address",
          "name": "operator",
          "type": "address"
        }
      ],
      "name": "isApprovedForAll",
      "outputs": [
        {
          "internalType": "bool",
          "name": "",
          "type": "bool"
        }
      ],
      "stateMutability": "view",
      "type": "function"
    },
    {
      "inputs": [
        {
          "internalType": "address",
          "name": "to",
          "type": "address"
        },
        {
          "internalType": "string",
          "name": "uri",
          "type": "string"
        },
        {
          "internalType": "uint256",
          "name": "powerInit",
          "type": "uint256"
        },
        {
          "internalType": "uint256",
          "name": "speedInit",
          "type": "uint256"
        },
        {
          "internalType": "uint256",
          "name": "defenseInit",
          "type": "uint256"
        },
        {
          "internalType": "uint256",
          "name": "intelligenceInit",
          "type": "uint256"
        }
      ],
      "name": "mintCreature",
      "outputs": [],
      "stateMutability": "nonpayable",
      "type": "function"
    },
    {
      "inputs": [],
      "name": "mintFirstCreature",
      "outputs": [],
      "stateMutability": "nonpayable",
      "type": "function"
    },
    {
      "inputs": [],
      "name": "name",
      "outputs": [
        {
          "internalType": "string",
          "name": "",
          "type": "string"
        }
      ],
      "stateMutability": "view",
      "type": "function"
    },
    {
      "inputs": [],
      "name": "owner",
      "outputs": [
        {
          "internalType": "address",
          "name": "",
          "type": "address"
        }
      ],
      "stateMutability": "view",
      "type": "function"
    },
    {
      "inputs": [
        {
          "internalType": "uint256",
          "name": "tokenId",
          "type": "uint256"
        }
      ],
      "name": "ownerOf",
      "outputs": [
        {
          "internalType": "address",
          "name": "",
          "type": "address"
        }
      ],
      "stateMutability": "view",
      "type": "function"
    },
    {
      "inputs": [],
      "name": "renounceOwnership",
      "outputs": [],
      "stateMutability": "nonpayable",
      "type": "function"
    },
    {
      "inputs": [
        {
          "internalType": "address",
          "name": "from",
          "type": "address"
        },
        {
          "internalType": "address",
          "name": "to",
          "type": "address"
        },
        {
          "internalType": "uint256",
          "name": "tokenId",
          "type": "uint256"
        }
      ],
      "name": "safeTransferFrom",
      "outputs": [],
      "stateMutability": "nonpayable",
      "type": "function"
    },
    {
      "inputs": [
        {
          "internalType": "address",
          "name": "from",
          "type": "address"
        },
        {
          "internalType": "address",
          "name": "to",
          "type": "address"
        },
        {
          "internalType": "uint256",
          "name": "tokenId",
          "type": "uint256"
        },
        {
          "internalType": "bytes",
          "name": "data",
          "type": "bytes"
        }
      ],
      "name": "safeTransferFrom",
      "outputs": [],
      "stateMutability": "nonpayable",
      "type": "function"
    },
    {
      "inputs": [
        {
          "internalType": "address",
          "name": "operator",
          "type": "address"
        },
        {
          "internalType": "bool",
          "name": "approved",
          "type": "bool"
        }
      ],
      "name": "setApprovalForAll",
      "outputs": [],
      "stateMutability": "nonpayable",
      "type": "function"
    },
    {
      "inputs": [
        {
          "internalType": "bytes4",
          "name": "interfaceId",
          "type": "bytes4"
        }
      ],
      "name": "supportsInterface",
      "outputs": [
        {
          "internalType": "bool",
          "name": "",
          "type": "bool"
        }
      ],
      "stateMutability": "view",
      "type": "function"
    },
    {
      "inputs": [],
      "name": "symbol",
      "outputs": [
        {
          "internalType": "string",
          "name": "",
          "type": "string"
        }
      ],
      "stateMutability": "view",
      "type": "function"
    },
    {
      "inputs": [
        {
          "internalType": "uint256",
          "name": "index",
          "type": "uint256"
        }
      ],
      "name": "tokenByIndex",
      "outputs": [
        {
          "internalType": "uint256",
          "name": "",
          "type": "uint256"
        }
      ],
      "stateMutability": "view",
      "type": "function"
    },
    {
      "inputs": [
        {
          "internalType": "address",
          "name": "owner",
          "type": "address"
        },
        {
          "internalType": "uint256",
          "name": "index",
          "type": "uint256"
        }
      ],
      "name": "tokenOfOwnerByIndex",
      "outputs": [
        {
          "internalType": "uint256",
          "name": "",
          "type": "uint256"
        }
      ],
      "stateMutability": "view",
      "type": "function"
    },
    {
      "inputs": [
        {
          "internalType": "uint256",
          "name": "tokenId",
          "type": "uint256"
        }
      ],
      "name": "tokenURI",
      "outputs": [
        {
          "internalType": "string",
          "name": "",
          "type": "string"
        }
      ],
      "stateMutability": "view",
      "type": "function"
    },
    {
      "inputs": [],
      "name": "totalSupply",
      "outputs": [
        {
          "internalType": "uint256",
          "name": "",
          "type": "uint256"
        }
      ],
      "stateMutability": "view",
      "type": "function"
    },
    {
      "inputs": [
        {
          "internalType": "uint256",
          "name": "tokenId",
          "type": "uint256"
        },
        {
          "internalType": "string",
          "name": "trait",
          "type": "string"
        },
        {
          "internalType": "uint256",
          "name": "amount",
          "type": "uint256"
        }
      ],
      "name": "trainTrait",
      "outputs": [],
      "stateMutability": "nonpayable",
      "type": "function"
    },
    {
      "inputs": [
        {
          "internalType": "address",
          "name": "from",
          "type": "address"
        },
        {
          "internalType": "address",
          "name": "to",
          "type": "address"
        },
        {
          "internalType": "uint256",
          "name": "tokenId",
          "type": "uint256"
        }
      ],
      "name": "transferFrom",
      "outputs": [],
      "stateMutability": "nonpayable",
      "type": "function"
    },
    {
      "inputs": [
        {
          "internalType": "address",
          "name": "newOwner",
          "type": "address"
        }
      ],
      "name": "transferOwnership",
      "outputs": [],
      "stateMutability": "nonpayable",
      "type": "function"
    },
    {
      "inputs": [
        {
          "internalType": "uint256",
          "name": "currentLevel",
          "type": "uint256"
        }
      ],
      "name": "xpToNextLevel",
      "outputs": [
        {
          "internalType": "uint256",
          "name": "",
          "type": "uint256"
        }
      ],
      "stateMutability": "pure",
      "type": "function"
    }
  ],
  "bytecode": "0x608060405234801561001057600080fd5b506040516146b43803806146b483398181016040528101906100329190610272565b806040518060400160405280600b81526020017f43726561747572654e46540000000000000000000000000000000000000000008152506040518060400160405280600481526020017f435254520000000000000000000000000000000000000000000000000000000081525081600090816100ae91906104ef565b5080600190816100be91906104ef565b505050600073ffffffffffffffffffffffffffffffffffffffff168173ffffffffffffffffffffffffffffffffffffffff16036101335760006040517f1e4fbdf700000000000000000000000000000000000000000000000000000000815260040161012a91906105d0565b60405180910390fd5b6101428161014960201b60201c565b50506105eb565b6000600b60009054906101000a900473ffffffffffffffffffffffffffffffffffffffff16905081600b60006101000a81548173ffffffffffffffffffffffffffffffffffffffff021916908373ffffffffffffffffffffffffffffffffffffffff1602179055508173ffffffffffffffffffffffffffffffffffffffff168173ffffffffffffffffffffffffffffffffffffffff167f8be0079c531659141344cd1fd0a4f28419497f9722a3daafe3b4186f6b6457e060405160405180910390a35050565b600080fd5b600073ffffffffffffffffffffffffffffffffffffffff82169050919050565b600061023f82610214565b9050919050565b61024f81610234565b811461025a57600080fd5b50565b60008151905061026c81610246565b92915050565b6000602082840312156102885761028761020f565b5b60006102968482850161025d565b91505092915050565b600081519050919050565b7f4e487b7100000000000000000000000000000000000000000000000000000000600052604160045260246000fd5b7f4e487b7100000000000000000000000000000000000000000000000000000000600052602260045260246000fd5b6000600282049050600182168061032057607f821691505b602082108103610333576103326102d9565b5b50919050565b60008190508160005260206000209050919050565b60006020601f8301049050919050565b600082821b905092915050565b60006008830261039b7fffffffffffffffffffffffffffffffffffffffffffffffffffffffffffffffff8261035e565b6103a5868361035e565b95508019841693508086168417925050509392505050565b6000819050919050565b6000819050919050565b60006103ec6103e76103e2846103bd565b6103c7565b6103bd565b9050919050565b6000819050919050565b610406836103d1565b61041a610412826103f3565b84845461036b565b825550505050565b600090565b61042f610422565b61043a8184846103fd565b505050565b5b8181101561045e57610453600082610427565b600181019050610440565b5050565b601f8211156104a35761047481610339565b61047d8461034e565b8101602085101561048c578190505b6104a06104988561034e565b83018261043f565b50505b505050565b600082821c905092915050565b60006104c6600019846008026104a8565b1980831691505092915050565b60006104df83836104b5565b9150826002028217905092915050565b6104f88261029f565b67ffffffffffffffff811115610511576105106102aa565b5b61051b8254610308565b610526828285610462565b600060209050601f8311600181146105595760008415610547578287015190505b61055185826104d3565b8655506105b9565b601f19841661056786610339565b60005b8281101561058f5784890151825560018201915060208501945060208101905061056a565b868310156105ac57848901516105a8601f8916826104b5565b8355505b6001600288020188555050505b505050505050565b6105ca81610234565b82525050565b60006020820190506105e560008301846105c1565b92915050565b6140ba806105fa6000396000f3fe608060405234801561001057600080fd5b50600436106101e55760003560e01c80634f6ccce71161010f57806395d89b41116100a2578063d4cae94511610071578063d4cae9451461059e578063e1dc0761146105ce578063e985e9c514610601578063f2fde38b14610631576101e5565b806395d89b4114610518578063a22cb46514610536578063b88d4fde14610552578063c87b56dd1461056e576101e5565b8063715018a6116100de578063715018a614610490578063753ee2e21461049a57806386481d40146104ca5780638da5cb5b146104fa576101e5565b80634f6ccce7146103e45780635146ea0e146104145780636352211e1461043057806370a0823114610460576101e5565b806323b872dd116101875780632eccfdf8116101565780632eccfdf81461034c5780632f745c591461037c57806342842e0e146103ac57806342966c68146103c8576101e5565b806323b872dd146102da57806328958818146102f65780632942ae5a146103125780632a96160314610342576101e5565b8063095ea7b3116101c3578063095ea7b3146102685780630d59d463146102845780631466307e146102a057806318160ddd146102bc576101e5565b806301ffc9a7146101ea57806306fdde031461021a578063081812fc14610238575b600080fd5b61020460048036038101906101ff9190612eb1565b61064d565b6040516102119190612ef9565b60405180910390f35b61022261065f565b60405161022f9190612fa4565b60405180910390f35b610252600480360381019061024d9190612ffc565b6106f1565b60405161025f919061306a565b60405180910390f35b610282600480360381019061027d91906130b1565b61070d565b005b61029e60048036038101906102999190613226565b610723565b005b6102ba60048036038101906102b59190613282565b61091c565b005b6102c4610a17565b6040516102d1919061333a565b60405180910390f35b6102f460048036038101906102ef9190613355565b610a24565b005b610310600480360381019061030b91906133a8565b610b26565b005b61032c60048036038101906103279190612ffc565b610d87565b6040516103399190612ef9565b60405180910390f35b61034a610e2d565b005b61036660048036038101906103619190612ffc565b610f2b565b604051610373919061333a565b60405180910390f35b610396600480360381019061039191906130b1565b610f41565b6040516103a3919061333a565b60405180910390f35b6103c660048036038101906103c19190613355565b610fea565b005b6103e260048036038101906103dd9190612ffc565b61100a565b005b6103fe60048036038101906103f99190612ffc565b611021565b60405161040b919061333a565b60405180910390f35b61042e60048036038101906104299190613417565b611097565b005b61044a60048036038101906104459190612ffc565b6112f5565b604051610457919061306a565b60405180910390f35b61047a60048036038101906104759190613457565b611307565b604051610487919061333a565b60405180910390f35b6104986113c1565b005b6104b460048036038101906104af9190612ffc565b6113d5565b6040516104c191906134a0565b60405180910390f35b6104e460048036038101906104df9190612ffc565b611475565b6040516104f1919061333a565b60405180910390f35b610502611508565b60405161050f919061306a565b60405180910390f35b610520611532565b60405161052d9190612fa4565b60405180910390f35b610550600480360381019061054b91906134e7565b6115c4565b005b61056c600480360381019061056791906135c8565b6115da565b005b61058860048036038101906105839190612ffc565b6115ff565b6040516105959190612fa4565b60405180910390f35b6105b860048036038101906105b39190612ffc565b611611565b6040516105c5919061333a565b60405180910390f35b6105e860048036038101906105e39190612ffc565b6116a4565b6040516105f8949392919061364b565b60405180910390f35b61061b60048036038101906106169190613690565b611709565b6040516106289190612ef9565b60405180910390f35b61064b60048036038101906106469190613457565b61179d565b005b600061065882611823565b9050919050565b60606000805461066e906136ff565b80601f016020809104026020016040519081016040528092919081815260200182805461069a906136ff565b80156106e75780601f106106bc576101008083540402835291602001916106e7565b820191906000526020600020905b8154815290600101906020018083116106ca57829003601f168201915b5050505050905090565b60006106fc82611884565b506107068261190c565b9050919050565b61071f828261071a611949565b611951565b5050565b600073ffffffffffffffffffffffffffffffffffffffff1661074483611963565b73ffffffffffffffffffffffffffffffffffffffff160361079a576040517f08c379a00000000000000000000000000000000000000000000000000000000081526004016107919061377c565b60405180910390fd5b3373ffffffffffffffffffffffffffffffffffffffff166107ba836112f5565b73ffffffffffffffffffffffffffffffffffffffff1614610810576040517f08c379a0000000000000000000000000000000000000000000000000000000008152600401610807906137e8565b60405180910390fd5b60036013600084815260200190815260200160002060009054906101000a900460ff1660ff1610610876576040517f08c379a000000000000000000000000000000000000000000000000000000000815260040161086d90613854565b60405180910390fd5b600060016013600085815260200190815260200160002060009054906101000a900460ff166108a591906138a3565b9050806013600085815260200190815260200160002060006101000a81548160ff021916908360ff1602179055506108dd83836119a0565b827f4de5be88c9b13e976fcfac23a7386c528d753c7571d2ae51525f36e5c2651874828460405161090f9291906138d8565b60405180910390a2505050565b6000600c549050600c600081548092919061093690613908565b919050555061094587826119fc565b61094f81876119a0565b6001600e6000838152602001908152602001600020819055506000600d60008381526020019081526020016000208190555084600f60008381526020019081526020016000208190555083601060008381526020019081526020016000208190555082601160008381526020019081526020016000208190555081601260008381526020019081526020016000208190555060016013600083815260200190815260200160002060006101000a81548160ff021916908360ff16021790555050505050505050565b6000600880549050905090565b600073ffffffffffffffffffffffffffffffffffffffff168273ffffffffffffffffffffffffffffffffffffffff1603610a965760006040517f64a0ae92000000000000000000000000000000000000000000000000000000008152600401610a8d919061306a565b60405180910390fd5b6000610aaa8383610aa5611949565b611a1a565b90508373ffffffffffffffffffffffffffffffffffffffff168173ffffffffffffffffffffffffffffffffffffffff1614610b20578382826040517f64283d7b000000000000000000000000000000000000000000000000000000008152600401610b1793929190613950565b60405180910390fd5b50505050565b3373ffffffffffffffffffffffffffffffffffffffff16610b46846112f5565b73ffffffffffffffffffffffffffffffffffffffff1614610b9c576040517f08c379a0000000000000000000000000000000000000000000000000000000008152600401610b93906137e8565b60405180910390fd5b60008111610bdf576040517f08c379a0000000000000000000000000000000000000000000000000000000008152600401610bd6906139d3565b60405180910390fd5b6000828051906020012090507f2fb995b264f4328a65dd3434462358ea85212b01275efbe3314f8b3ff042592d8103610c415781600f60008681526020019081526020016000206000828254610c3591906139f3565b92505081905550610d81565b7f38c080e2f080733c009b17a60577cc056c6fe873d3b0562c5b2a7ac8ab39a64a8103610c975781601060008681526020019081526020016000206000828254610c8b91906139f3565b92505081905550610d80565b7f28888dd2f44e246e34c42016c84b90d5c47284912338748d8183bbe0084b157d8103610ced5781601160008681526020019081526020016000206000828254610ce191906139f3565b92505081905550610d7f565b7f7640569a97876567a51304d4ecfba10ce772c00c69273b6430263e94f8cd3e798103610d435781601260008681526020019081526020016000206000828254610d3791906139f3565b92505081905550610d7e565b6040517f08c379a0000000000000000000000000000000000000000000000000000000008152600401610d7590613a73565b60405180910390fd5b5b5b5b50505050565b60008073ffffffffffffffffffffffffffffffffffffffff16610da983611963565b73ffffffffffffffffffffffffffffffffffffffff1603610dff576040517f08c379a0000000000000000000000000000000000000000000000000000000008152600401610df69061377c565b60405180910390fd5b60036013600084815260200190815260200160002060009054906101000a900460ff1660ff16109050919050565b6000610e3833611307565b14610e78576040517f08c379a0000000000000000000000000000000000000000000000000000000008152600401610e6f90613adf565b60405180910390fd5b60006040518060a00160405280606f8152602001614016606f913990506000600c549050600c6000815480929190610eaf90613908565b9190505550610ebe33826119fc565b610ec881836119a0565b6001600e6000838152602001908152602001600020819055506000600d60008381526020019081526020016000208190555060016013600083815260200190815260200160002060006101000a81548160ff021916908360ff1602179055505050565b6000816064610f3a9190613aff565b9050919050565b6000610f4c83611307565b8210610f915782826040517fa57d13dc000000000000000000000000000000000000000000000000000000008152600401610f88929190613b41565b60405180910390fd5b600660008473ffffffffffffffffffffffffffffffffffffffff1673ffffffffffffffffffffffffffffffffffffffff168152602001908152602001600020600083815260200190815260200160002054905092915050565b611005838383604051806020016040528060008152506115da565b505050565b61101d600082611018611949565b611a1a565b5050565b600061102b610a17565b8210611071576000826040517fa57d13dc000000000000000000000000000000000000000000000000000000008152600401611068929190613b41565b60405180910390fd5b6008828154811061108557611084613b6a565b5b90600052602060002001549050919050565b600073ffffffffffffffffffffffffffffffffffffffff166110b883611963565b73ffffffffffffffffffffffffffffffffffffffff160361110e576040517f08c379a00000000000000000000000000000000000000000000000000000000081526004016111059061377c565b60405180910390fd5b3373ffffffffffffffffffffffffffffffffffffffff1661112e836112f5565b73ffffffffffffffffffffffffffffffffffffffff1614611184576040517f08c379a000000000000000000000000000000000000000000000000000000000815260040161117b906137e8565b60405180910390fd5b80600d600084815260200190815260200160002060008282546111a791906139f3565b925050819055505b6111cb600e600084815260200190815260200160002054610f2b565b600d600084815260200190815260200160002054106112a457611200600e600084815260200190815260200160002054610f2b565b600d600084815260200190815260200160002060008282546112229190613b99565b925050819055506001600e6000848152602001908152602001600020600082825461124d91906139f3565b92505081905550817f3b7ca85b5e3d1ebb3a81e8d9e27bfeb9ef2f447026c115421132a20b0733b73f600e600085815260200190815260200160002054604051611297919061333a565b60405180910390a26111af565b817ffbe4d1b535a27c18c0f7e9e9e1892f6997d6752b3d98e2ffc5164b07c7a4c34582600d6000868152602001908152602001600020546040516112e9929190613bcd565b60405180910390a25050565b600061130082611884565b9050919050565b60008073ffffffffffffffffffffffffffffffffffffffff168273ffffffffffffffffffffffffffffffffffffffff160361137a5760006040517f89c62b64000000000000000000000000000000000000000000000000000000008152600401611371919061306a565b60405180910390fd5b600360008373ffffffffffffffffffffffffffffffffffffffff1673ffffffffffffffffffffffffffffffffffffffff168152602001908152602001600020549050919050565b6113c9611a30565b6113d36000611ab7565b565b60008073ffffffffffffffffffffffffffffffffffffffff166113f783611963565b73ffffffffffffffffffffffffffffffffffffffff160361144d576040517f08c379a00000000000000000000000000000000000000000000000000000000081526004016114449061377c565b60405180910390fd5b6013600083815260200190815260200160002060009054906101000a900460ff169050919050565b60008073ffffffffffffffffffffffffffffffffffffffff1661149783611963565b73ffffffffffffffffffffffffffffffffffffffff16036114ed576040517f08c379a00000000000000000000000000000000000000000000000000000000081526004016114e49061377c565b60405180910390fd5b600e6000838152602001908152602001600020549050919050565b6000600b60009054906101000a900473ffffffffffffffffffffffffffffffffffffffff16905090565b606060018054611541906136ff565b80601f016020809104026020016040519081016040528092919081815260200182805461156d906136ff565b80156115ba5780601f1061158f576101008083540402835291602001916115ba565b820191906000526020600020905b81548152906001019060200180831161159d57829003601f168201915b5050505050905090565b6115d66115cf611949565b8383611b7d565b5050565b6115e5848484610a24565b6115f96115f0611949565b85858585611cec565b50505050565b606061160a82611e9d565b9050919050565b60008073ffffffffffffffffffffffffffffffffffffffff1661163383611963565b73ffffffffffffffffffffffffffffffffffffffff1603611689576040517f08c379a00000000000000000000000000000000000000000000000000000000081526004016116809061377c565b60405180910390fd5b600d6000838152602001908152602001600020549050919050565b600080600080600f60008681526020019081526020016000205493506010600086815260200190815260200160002054925060116000868152602001908152602001600020549150601260008681526020019081526020016000205490509193509193565b6000600560008473ffffffffffffffffffffffffffffffffffffffff1673ffffffffffffffffffffffffffffffffffffffff16815260200190815260200160002060008373ffffffffffffffffffffffffffffffffffffffff1673ffffffffffffffffffffffffffffffffffffffff16815260200190815260200160002060009054906101000a900460ff16905092915050565b6117a5611a30565b600073ffffffffffffffffffffffffffffffffffffffff168173ffffffffffffffffffffffffffffffffffffffff16036118175760006040517f1e4fbdf700000000000000000000000000000000000000000000000000000000815260040161180e919061306a565b60405180910390fd5b61182081611ab7565b50565b6000634906490660e01b7bffffffffffffffffffffffffffffffffffffffffffffffffffffffff1916827bffffffffffffffffffffffffffffffffffffffffffffffffffffffff1916148061187d575061187c82611fb0565b5b9050919050565b60008061189083611963565b9050600073ffffffffffffffffffffffffffffffffffffffff168173ffffffffffffffffffffffffffffffffffffffff160361190357826040517f7e2732890000000000000000000000000000000000000000000000000000000081526004016118fa919061333a565b60405180910390fd5b80915050919050565b60006004600083815260200190815260200160002060009054906101000a900473ffffffffffffffffffffffffffffffffffffffff169050919050565b600033905090565b61195e838383600161202a565b505050565b60006002600083815260200190815260200160002060009054906101000a900473ffffffffffffffffffffffffffffffffffffffff169050919050565b80600a600084815260200190815260200160002090816119c09190613da2565b507ff8e1a15aba9398e019f0b49df1a4fde98ee17ae345cb5f6b5e2c27f5033e8ce7826040516119f0919061333a565b60405180910390a15050565b611a168282604051806020016040528060008152506121ef565b5050565b6000611a27848484612213565b90509392505050565b611a38611949565b73ffffffffffffffffffffffffffffffffffffffff16611a56611508565b73ffffffffffffffffffffffffffffffffffffffff1614611ab557611a79611949565b6040517f118cdaa7000000000000000000000000000000000000000000000000000000008152600401611aac919061306a565b60405180910390fd5b565b6000600b60009054906101000a900473ffffffffffffffffffffffffffffffffffffffff16905081600b60006101000a81548173ffffffffffffffffffffffffffffffffffffffff021916908373ffffffffffffffffffffffffffffffffffffffff1602179055508173ffffffffffffffffffffffffffffffffffffffff168173ffffffffffffffffffffffffffffffffffffffff167f8be0079c531659141344cd1fd0a4f28419497f9722a3daafe3b4186f6b6457e060405160405180910390a35050565b600073ffffffffffffffffffffffffffffffffffffffff168273ffffffffffffffffffffffffffffffffffffffff1603611bee57816040517f5b08ba18000000000000000000000000000000000000000000000000000000008152600401611be5919061306a565b60405180910390fd5b80600560008573ffffffffffffffffffffffffffffffffffffffff1673ffffffffffffffffffffffffffffffffffffffff16815260200190815260200160002060008473ffffffffffffffffffffffffffffffffffffffff1673ffffffffffffffffffffffffffffffffffffffff16815260200190815260200160002060006101000a81548160ff0219169083151502179055508173ffffffffffffffffffffffffffffffffffffffff168373ffffffffffffffffffffffffffffffffffffffff167f17307eab39ab6107e8899845ad3d59bd9653f200f220920489ca2b5937696c3183604051611cdf9190612ef9565b60405180910390a3505050565b60008373ffffffffffffffffffffffffffffffffffffffff163b1115611e96578273ffffffffffffffffffffffffffffffffffffffff1663150b7a02868685856040518563ffffffff1660e01b8152600401611d4b9493929190613ec9565b6020604051808303816000875af1925050508015611d8757506040513d601f19601f82011682018060405250810190611d849190613f2a565b60015b611e0b573d8060008114611db7576040519150601f19603f3d011682016040523d82523d6000602084013e611dbc565b606091505b506000815103611e0357836040517f64a0ae92000000000000000000000000000000000000000000000000000000008152600401611dfa919061306a565b60405180910390fd5b805181602001fd5b63150b7a0260e01b7bffffffffffffffffffffffffffffffffffffffffffffffffffffffff1916817bffffffffffffffffffffffffffffffffffffffffffffffffffffffff191614611e9457836040517f64a0ae92000000000000000000000000000000000000000000000000000000008152600401611e8b919061306a565b60405180910390fd5b505b5050505050565b6060611ea882611884565b506000600a60008481526020019081526020016000208054611ec9906136ff565b80601f0160208091040260200160405190810160405280929190818152602001828054611ef5906136ff565b8015611f425780601f10611f1757610100808354040283529160200191611f42565b820191906000526020600020905b815481529060010190602001808311611f2557829003601f168201915b505050505090506000611f53612330565b90506000815103611f68578192505050611fab565b600082511115611f9d578082604051602001611f85929190613f93565b60405160208183030381529060405292505050611fab565b611fa684612347565b925050505b919050565b60007f780e9d63000000000000000000000000000000000000000000000000000000007bffffffffffffffffffffffffffffffffffffffffffffffffffffffff1916827bffffffffffffffffffffffffffffffffffffffffffffffffffffffff191614806120235750612022826123b0565b5b9050919050565b80806120635750600073ffffffffffffffffffffffffffffffffffffffff168273ffffffffffffffffffffffffffffffffffffffff1614155b1561219757600061207384611884565b9050600073ffffffffffffffffffffffffffffffffffffffff168373ffffffffffffffffffffffffffffffffffffffff16141580156120de57508273ffffffffffffffffffffffffffffffffffffffff168173ffffffffffffffffffffffffffffffffffffffff1614155b80156120f157506120ef8184611709565b155b1561213357826040517fa9fbf51f00000000000000000000000000000000000000000000000000000000815260040161212a919061306a565b60405180910390fd5b811561219557838573ffffffffffffffffffffffffffffffffffffffff168273ffffffffffffffffffffffffffffffffffffffff167f8c5be1e5ebec7d5bd14f71427d1e84f3dd0314c0f7b2291e5b200ac8c7c3b92560405160405180910390a45b505b836004600085815260200190815260200160002060006101000a81548173ffffffffffffffffffffffffffffffffffffffff021916908373ffffffffffffffffffffffffffffffffffffffff16021790555050505050565b6121f98383612492565b61220e612204611949565b6000858585611cec565b505050565b60008061222185858561258b565b9050600073ffffffffffffffffffffffffffffffffffffffff168173ffffffffffffffffffffffffffffffffffffffff160361226557612260846127a5565b6122a4565b8473ffffffffffffffffffffffffffffffffffffffff168173ffffffffffffffffffffffffffffffffffffffff16146122a3576122a281856127ee565b5b5b600073ffffffffffffffffffffffffffffffffffffffff168573ffffffffffffffffffffffffffffffffffffffff16036122e6576122e1846128d9565b612325565b8473ffffffffffffffffffffffffffffffffffffffff168173ffffffffffffffffffffffffffffffffffffffff16146123245761232385856129aa565b5b5b809150509392505050565b606060405180602001604052806000815250905090565b606061235282611884565b50600061235d612330565b9050600081511161237d57604051806020016040528060008152506123a8565b8061238784612a35565b604051602001612398929190613f93565b6040516020818303038152906040525b915050919050565b60007f80ac58cd000000000000000000000000000000000000000000000000000000007bffffffffffffffffffffffffffffffffffffffffffffffffffffffff1916827bffffffffffffffffffffffffffffffffffffffffffffffffffffffff1916148061247b57507f5b5e139f000000000000000000000000000000000000000000000000000000007bffffffffffffffffffffffffffffffffffffffffffffffffffffffff1916827bffffffffffffffffffffffffffffffffffffffffffffffffffffffff1916145b8061248b575061248a82612b03565b5b9050919050565b600073ffffffffffffffffffffffffffffffffffffffff168273ffffffffffffffffffffffffffffffffffffffff16036125045760006040517f64a0ae920000000000000000000000000000000000000000000000000000000081526004016124fb919061306a565b60405180910390fd5b600061251283836000611a1a565b9050600073ffffffffffffffffffffffffffffffffffffffff168173ffffffffffffffffffffffffffffffffffffffff16146125865760006040517f73c6ac6e00000000000000000000000000000000000000000000000000000000815260040161257d919061306a565b60405180910390fd5b505050565b60008061259784611963565b9050600073ffffffffffffffffffffffffffffffffffffffff168373ffffffffffffffffffffffffffffffffffffffff16146125d9576125d8818486612b6d565b5b600073ffffffffffffffffffffffffffffffffffffffff168173ffffffffffffffffffffffffffffffffffffffff161461266a5761261b60008560008061202a565b6001600360008373ffffffffffffffffffffffffffffffffffffffff1673ffffffffffffffffffffffffffffffffffffffff168152602001908152602001600020600082825403925050819055505b600073ffffffffffffffffffffffffffffffffffffffff168573ffffffffffffffffffffffffffffffffffffffff16146126ed576001600360008773ffffffffffffffffffffffffffffffffffffffff1673ffffffffffffffffffffffffffffffffffffffff168152602001908152602001600020600082825401925050819055505b846002600086815260200190815260200160002060006101000a81548173ffffffffffffffffffffffffffffffffffffffff021916908373ffffffffffffffffffffffffffffffffffffffff160217905550838573ffffffffffffffffffffffffffffffffffffffff168273ffffffffffffffffffffffffffffffffffffffff167fddf252ad1be2c89b69c2b068fc378daa952ba7f163c4a11628f55a4df523b3ef60405160405180910390a4809150509392505050565b6008805490506009600083815260200190815260200160002081905550600881908060018154018082558091505060019003906000526020600020016000909190919091505550565b60006127f983611307565b90506000600760008481526020019081526020016000205490506000600660008673ffffffffffffffffffffffffffffffffffffffff1673ffffffffffffffffffffffffffffffffffffffff16815260200190815260200160002090508282146128a55760008160008581526020019081526020016000205490508082600085815260200190815260200160002081905550826007600083815260200190815260200160002081905550505b6007600085815260200190815260200160002060009055806000848152602001908152602001600020600090555050505050565b600060016008805490506128ed9190613b99565b905060006009600084815260200190815260200160002054905060006008838154811061291d5761291c613b6a565b5b90600052602060002001549050806008838154811061293f5761293e613b6a565b5b90600052602060002001819055508160096000838152602001908152602001600020819055506009600085815260200190815260200160002060009055600880548061298e5761298d613fb7565b5b6001900381819060005260206000200160009055905550505050565b600060016129b784611307565b6129c19190613b99565b905081600660008573ffffffffffffffffffffffffffffffffffffffff1673ffffffffffffffffffffffffffffffffffffffff168152602001908152602001600020600083815260200190815260200160002081905550806007600084815260200190815260200160002081905550505050565b606060006001612a4484612c31565b01905060008167ffffffffffffffff811115612a6357612a626130fb565b5b6040519080825280601f01601f191660200182016040528015612a955781602001600182028036833780820191505090505b509050600082602001820190505b600115612af8578080600190039150507f3031323334353637383961626364656600000000000000000000000000000000600a86061a8153600a8581612aec57612aeb613fe6565b5b04945060008503612aa3575b819350505050919050565b60007f01ffc9a7000000000000000000000000000000000000000000000000000000007bffffffffffffffffffffffffffffffffffffffffffffffffffffffff1916827bffffffffffffffffffffffffffffffffffffffffffffffffffffffff1916149050919050565b612b78838383612d84565b612c2c57600073ffffffffffffffffffffffffffffffffffffffff168373ffffffffffffffffffffffffffffffffffffffff1603612bed57806040517f7e273289000000000000000000000000000000000000000000000000000000008152600401612be4919061333a565b60405180910390fd5b81816040517f177e802f000000000000000000000000000000000000000000000000000000008152600401612c23929190613b41565b60405180910390fd5b505050565b600080600090507a184f03e93ff9f4daa797ed6e38ed64bf6a1f0100000000000000008310612c8f577a184f03e93ff9f4daa797ed6e38ed64bf6a1f0100000000000000008381612c8557612c84613fe6565b5b0492506040810190505b6d04ee2d6d415b85acef81000000008310612ccc576d04ee2d6d415b85acef81000000008381612cc257612cc1613fe6565b5b0492506020810190505b662386f26fc100008310612cfb57662386f26fc100008381612cf157612cf0613fe6565b5b0492506010810190505b6305f5e1008310612d24576305f5e1008381612d1a57612d19613fe6565b5b0492506008810190505b6127108310612d49576127108381612d3f57612d3e613fe6565b5b0492506004810190505b60648310612d6c5760648381612d6257612d61613fe6565b5b0492506002810190505b600a8310612d7b576001810190505b80915050919050565b60008073ffffffffffffffffffffffffffffffffffffffff168373ffffffffffffffffffffffffffffffffffffffff1614158015612e3c57508273ffffffffffffffffffffffffffffffffffffffff168473ffffffffffffffffffffffffffffffffffffffff161480612dfd5750612dfc8484611709565b5b80612e3b57508273ffffffffffffffffffffffffffffffffffffffff16612e238361190c565b73ffffffffffffffffffffffffffffffffffffffff16145b5b90509392505050565b6000604051905090565b600080fd5b600080fd5b60007fffffffff0000000000000000000000000000000000000000000000000000000082169050919050565b612e8e81612e59565b8114612e9957600080fd5b50565b600081359050612eab81612e85565b92915050565b600060208284031215612ec757612ec6612e4f565b5b6000612ed584828501612e9c565b91505092915050565b60008115159050919050565b612ef381612ede565b82525050565b6000602082019050612f0e6000830184612eea565b92915050565b600081519050919050565b600082825260208201905092915050565b60005b83811015612f4e578082015181840152602081019050612f33565b60008484015250505050565b6000601f19601f8301169050919050565b6000612f7682612f14565b612f808185612f1f565b9350612f90818560208601612f30565b612f9981612f5a565b840191505092915050565b60006020820190508181036000830152612fbe8184612f6b565b905092915050565b6000819050919050565b612fd981612fc6565b8114612fe457600080fd5b50565b600081359050612ff681612fd0565b92915050565b60006020828403121561301257613011612e4f565b5b600061302084828501612fe7565b91505092915050565b600073ffffffffffffffffffffffffffffffffffffffff82169050919050565b600061305482613029565b9050919050565b61306481613049565b82525050565b600060208201905061307f600083018461305b565b92915050565b61308e81613049565b811461309957600080fd5b50565b6000813590506130ab81613085565b92915050565b600080604083850312156130c8576130c7612e4f565b5b60006130d68582860161309c565b92505060206130e785828601612fe7565b9150509250929050565b600080fd5b600080fd5b7f4e487b7100000000000000000000000000000000000000000000000000000000600052604160045260246000fd5b61313382612f5a565b810181811067ffffffffffffffff82111715613152576131516130fb565b5b80604052505050565b6000613165612e45565b9050613171828261312a565b919050565b600067ffffffffffffffff821115613191576131906130fb565b5b61319a82612f5a565b9050602081019050919050565b82818337600083830152505050565b60006131c96131c484613176565b61315b565b9050828152602081018484840111156131e5576131e46130f6565b5b6131f08482856131a7565b509392505050565b600082601f83011261320d5761320c6130f1565b5b813561321d8482602086016131b6565b91505092915050565b6000806040838503121561323d5761323c612e4f565b5b600061324b85828601612fe7565b925050602083013567ffffffffffffffff81111561326c5761326b612e54565b5b613278858286016131f8565b9150509250929050565b60008060008060008060c0878903121561329f5761329e612e4f565b5b60006132ad89828a0161309c565b965050602087013567ffffffffffffffff8111156132ce576132cd612e54565b5b6132da89828a016131f8565b95505060406132eb89828a01612fe7565b94505060606132fc89828a01612fe7565b935050608061330d89828a01612fe7565b92505060a061331e89828a01612fe7565b9150509295509295509295565b61333481612fc6565b82525050565b600060208201905061334f600083018461332b565b92915050565b60008060006060848603121561336e5761336d612e4f565b5b600061337c8682870161309c565b935050602061338d8682870161309c565b925050604061339e86828701612fe7565b9150509250925092565b6000806000606084860312156133c1576133c0612e4f565b5b60006133cf86828701612fe7565b935050602084013567ffffffffffffffff8111156133f0576133ef612e54565b5b6133fc868287016131f8565b925050604061340d86828701612fe7565b9150509250925092565b6000806040838503121561342e5761342d612e4f565b5b600061343c85828601612fe7565b925050602061344d85828601612fe7565b9150509250929050565b60006020828403121561346d5761346c612e4f565b5b600061347b8482850161309c565b91505092915050565b600060ff82169050919050565b61349a81613484565b82525050565b60006020820190506134b56000830184613491565b92915050565b6134c481612ede565b81146134cf57600080fd5b50565b6000813590506134e1816134bb565b92915050565b600080604083850312156134fe576134fd612e4f565b5b600061350c8582860161309c565b925050602061351d858286016134d2565b9150509250929050565b600067ffffffffffffffff821115613542576135416130fb565b5b61354b82612f5a565b9050602081019050919050565b600061356b61356684613527565b61315b565b905082815260208101848484011115613587576135866130f6565b5b6135928482856131a7565b509392505050565b600082601f8301126135af576135ae6130f1565b5b81356135bf848260208601613558565b91505092915050565b600080600080608085870312156135e2576135e1612e4f565b5b60006135f08782880161309c565b94505060206136018782880161309c565b935050604061361287828801612fe7565b925050606085013567ffffffffffffffff81111561363357613632612e54565b5b61363f8782880161359a565b91505092959194509250565b6000608082019050613660600083018761332b565b61366d602083018661332b565b61367a604083018561332b565b613687606083018461332b565b95945050505050565b600080604083850312156136a7576136a6612e4f565b5b60006136b58582860161309c565b92505060206136c68582860161309c565b9150509250929050565b7f4e487b7100000000000000000000000000000000000000000000000000000000600052602260045260246000fd5b6000600282049050600182168061371757607f821691505b60208210810361372a576137296136d0565b5b50919050565b7f4e6f6e6578697374656e7420746f6b656e000000000000000000000000000000600082015250565b6000613766601183612f1f565b915061377182613730565b602082019050919050565b6000602082019050818103600083015261379581613759565b9050919050565b7f4e6f7420746865206f776e657200000000000000000000000000000000000000600082015250565b60006137d2600d83612f1f565b91506137dd8261379c565b602082019050919050565b60006020820190508181036000830152613801816137c5565b9050919050565b7f4d61782065766f6c7574696f6e20726561636865640000000000000000000000600082015250565b600061383e601583612f1f565b915061384982613808565b602082019050919050565b6000602082019050818103600083015261386d81613831565b9050919050565b7f4e487b7100000000000000000000000000000000000000000000000000000000600052601160045260246000fd5b60006138ae82613484565b91506138b983613484565b9250828201905060ff8111156138d2576138d1613874565b5b92915050565b60006040820190506138ed6000830185613491565b81810360208301526138ff8184612f6b565b90509392505050565b600061391382612fc6565b91507fffffffffffffffffffffffffffffffffffffffffffffffffffffffffffffffff820361394557613944613874565b5b600182019050919050565b6000606082019050613965600083018661305b565b613972602083018561332b565b61397f604083018461305b565b949350505050565b7f416d6f756e74206d757374206265203e20300000000000000000000000000000600082015250565b60006139bd601283612f1f565b91506139c882613987565b602082019050919050565b600060208201905081810360008301526139ec816139b0565b9050919050565b60006139fe82612fc6565b9150613a0983612fc6565b9250828201905080821115613a2157613a20613874565b5b92915050565b7f496e76616c696420747261697400000000000000000000000000000000000000600082015250565b6000613a5d600d83612f1f565b9150613a6882613a27565b602082019050919050565b60006020820190508181036000830152613a8c81613a50565b9050919050565b7f596f7520616c7265616479206f776e2061206372656174757265000000000000600082015250565b6000613ac9601a83612f1f565b9150613ad482613a93565b602082019050919050565b60006020820190508181036000830152613af881613abc565b9050919050565b6000613b0a82612fc6565b9150613b1583612fc6565b9250828202613b2381612fc6565b91508282048414831517613b3a57613b39613874565b5b5092915050565b6000604082019050613b56600083018561305b565b613b63602083018461332b565b9392505050565b7f4e487b7100000000000000000000000000000000000000000000000000000000600052603260045260246000fd5b6000613ba482612fc6565b9150613baf83612fc6565b9250828203905081811115613bc757613bc6613874565b5b92915050565b6000604082019050613be2600083018561332b565b613bef602083018461332b565b9392505050565b60008190508160005260206000209050919050565b60006020601f8301049050919050565b600082821b905092915050565b600060088302613c587fffffffffffffffffffffffffffffffffffffffffffffffffffffffffffffffff82613c1b565b613c628683613c1b565b95508019841693508086168417925050509392505050565b6000819050919050565b6000613c9f613c9a613c9584612fc6565b613c7a565b612fc6565b9050919050565b6000819050919050565b613cb983613c84565b613ccd613cc582613ca6565b848454613c28565b825550505050565b600090565b613ce2613cd5565b613ced818484613cb0565b505050565b5b81811015613d1157613d06600082613cda565b600181019050613cf3565b5050565b601f821115613d5657613d2781613bf6565b613d3084613c0b565b81016020851015613d3f578190505b613d53613d4b85613c0b565b830182613cf2565b50505b505050565b600082821c905092915050565b6000613d7960001984600802613d5b565b1980831691505092915050565b6000613d928383613d68565b9150826002028217905092915050565b613dab82612f14565b67ffffffffffffffff811115613dc457613dc36130fb565b5b613dce82546136ff565b613dd9828285613d15565b600060209050601f831160018114613e0c5760008415613dfa578287015190505b613e048582613d86565b865550613e6c565b601f198416613e1a86613bf6565b60005b82811015613e4257848901518255600182019150602085019450602081019050613e1d565b86831015613e5f5784890151613e5b601f891682613d68565b8355505b6001600288020188555050505b505050505050565b600081519050919050565b600082825260208201905092915050565b6000613e9b82613e74565b613ea58185613e7f565b9350613eb5818560208601612f30565b613ebe81612f5a565b840191505092915050565b6000608082019050613ede600083018761305b565b613eeb602083018661305b565b613ef8604083018561332b565b8181036060830152613f0a8184613e90565b905095945050505050565b600081519050613f2481612e85565b92915050565b600060208284031215613f4057613f3f612e4f565b5b6000613f4e84828501613f15565b91505092915050565b600081905092915050565b6000613f6d82612f14565b613f778185613f57565b9350613f87818560208601612f30565b80840191505092915050565b6000613f9f8285613f62565b9150613fab8284613f62565b91508190509392505050565b7f4e487b7100000000000000000000000000000000000000000000000000000000600052603160045260246000fd5b7f4e487b7100000000000000000000000000000000000000000000000000000000600052601260045260246000fdfe68747470733a2f2f6d6f63636173696e2d6269672d6261626f6f6e2d3131302e6d7970696e6174612e636c6f75642f697066732f6261666b72656963646a6e64716c6e6632637573656b6771617778376b697567376e7678633573627632766976347074373262336c6164786b676da264697066735822122084ffff6641b04aba20d5868a7931b294668be2a07bb89bec6807cbf9d3f1371164736f6c634300081b0033",
  "linkReferences": {},
  "deployedLinkReferences": {}
}