{
  "_format": "hh-sol-artifact-1",
  "contractName": "CreatureNFT",
  "sourceName": "contracts/CreatureNFT.sol",
  "abi": [
    {
      "inputs": [
        {
          "internalType": "address",
          "name": "initialOwner",
          "type": "address"
        }
      ],
      "stateMutability": "nonpayable",
      "type": "constructor"
    },
    {
      "inputs": [],
      "name": "ERC721EnumerableForbiddenBatchMint",
      "type": "error"
    },
    {
      "inputs": [
        {
          "internalType": "address",
          "name": "sender",
          "type": "address"
        },
        {
          "internalType": "uint256",
          "name": "tokenId",
          "type": "uint256"
        },
        {
          "internalType": "address",
          "name": "owner",
          "type": "address"
        }
      ],
      "name": "ERC721IncorrectOwner",
      "type": "error"
    },
    {
      "inputs": [
        {
          "internalType": "address",
          "name": "operator",
          "type": "address"
        },
        {
          "internalType": "uint256",
          "name": "tokenId",
          "type": "uint256"
        }
      ],
      "name": "ERC721InsufficientApproval",
      "type": "error"
    },
    {
      "inputs": [
        {
          "internalType": "address",
          "name": "approver",
          "type": "address"
        }
      ],
      "name": "ERC721InvalidApprover",
      "type": "error"
    },
    {
      "inputs": [
        {
          "internalType": "address",
          "name": "operator",
          "type": "address"
        }
      ],
      "name": "ERC721InvalidOperator",
      "type": "error"
    },
    {
      "inputs": [
        {
          "internalType": "address",
          "name": "owner",
          "type": "address"
        }
      ],
      "name": "ERC721InvalidOwner",
      "type": "error"
    },
    {
      "inputs": [
        {
          "internalType": "address",
          "name": "receiver",
          "type": "address"
        }
      ],
      "name": "ERC721InvalidReceiver",
      "type": "error"
    },
    {
      "inputs": [
        {
          "internalType": "address",
          "name": "sender",
          "type": "address"
        }
      ],
      "name": "ERC721InvalidSender",
      "type": "error"
    },
    {
      "inputs": [
        {
          "internalType": "uint256",
          "name": "tokenId",
          "type": "uint256"
        }
      ],
      "name": "ERC721NonexistentToken",
      "type": "error"
    },
    {
      "inputs": [
        {
          "internalType": "address",
          "name": "owner",
          "type": "address"
        },
        {
          "internalType": "uint256",
          "name": "index",
          "type": "uint256"
        }
      ],
      "name": "ERC721OutOfBoundsIndex",
      "type": "error"
    },
    {
      "inputs": [
        {
          "internalType": "address",
          "name": "owner",
          "type": "address"
        }
      ],
      "name": "OwnableInvalidOwner",
      "type": "error"
    },
    {
      "inputs": [
        {
          "internalType": "address",
          "name": "account",
          "type": "address"
        }
      ],
      "name": "OwnableUnauthorizedAccount",
      "type": "error"
    },
    {
      "anonymous": false,
      "inputs": [
        {
          "indexed": true,
          "internalType": "address",
          "name": "owner",
          "type": "address"
        },
        {
          "indexed": true,
          "internalType": "address",
          "name": "approved",
          "type": "address"
        },
        {
          "indexed": true,
          "internalType": "uint256",
          "name": "tokenId",
          "type": "uint256"
        }
      ],
      "name": "Approval",
      "type": "event"
    },
    {
      "anonymous": false,
      "inputs": [
        {
          "indexed": true,
          "internalType": "address",
          "name": "owner",
          "type": "address"
        },
        {
          "indexed": true,
          "internalType": "address",
          "name": "operator",
          "type": "address"
        },
        {
          "indexed": false,
          "internalType": "bool",
          "name": "approved",
          "type": "bool"
        }
      ],
      "name": "ApprovalForAll",
      "type": "event"
    },
    {
      "anonymous": false,
      "inputs": [
        {
          "indexed": false,
          "internalType": "uint256",
          "name": "_fromTokenId",
          "type": "uint256"
        },
        {
          "indexed": false,
          "internalType": "uint256",
          "name": "_toTokenId",
          "type": "uint256"
        }
      ],
      "name": "BatchMetadataUpdate",
      "type": "event"
    },
    {
      "anonymous": false,
      "inputs": [
        {
          "indexed": true,
          "internalType": "uint256",
          "name": "tokenId",
          "type": "uint256"
        },
        {
          "indexed": false,
          "internalType": "uint256",
          "name": "newLevel",
          "type": "uint256"
        }
      ],
      "name": "LevelUp",
      "type": "event"
    },
    {
      "anonymous": false,
      "inputs": [
        {
          "indexed": false,
          "internalType": "uint256",
          "name": "_tokenId",
          "type": "uint256"
        }
      ],
      "name": "MetadataUpdate",
      "type": "event"
    },
    {
      "anonymous": false,
      "inputs": [
        {
          "indexed": true,
          "internalType": "address",
          "name": "previousOwner",
          "type": "address"
        },
        {
          "indexed": true,
          "internalType": "address",
          "name": "newOwner",
          "type": "address"
        }
      ],
      "name": "OwnershipTransferred",
      "type": "event"
    },
    {
      "anonymous": false,
      "inputs": [
        {
          "indexed": true,
          "internalType": "address",
          "name": "from",
          "type": "address"
        },
        {
          "indexed": true,
          "internalType": "address",
          "name": "to",
          "type": "address"
        },
        {
          "indexed": true,
          "internalType": "uint256",
          "name": "tokenId",
          "type": "uint256"
        }
      ],
      "name": "Transfer",
      "type": "event"
    },
    {
      "anonymous": false,
      "inputs": [
        {
          "indexed": true,
          "internalType": "uint256",
          "name": "tokenId",
          "type": "uint256"
        },
        {
          "indexed": false,
          "internalType": "uint256",
          "name": "amount",
          "type": "uint256"
        },
        {
          "indexed": false,
          "internalType": "uint256",
          "name": "newXP",
          "type": "uint256"
        }
      ],
      "name": "XPAdded",
      "type": "event"
    },
    {
      "inputs": [
        {
          "internalType": "uint256",
          "name": "tokenId",
          "type": "uint256"
        },
        {
          "internalType": "uint256",
          "name": "amount",
          "type": "uint256"
        }
      ],
      "name": "addXP",
      "outputs": [],
      "stateMutability": "nonpayable",
      "type": "function"
    },
    {
      "inputs": [
        {
          "internalType": "address",
          "name": "to",
          "type": "address"
        },
        {
          "internalType": "uint256",
          "name": "tokenId",
          "type": "uint256"
        }
      ],
      "name": "approve",
      "outputs": [],
      "stateMutability": "nonpayable",
      "type": "function"
    },
    {
      "inputs": [
        {
          "internalType": "address",
          "name": "owner",
          "type": "address"
        }
      ],
      "name": "balanceOf",
      "outputs": [
        {
          "internalType": "uint256",
          "name": "",
          "type": "uint256"
        }
      ],
      "stateMutability": "view",
      "type": "function"
    },
    {
      "inputs": [
        {
          "internalType": "uint256",
          "name": "tokenId",
          "type": "uint256"
        }
      ],
      "name": "burn",
      "outputs": [],
      "stateMutability": "nonpayable",
      "type": "function"
    },
    {
      "inputs": [
        {
          "internalType": "uint256",
          "name": "tokenId",
          "type": "uint256"
        }
      ],
      "name": "getApproved",
      "outputs": [
        {
          "internalType": "address",
          "name": "",
          "type": "address"
        }
      ],
      "stateMutability": "view",
      "type": "function"
    },
    {
      "inputs": [
        {
          "internalType": "uint256",
          "name": "tokenId",
          "type": "uint256"
        }
      ],
      "name": "getLevel",
      "outputs": [
        {
          "internalType": "uint256",
          "name": "",
          "type": "uint256"
        }
      ],
      "stateMutability": "view",
      "type": "function"
    },
    {
      "inputs": [
        {
          "internalType": "uint256",
          "name": "tokenId",
          "type": "uint256"
        }
      ],
      "name": "getTraits",
      "outputs": [
        {
          "internalType": "uint256",
          "name": "power",
          "type": "uint256"
        },
        {
          "internalType": "uint256",
          "name": "speed",
          "type": "uint256"
        },
        {
          "internalType": "uint256",
          "name": "defense",
          "type": "uint256"
        },
        {
          "internalType": "uint256",
          "name": "intelligence",
          "type": "uint256"
        }
      ],
      "stateMutability": "view",
      "type": "function"
    },
    {
      "inputs": [
        {
          "internalType": "uint256",
          "name": "tokenId",
          "type": "uint256"
        }
      ],
      "name": "getXP",
      "outputs": [
        {
          "internalType": "uint256",
          "name": "",
          "type": "uint256"
        }
      ],
      "stateMutability": "view",
      "type": "function"
    },
    {
      "inputs": [
        {
          "internalType": "address",
          "name": "owner",
          "type": "address"
        },
        {
          "internalType": "address",
          "name": "operator",
          "type": "address"
        }
      ],
      "name": "isApprovedForAll",
      "outputs": [
        {
          "internalType": "bool",
          "name": "",
          "type": "bool"
        }
      ],
      "stateMutability": "view",
      "type": "function"
    },
    {
      "inputs": [
        {
          "internalType": "address",
          "name": "to",
          "type": "address"
        },
        {
          "internalType": "string",
          "name": "uri",
          "type": "string"
        },
        {
          "internalType": "uint256",
          "name": "powerInit",
          "type": "uint256"
        },
        {
          "internalType": "uint256",
          "name": "speedInit",
          "type": "uint256"
        },
        {
          "internalType": "uint256",
          "name": "defenseInit",
          "type": "uint256"
        },
        {
          "internalType": "uint256",
          "name": "intelligenceInit",
          "type": "uint256"
        }
      ],
      "name": "mintCreature",
      "outputs": [],
      "stateMutability": "nonpayable",
      "type": "function"
    },
    {
      "inputs": [],
      "name": "mintFirstCreature",
      "outputs": [],
      "stateMutability": "nonpayable",
      "type": "function"
    },
    {
      "inputs": [],
      "name": "name",
      "outputs": [
        {
          "internalType": "string",
          "name": "",
          "type": "string"
        }
      ],
      "stateMutability": "view",
      "type": "function"
    },
    {
      "inputs": [],
      "name": "owner",
      "outputs": [
        {
          "internalType": "address",
          "name": "",
          "type": "address"
        }
      ],
      "stateMutability": "view",
      "type": "function"
    },
    {
      "inputs": [
        {
          "internalType": "uint256",
          "name": "tokenId",
          "type": "uint256"
        }
      ],
      "name": "ownerOf",
      "outputs": [
        {
          "internalType": "address",
          "name": "",
          "type": "address"
        }
      ],
      "stateMutability": "view",
      "type": "function"
    },
    {
      "inputs": [],
      "name": "renounceOwnership",
      "outputs": [],
      "stateMutability": "nonpayable",
      "type": "function"
    },
    {
      "inputs": [
        {
          "internalType": "address",
          "name": "from",
          "type": "address"
        },
        {
          "internalType": "address",
          "name": "to",
          "type": "address"
        },
        {
          "internalType": "uint256",
          "name": "tokenId",
          "type": "uint256"
        }
      ],
      "name": "safeTransferFrom",
      "outputs": [],
      "stateMutability": "nonpayable",
      "type": "function"
    },
    {
      "inputs": [
        {
          "internalType": "address",
          "name": "from",
          "type": "address"
        },
        {
          "internalType": "address",
          "name": "to",
          "type": "address"
        },
        {
          "internalType": "uint256",
          "name": "tokenId",
          "type": "uint256"
        },
        {
          "internalType": "bytes",
          "name": "data",
          "type": "bytes"
        }
      ],
      "name": "safeTransferFrom",
      "outputs": [],
      "stateMutability": "nonpayable",
      "type": "function"
    },
    {
      "inputs": [
        {
          "internalType": "address",
          "name": "operator",
          "type": "address"
        },
        {
          "internalType": "bool",
          "name": "approved",
          "type": "bool"
        }
      ],
      "name": "setApprovalForAll",
      "outputs": [],
      "stateMutability": "nonpayable",
      "type": "function"
    },
    {
      "inputs": [
        {
          "internalType": "bytes4",
          "name": "interfaceId",
          "type": "bytes4"
        }
      ],
      "name": "supportsInterface",
      "outputs": [
        {
          "internalType": "bool",
          "name": "",
          "type": "bool"
        }
      ],
      "stateMutability": "view",
      "type": "function"
    },
    {
      "inputs": [],
      "name": "symbol",
      "outputs": [
        {
          "internalType": "string",
          "name": "",
          "type": "string"
        }
      ],
      "stateMutability": "view",
      "type": "function"
    },
    {
      "inputs": [
        {
          "internalType": "uint256",
          "name": "index",
          "type": "uint256"
        }
      ],
      "name": "tokenByIndex",
      "outputs": [
        {
          "internalType": "uint256",
          "name": "",
          "type": "uint256"
        }
      ],
      "stateMutability": "view",
      "type": "function"
    },
    {
      "inputs": [
        {
          "internalType": "address",
          "name": "owner",
          "type": "address"
        },
        {
          "internalType": "uint256",
          "name": "index",
          "type": "uint256"
        }
      ],
      "name": "tokenOfOwnerByIndex",
      "outputs": [
        {
          "internalType": "uint256",
          "name": "",
          "type": "uint256"
        }
      ],
      "stateMutability": "view",
      "type": "function"
    },
    {
      "inputs": [
        {
          "internalType": "uint256",
          "name": "tokenId",
          "type": "uint256"
        }
      ],
      "name": "tokenURI",
      "outputs": [
        {
          "internalType": "string",
          "name": "",
          "type": "string"
        }
      ],
      "stateMutability": "view",
      "type": "function"
    },
    {
      "inputs": [],
      "name": "totalSupply",
      "outputs": [
        {
          "internalType": "uint256",
          "name": "",
          "type": "uint256"
        }
      ],
      "stateMutability": "view",
      "type": "function"
    },
    {
      "inputs": [
        {
          "internalType": "uint256",
          "name": "tokenId",
          "type": "uint256"
        },
        {
          "internalType": "string",
          "name": "trait",
          "type": "string"
        },
        {
          "internalType": "uint256",
          "name": "amount",
          "type": "uint256"
        }
      ],
      "name": "trainTrait",
      "outputs": [],
      "stateMutability": "nonpayable",
      "type": "function"
    },
    {
      "inputs": [
        {
          "internalType": "address",
          "name": "from",
          "type": "address"
        },
        {
          "internalType": "address",
          "name": "to",
          "type": "address"
        },
        {
          "internalType": "uint256",
          "name": "tokenId",
          "type": "uint256"
        }
      ],
      "name": "transferFrom",
      "outputs": [],
      "stateMutability": "nonpayable",
      "type": "function"
    },
    {
      "inputs": [
        {
          "internalType": "address",
          "name": "newOwner",
          "type": "address"
        }
      ],
      "name": "transferOwnership",
      "outputs": [],
      "stateMutability": "nonpayable",
      "type": "function"
    },
    {
      "inputs": [
        {
          "internalType": "uint256",
          "name": "currentLevel",
          "type": "uint256"
        }
      ],
      "name": "xpToNextLevel",
      "outputs": [
        {
          "internalType": "uint256",
          "name": "",
          "type": "uint256"
        }
      ],
      "stateMutability": "pure",
      "type": "function"
    }
  ],
  "bytecode": "0x608060405234801561001057600080fd5b5060405161411a38038061411a83398181016040528101906100329190610272565b806040518060400160405280600b81526020017f43726561747572654e46540000000000000000000000000000000000000000008152506040518060400160405280600481526020017f435254520000000000000000000000000000000000000000000000000000000081525081600090816100ae91906104ef565b5080600190816100be91906104ef565b505050600073ffffffffffffffffffffffffffffffffffffffff168173ffffffffffffffffffffffffffffffffffffffff16036101335760006040517f1e4fbdf700000000000000000000000000000000000000000000000000000000815260040161012a91906105d0565b60405180910390fd5b6101428161014960201b60201c565b50506105eb565b6000600b60009054906101000a900473ffffffffffffffffffffffffffffffffffffffff16905081600b60006101000a81548173ffffffffffffffffffffffffffffffffffffffff021916908373ffffffffffffffffffffffffffffffffffffffff1602179055508173ffffffffffffffffffffffffffffffffffffffff168173ffffffffffffffffffffffffffffffffffffffff167f8be0079c531659141344cd1fd0a4f28419497f9722a3daafe3b4186f6b6457e060405160405180910390a35050565b600080fd5b600073ffffffffffffffffffffffffffffffffffffffff82169050919050565b600061023f82610214565b9050919050565b61024f81610234565b811461025a57600080fd5b50565b60008151905061026c81610246565b92915050565b6000602082840312156102885761028761020f565b5b60006102968482850161025d565b91505092915050565b600081519050919050565b7f4e487b7100000000000000000000000000000000000000000000000000000000600052604160045260246000fd5b7f4e487b7100000000000000000000000000000000000000000000000000000000600052602260045260246000fd5b6000600282049050600182168061032057607f821691505b602082108103610333576103326102d9565b5b50919050565b60008190508160005260206000209050919050565b60006020601f8301049050919050565b600082821b905092915050565b60006008830261039b7fffffffffffffffffffffffffffffffffffffffffffffffffffffffffffffffff8261035e565b6103a5868361035e565b95508019841693508086168417925050509392505050565b6000819050919050565b6000819050919050565b60006103ec6103e76103e2846103bd565b6103c7565b6103bd565b9050919050565b6000819050919050565b610406836103d1565b61041a610412826103f3565b84845461036b565b825550505050565b600090565b61042f610422565b61043a8184846103fd565b505050565b5b8181101561045e57610453600082610427565b600181019050610440565b5050565b601f8211156104a35761047481610339565b61047d8461034e565b8101602085101561048c578190505b6104a06104988561034e565b83018261043f565b50505b505050565b600082821c905092915050565b60006104c6600019846008026104a8565b1980831691505092915050565b60006104df83836104b5565b9150826002028217905092915050565b6104f88261029f565b67ffffffffffffffff811115610511576105106102aa565b5b61051b8254610308565b610526828285610462565b600060209050601f8311600181146105595760008415610547578287015190505b61055185826104d3565b8655506105b9565b601f19841661056786610339565b60005b8281101561058f5784890151825560018201915060208501945060208101905061056a565b868310156105ac57848901516105a8601f8916826104b5565b8355505b6001600288020188555050505b505050505050565b6105ca81610234565b82525050565b60006020820190506105e560008301846105c1565b92915050565b613b20806105fa6000396000f3fe608060405234801561001057600080fd5b50600436106101c45760003560e01c80635146ea0e116100f9578063a22cb46511610097578063d4cae94511610071578063d4cae94514610501578063e1dc076114610531578063e985e9c514610564578063f2fde38b14610594576101c4565b8063a22cb46514610499578063b88d4fde146104b5578063c87b56dd146104d1576101c4565b8063715018a6116100d3578063715018a61461042357806386481d401461042d5780638da5cb5b1461045d57806395d89b411461047b576101c4565b80635146ea0e146103a75780636352211e146103c357806370a08231146103f3576101c4565b806328958818116101665780632f745c59116101405780632f745c591461030f57806342842e0e1461033f57806342966c681461035b5780634f6ccce714610377576101c4565b806328958818146102b95780632a961603146102d55780632eccfdf8146102df576101c4565b8063095ea7b3116101a2578063095ea7b3146102475780631466307e1461026357806318160ddd1461027f57806323b872dd1461029d576101c4565b806301ffc9a7146101c957806306fdde03146101f9578063081812fc14610217575b600080fd5b6101e360048036038101906101de9190612a7b565b6105b0565b6040516101f09190612ac3565b60405180910390f35b6102016105c2565b60405161020e9190612b6e565b60405180910390f35b610231600480360381019061022c9190612bc6565b610654565b60405161023e9190612c34565b60405180910390f35b610261600480360381019061025c9190612c7b565b610670565b005b61027d60048036038101906102789190612df0565b610686565b005b610287610754565b6040516102949190612ea8565b60405180910390f35b6102b760048036038101906102b29190612ec3565b610761565b005b6102d360048036038101906102ce9190612f16565b610863565b005b6102dd610ac4565b005b6102f960048036038101906102f49190612bc6565b610b95565b6040516103069190612ea8565b60405180910390f35b61032960048036038101906103249190612c7b565b610bab565b6040516103369190612ea8565b60405180910390f35b61035960048036038101906103549190612ec3565b610c54565b005b61037560048036038101906103709190612bc6565b610c74565b005b610391600480360381019061038c9190612bc6565b610c8b565b60405161039e9190612ea8565b60405180910390f35b6103c160048036038101906103bc9190612f85565b610d01565b005b6103dd60048036038101906103d89190612bc6565b610f5f565b6040516103ea9190612c34565b60405180910390f35b61040d60048036038101906104089190612fc5565b610f71565b60405161041a9190612ea8565b60405180910390f35b61042b61102b565b005b61044760048036038101906104429190612bc6565b61103f565b6040516104549190612ea8565b60405180910390f35b6104656110d2565b6040516104729190612c34565b60405180910390f35b6104836110fc565b6040516104909190612b6e565b60405180910390f35b6104b360048036038101906104ae919061301e565b61118e565b005b6104cf60048036038101906104ca91906130ff565b6111a4565b005b6104eb60048036038101906104e69190612bc6565b6111c9565b6040516104f89190612b6e565b60405180910390f35b61051b60048036038101906105169190612bc6565b6111db565b6040516105289190612ea8565b60405180910390f35b61054b60048036038101906105469190612bc6565b61126e565b60405161055b9493929190613182565b60405180910390f35b61057e600480360381019061057991906131c7565b6112d3565b60405161058b9190612ac3565b60405180910390f35b6105ae60048036038101906105a99190612fc5565b611367565b005b60006105bb826113ed565b9050919050565b6060600080546105d190613236565b80601f01602080910402602001604051908101604052809291908181526020018280546105fd90613236565b801561064a5780601f1061061f5761010080835404028352916020019161064a565b820191906000526020600020905b81548152906001019060200180831161062d57829003601f168201915b5050505050905090565b600061065f8261144e565b50610669826114d6565b9050919050565b610682828261067d611513565b61151b565b5050565b6000600c549050600c60008154809291906106a090613296565b91905055506106af878261152d565b6106b9818761154b565b6001600e6000838152602001908152602001600020819055506000600d60008381526020019081526020016000208190555084600f60008381526020019081526020016000208190555083601060008381526020019081526020016000208190555082601160008381526020019081526020016000208190555081601260008381526020019081526020016000208190555050505050505050565b6000600880549050905090565b600073ffffffffffffffffffffffffffffffffffffffff168273ffffffffffffffffffffffffffffffffffffffff16036107d35760006040517f64a0ae920000000000000000000000000000000000000000000000000000000081526004016107ca9190612c34565b60405180910390fd5b60006107e783836107e2611513565b6115a7565b90508373ffffffffffffffffffffffffffffffffffffffff168173ffffffffffffffffffffffffffffffffffffffff161461085d578382826040517f64283d7b000000000000000000000000000000000000000000000000000000008152600401610854939291906132de565b60405180910390fd5b50505050565b3373ffffffffffffffffffffffffffffffffffffffff1661088384610f5f565b73ffffffffffffffffffffffffffffffffffffffff16146108d9576040517f08c379a00000000000000000000000000000000000000000000000000000000081526004016108d090613361565b60405180910390fd5b6000811161091c576040517f08c379a0000000000000000000000000000000000000000000000000000000008152600401610913906133cd565b60405180910390fd5b6000828051906020012090507f2fb995b264f4328a65dd3434462358ea85212b01275efbe3314f8b3ff042592d810361097e5781600f6000868152602001908152602001600020600082825461097291906133ed565b92505081905550610abe565b7f38c080e2f080733c009b17a60577cc056c6fe873d3b0562c5b2a7ac8ab39a64a81036109d457816010600086815260200190815260200160002060008282546109c891906133ed565b92505081905550610abd565b7f28888dd2f44e246e34c42016c84b90d5c47284912338748d8183bbe0084b157d8103610a2a5781601160008681526020019081526020016000206000828254610a1e91906133ed565b92505081905550610abc565b7f7640569a97876567a51304d4ecfba10ce772c00c69273b6430263e94f8cd3e798103610a805781601260008681526020019081526020016000206000828254610a7491906133ed565b92505081905550610abb565b6040517f08c379a0000000000000000000000000000000000000000000000000000000008152600401610ab29061346d565b60405180910390fd5b5b5b5b50505050565b6000610acf33610f71565b14610b0f576040517f08c379a0000000000000000000000000000000000000000000000000000000008152600401610b06906134d9565b60405180910390fd5b60006040518060a00160405280606f8152602001613a7c606f913990506000600c549050600c6000815480929190610b4690613296565b9190505550610b55338261152d565b610b5f818361154b565b6001600e6000838152602001908152602001600020819055506000600d6000838152602001908152602001600020819055505050565b6000816064610ba491906134f9565b9050919050565b6000610bb683610f71565b8210610bfb5782826040517fa57d13dc000000000000000000000000000000000000000000000000000000008152600401610bf292919061353b565b60405180910390fd5b600660008473ffffffffffffffffffffffffffffffffffffffff1673ffffffffffffffffffffffffffffffffffffffff168152602001908152602001600020600083815260200190815260200160002054905092915050565b610c6f838383604051806020016040528060008152506111a4565b505050565b610c87600082610c82611513565b6115a7565b5050565b6000610c95610754565b8210610cdb576000826040517fa57d13dc000000000000000000000000000000000000000000000000000000008152600401610cd292919061353b565b60405180910390fd5b60088281548110610cef57610cee613564565b5b90600052602060002001549050919050565b600073ffffffffffffffffffffffffffffffffffffffff16610d22836115bd565b73ffffffffffffffffffffffffffffffffffffffff1603610d78576040517f08c379a0000000000000000000000000000000000000000000000000000000008152600401610d6f906135df565b60405180910390fd5b3373ffffffffffffffffffffffffffffffffffffffff16610d9883610f5f565b73ffffffffffffffffffffffffffffffffffffffff1614610dee576040517f08c379a0000000000000000000000000000000000000000000000000000000008152600401610de590613361565b60405180910390fd5b80600d60008481526020019081526020016000206000828254610e1191906133ed565b925050819055505b610e35600e600084815260200190815260200160002054610b95565b600d60008481526020019081526020016000205410610f0e57610e6a600e600084815260200190815260200160002054610b95565b600d60008481526020019081526020016000206000828254610e8c91906135ff565b925050819055506001600e60008481526020019081526020016000206000828254610eb791906133ed565b92505081905550817f3b7ca85b5e3d1ebb3a81e8d9e27bfeb9ef2f447026c115421132a20b0733b73f600e600085815260200190815260200160002054604051610f019190612ea8565b60405180910390a2610e19565b817ffbe4d1b535a27c18c0f7e9e9e1892f6997d6752b3d98e2ffc5164b07c7a4c34582600d600086815260200190815260200160002054604051610f53929190613633565b60405180910390a25050565b6000610f6a8261144e565b9050919050565b60008073ffffffffffffffffffffffffffffffffffffffff168273ffffffffffffffffffffffffffffffffffffffff1603610fe45760006040517f89c62b64000000000000000000000000000000000000000000000000000000008152600401610fdb9190612c34565b60405180910390fd5b600360008373ffffffffffffffffffffffffffffffffffffffff1673ffffffffffffffffffffffffffffffffffffffff168152602001908152602001600020549050919050565b6110336115fa565b61103d6000611681565b565b60008073ffffffffffffffffffffffffffffffffffffffff16611061836115bd565b73ffffffffffffffffffffffffffffffffffffffff16036110b7576040517f08c379a00000000000000000000000000000000000000000000000000000000081526004016110ae906135df565b60405180910390fd5b600e6000838152602001908152602001600020549050919050565b6000600b60009054906101000a900473ffffffffffffffffffffffffffffffffffffffff16905090565b60606001805461110b90613236565b80601f016020809104026020016040519081016040528092919081815260200182805461113790613236565b80156111845780601f1061115957610100808354040283529160200191611184565b820191906000526020600020905b81548152906001019060200180831161116757829003601f168201915b5050505050905090565b6111a0611199611513565b8383611747565b5050565b6111af848484610761565b6111c36111ba611513565b858585856118b6565b50505050565b60606111d482611a67565b9050919050565b60008073ffffffffffffffffffffffffffffffffffffffff166111fd836115bd565b73ffffffffffffffffffffffffffffffffffffffff1603611253576040517f08c379a000000000000000000000000000000000000000000000000000000000815260040161124a906135df565b60405180910390fd5b600d6000838152602001908152602001600020549050919050565b600080600080600f60008681526020019081526020016000205493506010600086815260200190815260200160002054925060116000868152602001908152602001600020549150601260008681526020019081526020016000205490509193509193565b6000600560008473ffffffffffffffffffffffffffffffffffffffff1673ffffffffffffffffffffffffffffffffffffffff16815260200190815260200160002060008373ffffffffffffffffffffffffffffffffffffffff1673ffffffffffffffffffffffffffffffffffffffff16815260200190815260200160002060009054906101000a900460ff16905092915050565b61136f6115fa565b600073ffffffffffffffffffffffffffffffffffffffff168173ffffffffffffffffffffffffffffffffffffffff16036113e15760006040517f1e4fbdf70000000000000000000000000000000000000000000000000000000081526004016113d89190612c34565b60405180910390fd5b6113ea81611681565b50565b6000634906490660e01b7bffffffffffffffffffffffffffffffffffffffffffffffffffffffff1916827bffffffffffffffffffffffffffffffffffffffffffffffffffffffff19161480611447575061144682611b7a565b5b9050919050565b60008061145a836115bd565b9050600073ffffffffffffffffffffffffffffffffffffffff168173ffffffffffffffffffffffffffffffffffffffff16036114cd57826040517f7e2732890000000000000000000000000000000000000000000000000000000081526004016114c49190612ea8565b60405180910390fd5b80915050919050565b60006004600083815260200190815260200160002060009054906101000a900473ffffffffffffffffffffffffffffffffffffffff169050919050565b600033905090565b6115288383836001611bf4565b505050565b611547828260405180602001604052806000815250611db9565b5050565b80600a6000848152602001908152602001600020908161156b9190613808565b507ff8e1a15aba9398e019f0b49df1a4fde98ee17ae345cb5f6b5e2c27f5033e8ce78260405161159b9190612ea8565b60405180910390a15050565b60006115b4848484611ddd565b90509392505050565b60006002600083815260200190815260200160002060009054906101000a900473ffffffffffffffffffffffffffffffffffffffff169050919050565b611602611513565b73ffffffffffffffffffffffffffffffffffffffff166116206110d2565b73ffffffffffffffffffffffffffffffffffffffff161461167f57611643611513565b6040517f118cdaa70000000000000000000000000000000000000000000000000000000081526004016116769190612c34565b60405180910390fd5b565b6000600b60009054906101000a900473ffffffffffffffffffffffffffffffffffffffff16905081600b60006101000a81548173ffffffffffffffffffffffffffffffffffffffff021916908373ffffffffffffffffffffffffffffffffffffffff1602179055508173ffffffffffffffffffffffffffffffffffffffff168173ffffffffffffffffffffffffffffffffffffffff167f8be0079c531659141344cd1fd0a4f28419497f9722a3daafe3b4186f6b6457e060405160405180910390a35050565b600073ffffffffffffffffffffffffffffffffffffffff168273ffffffffffffffffffffffffffffffffffffffff16036117b857816040517f5b08ba180000000000000000000000000000000000000000000000000000000081526004016117af9190612c34565b60405180910390fd5b80600560008573ffffffffffffffffffffffffffffffffffffffff1673ffffffffffffffffffffffffffffffffffffffff16815260200190815260200160002060008473ffffffffffffffffffffffffffffffffffffffff1673ffffffffffffffffffffffffffffffffffffffff16815260200190815260200160002060006101000a81548160ff0219169083151502179055508173ffffffffffffffffffffffffffffffffffffffff168373ffffffffffffffffffffffffffffffffffffffff167f17307eab39ab6107e8899845ad3d59bd9653f200f220920489ca2b5937696c31836040516118a99190612ac3565b60405180910390a3505050565b60008373ffffffffffffffffffffffffffffffffffffffff163b1115611a60578273ffffffffffffffffffffffffffffffffffffffff1663150b7a02868685856040518563ffffffff1660e01b8152600401611915949392919061392f565b6020604051808303816000875af192505050801561195157506040513d601f19601f8201168201806040525081019061194e9190613990565b60015b6119d5573d8060008114611981576040519150601f19603f3d011682016040523d82523d6000602084013e611986565b606091505b5060008151036119cd57836040517f64a0ae920000000000000000000000000000000000000000000000000000000081526004016119c49190612c34565b60405180910390fd5b805181602001fd5b63150b7a0260e01b7bffffffffffffffffffffffffffffffffffffffffffffffffffffffff1916817bffffffffffffffffffffffffffffffffffffffffffffffffffffffff191614611a5e57836040517f64a0ae92000000000000000000000000000000000000000000000000000000008152600401611a559190612c34565b60405180910390fd5b505b5050505050565b6060611a728261144e565b506000600a60008481526020019081526020016000208054611a9390613236565b80601f0160208091040260200160405190810160405280929190818152602001828054611abf90613236565b8015611b0c5780601f10611ae157610100808354040283529160200191611b0c565b820191906000526020600020905b815481529060010190602001808311611aef57829003601f168201915b505050505090506000611b1d611efa565b90506000815103611b32578192505050611b75565b600082511115611b67578082604051602001611b4f9291906139f9565b60405160208183030381529060405292505050611b75565b611b7084611f11565b925050505b919050565b60007f780e9d63000000000000000000000000000000000000000000000000000000007bffffffffffffffffffffffffffffffffffffffffffffffffffffffff1916827bffffffffffffffffffffffffffffffffffffffffffffffffffffffff19161480611bed5750611bec82611f7a565b5b9050919050565b8080611c2d5750600073ffffffffffffffffffffffffffffffffffffffff168273ffffffffffffffffffffffffffffffffffffffff1614155b15611d61576000611c3d8461144e565b9050600073ffffffffffffffffffffffffffffffffffffffff168373ffffffffffffffffffffffffffffffffffffffff1614158015611ca857508273ffffffffffffffffffffffffffffffffffffffff168173ffffffffffffffffffffffffffffffffffffffff1614155b8015611cbb5750611cb981846112d3565b155b15611cfd57826040517fa9fbf51f000000000000000000000000000000000000000000000000000000008152600401611cf49190612c34565b60405180910390fd5b8115611d5f57838573ffffffffffffffffffffffffffffffffffffffff168273ffffffffffffffffffffffffffffffffffffffff167f8c5be1e5ebec7d5bd14f71427d1e84f3dd0314c0f7b2291e5b200ac8c7c3b92560405160405180910390a45b505b836004600085815260200190815260200160002060006101000a81548173ffffffffffffffffffffffffffffffffffffffff021916908373ffffffffffffffffffffffffffffffffffffffff16021790555050505050565b611dc3838361205c565b611dd8611dce611513565b60008585856118b6565b505050565b600080611deb858585612155565b9050600073ffffffffffffffffffffffffffffffffffffffff168173ffffffffffffffffffffffffffffffffffffffff1603611e2f57611e2a8461236f565b611e6e565b8473ffffffffffffffffffffffffffffffffffffffff168173ffffffffffffffffffffffffffffffffffffffff1614611e6d57611e6c81856123b8565b5b5b600073ffffffffffffffffffffffffffffffffffffffff168573ffffffffffffffffffffffffffffffffffffffff1603611eb057611eab846124a3565b611eef565b8473ffffffffffffffffffffffffffffffffffffffff168173ffffffffffffffffffffffffffffffffffffffff1614611eee57611eed8585612574565b5b5b809150509392505050565b606060405180602001604052806000815250905090565b6060611f1c8261144e565b506000611f27611efa565b90506000815111611f475760405180602001604052806000815250611f72565b80611f51846125ff565b604051602001611f629291906139f9565b6040516020818303038152906040525b915050919050565b60007f80ac58cd000000000000000000000000000000000000000000000000000000007bffffffffffffffffffffffffffffffffffffffffffffffffffffffff1916827bffffffffffffffffffffffffffffffffffffffffffffffffffffffff1916148061204557507f5b5e139f000000000000000000000000000000000000000000000000000000007bffffffffffffffffffffffffffffffffffffffffffffffffffffffff1916827bffffffffffffffffffffffffffffffffffffffffffffffffffffffff1916145b806120555750612054826126cd565b5b9050919050565b600073ffffffffffffffffffffffffffffffffffffffff168273ffffffffffffffffffffffffffffffffffffffff16036120ce5760006040517f64a0ae920000000000000000000000000000000000000000000000000000000081526004016120c59190612c34565b60405180910390fd5b60006120dc838360006115a7565b9050600073ffffffffffffffffffffffffffffffffffffffff168173ffffffffffffffffffffffffffffffffffffffff16146121505760006040517f73c6ac6e0000000000000000000000000000000000000000000000000000000081526004016121479190612c34565b60405180910390fd5b505050565b600080612161846115bd565b9050600073ffffffffffffffffffffffffffffffffffffffff168373ffffffffffffffffffffffffffffffffffffffff16146121a3576121a2818486612737565b5b600073ffffffffffffffffffffffffffffffffffffffff168173ffffffffffffffffffffffffffffffffffffffff1614612234576121e5600085600080611bf4565b6001600360008373ffffffffffffffffffffffffffffffffffffffff1673ffffffffffffffffffffffffffffffffffffffff168152602001908152602001600020600082825403925050819055505b600073ffffffffffffffffffffffffffffffffffffffff168573ffffffffffffffffffffffffffffffffffffffff16146122b7576001600360008773ffffffffffffffffffffffffffffffffffffffff1673ffffffffffffffffffffffffffffffffffffffff168152602001908152602001600020600082825401925050819055505b846002600086815260200190815260200160002060006101000a81548173ffffffffffffffffffffffffffffffffffffffff021916908373ffffffffffffffffffffffffffffffffffffffff160217905550838573ffffffffffffffffffffffffffffffffffffffff168273ffffffffffffffffffffffffffffffffffffffff167fddf252ad1be2c89b69c2b068fc378daa952ba7f163c4a11628f55a4df523b3ef60405160405180910390a4809150509392505050565b6008805490506009600083815260200190815260200160002081905550600881908060018154018082558091505060019003906000526020600020016000909190919091505550565b60006123c383610f71565b90506000600760008481526020019081526020016000205490506000600660008673ffffffffffffffffffffffffffffffffffffffff1673ffffffffffffffffffffffffffffffffffffffff168152602001908152602001600020905082821461246f5760008160008581526020019081526020016000205490508082600085815260200190815260200160002081905550826007600083815260200190815260200160002081905550505b6007600085815260200190815260200160002060009055806000848152602001908152602001600020600090555050505050565b600060016008805490506124b791906135ff565b90506000600960008481526020019081526020016000205490506000600883815481106124e7576124e6613564565b5b90600052602060002001549050806008838154811061250957612508613564565b5b90600052602060002001819055508160096000838152602001908152602001600020819055506009600085815260200190815260200160002060009055600880548061255857612557613a1d565b5b6001900381819060005260206000200160009055905550505050565b6000600161258184610f71565b61258b91906135ff565b905081600660008573ffffffffffffffffffffffffffffffffffffffff1673ffffffffffffffffffffffffffffffffffffffff168152602001908152602001600020600083815260200190815260200160002081905550806007600084815260200190815260200160002081905550505050565b60606000600161260e846127fb565b01905060008167ffffffffffffffff81111561262d5761262c612cc5565b5b6040519080825280601f01601f19166020018201604052801561265f5781602001600182028036833780820191505090505b509050600082602001820190505b6001156126c2578080600190039150507f3031323334353637383961626364656600000000000000000000000000000000600a86061a8153600a85816126b6576126b5613a4c565b5b0494506000850361266d575b819350505050919050565b60007f01ffc9a7000000000000000000000000000000000000000000000000000000007bffffffffffffffffffffffffffffffffffffffffffffffffffffffff1916827bffffffffffffffffffffffffffffffffffffffffffffffffffffffff1916149050919050565b61274283838361294e565b6127f657600073ffffffffffffffffffffffffffffffffffffffff168373ffffffffffffffffffffffffffffffffffffffff16036127b757806040517f7e2732890000000000000000000000000000000000000000000000000000000081526004016127ae9190612ea8565b60405180910390fd5b81816040517f177e802f0000000000000000000000000000000000000000000000000000000081526004016127ed92919061353b565b60405180910390fd5b505050565b600080600090507a184f03e93ff9f4daa797ed6e38ed64bf6a1f0100000000000000008310612859577a184f03e93ff9f4daa797ed6e38ed64bf6a1f010000000000000000838161284f5761284e613a4c565b5b0492506040810190505b6d04ee2d6d415b85acef81000000008310612896576d04ee2d6d415b85acef8100000000838161288c5761288b613a4c565b5b0492506020810190505b662386f26fc1000083106128c557662386f26fc1000083816128bb576128ba613a4c565b5b0492506010810190505b6305f5e10083106128ee576305f5e10083816128e4576128e3613a4c565b5b0492506008810190505b612710831061291357612710838161290957612908613a4c565b5b0492506004810190505b60648310612936576064838161292c5761292b613a4c565b5b0492506002810190505b600a8310612945576001810190505b80915050919050565b60008073ffffffffffffffffffffffffffffffffffffffff168373ffffffffffffffffffffffffffffffffffffffff1614158015612a0657508273ffffffffffffffffffffffffffffffffffffffff168473ffffffffffffffffffffffffffffffffffffffff1614806129c757506129c684846112d3565b5b80612a0557508273ffffffffffffffffffffffffffffffffffffffff166129ed836114d6565b73ffffffffffffffffffffffffffffffffffffffff16145b5b90509392505050565b6000604051905090565b600080fd5b600080fd5b60007fffffffff0000000000000000000000000000000000000000000000000000000082169050919050565b612a5881612a23565b8114612a6357600080fd5b50565b600081359050612a7581612a4f565b92915050565b600060208284031215612a9157612a90612a19565b5b6000612a9f84828501612a66565b91505092915050565b60008115159050919050565b612abd81612aa8565b82525050565b6000602082019050612ad86000830184612ab4565b92915050565b600081519050919050565b600082825260208201905092915050565b60005b83811015612b18578082015181840152602081019050612afd565b60008484015250505050565b6000601f19601f8301169050919050565b6000612b4082612ade565b612b4a8185612ae9565b9350612b5a818560208601612afa565b612b6381612b24565b840191505092915050565b60006020820190508181036000830152612b888184612b35565b905092915050565b6000819050919050565b612ba381612b90565b8114612bae57600080fd5b50565b600081359050612bc081612b9a565b92915050565b600060208284031215612bdc57612bdb612a19565b5b6000612bea84828501612bb1565b91505092915050565b600073ffffffffffffffffffffffffffffffffffffffff82169050919050565b6000612c1e82612bf3565b9050919050565b612c2e81612c13565b82525050565b6000602082019050612c496000830184612c25565b92915050565b612c5881612c13565b8114612c6357600080fd5b50565b600081359050612c7581612c4f565b92915050565b60008060408385031215612c9257612c91612a19565b5b6000612ca085828601612c66565b9250506020612cb185828601612bb1565b9150509250929050565b600080fd5b600080fd5b7f4e487b7100000000000000000000000000000000000000000000000000000000600052604160045260246000fd5b612cfd82612b24565b810181811067ffffffffffffffff82111715612d1c57612d1b612cc5565b5b80604052505050565b6000612d2f612a0f565b9050612d3b8282612cf4565b919050565b600067ffffffffffffffff821115612d5b57612d5a612cc5565b5b612d6482612b24565b9050602081019050919050565b82818337600083830152505050565b6000612d93612d8e84612d40565b612d25565b905082815260208101848484011115612daf57612dae612cc0565b5b612dba848285612d71565b509392505050565b600082601f830112612dd757612dd6612cbb565b5b8135612de7848260208601612d80565b91505092915050565b60008060008060008060c08789031215612e0d57612e0c612a19565b5b6000612e1b89828a01612c66565b965050602087013567ffffffffffffffff811115612e3c57612e3b612a1e565b5b612e4889828a01612dc2565b9550506040612e5989828a01612bb1565b9450506060612e6a89828a01612bb1565b9350506080612e7b89828a01612bb1565b92505060a0612e8c89828a01612bb1565b9150509295509295509295565b612ea281612b90565b82525050565b6000602082019050612ebd6000830184612e99565b92915050565b600080600060608486031215612edc57612edb612a19565b5b6000612eea86828701612c66565b9350506020612efb86828701612c66565b9250506040612f0c86828701612bb1565b9150509250925092565b600080600060608486031215612f2f57612f2e612a19565b5b6000612f3d86828701612bb1565b935050602084013567ffffffffffffffff811115612f5e57612f5d612a1e565b5b612f6a86828701612dc2565b9250506040612f7b86828701612bb1565b9150509250925092565b60008060408385031215612f9c57612f9b612a19565b5b6000612faa85828601612bb1565b9250506020612fbb85828601612bb1565b9150509250929050565b600060208284031215612fdb57612fda612a19565b5b6000612fe984828501612c66565b91505092915050565b612ffb81612aa8565b811461300657600080fd5b50565b60008135905061301881612ff2565b92915050565b6000806040838503121561303557613034612a19565b5b600061304385828601612c66565b925050602061305485828601613009565b9150509250929050565b600067ffffffffffffffff82111561307957613078612cc5565b5b61308282612b24565b9050602081019050919050565b60006130a261309d8461305e565b612d25565b9050828152602081018484840111156130be576130bd612cc0565b5b6130c9848285612d71565b509392505050565b600082601f8301126130e6576130e5612cbb565b5b81356130f684826020860161308f565b91505092915050565b6000806000806080858703121561311957613118612a19565b5b600061312787828801612c66565b945050602061313887828801612c66565b935050604061314987828801612bb1565b925050606085013567ffffffffffffffff81111561316a57613169612a1e565b5b613176878288016130d1565b91505092959194509250565b60006080820190506131976000830187612e99565b6131a46020830186612e99565b6131b16040830185612e99565b6131be6060830184612e99565b95945050505050565b600080604083850312156131de576131dd612a19565b5b60006131ec85828601612c66565b92505060206131fd85828601612c66565b9150509250929050565b7f4e487b7100000000000000000000000000000000000000000000000000000000600052602260045260246000fd5b6000600282049050600182168061324e57607f821691505b60208210810361326157613260613207565b5b50919050565b7f4e487b7100000000000000000000000000000000000000000000000000000000600052601160045260246000fd5b60006132a182612b90565b91507fffffffffffffffffffffffffffffffffffffffffffffffffffffffffffffffff82036132d3576132d2613267565b5b600182019050919050565b60006060820190506132f36000830186612c25565b6133006020830185612e99565b61330d6040830184612c25565b949350505050565b7f4e6f7420746865206f776e657200000000000000000000000000000000000000600082015250565b600061334b600d83612ae9565b915061335682613315565b602082019050919050565b6000602082019050818103600083015261337a8161333e565b9050919050565b7f416d6f756e74206d757374206265203e20300000000000000000000000000000600082015250565b60006133b7601283612ae9565b91506133c282613381565b602082019050919050565b600060208201905081810360008301526133e6816133aa565b9050919050565b60006133f882612b90565b915061340383612b90565b925082820190508082111561341b5761341a613267565b5b92915050565b7f496e76616c696420747261697400000000000000000000000000000000000000600082015250565b6000613457600d83612ae9565b915061346282613421565b602082019050919050565b600060208201905081810360008301526134868161344a565b9050919050565b7f596f7520616c7265616479206f776e2061206372656174757265000000000000600082015250565b60006134c3601a83612ae9565b91506134ce8261348d565b602082019050919050565b600060208201905081810360008301526134f2816134b6565b9050919050565b600061350482612b90565b915061350f83612b90565b925082820261351d81612b90565b9150828204841483151761353457613533613267565b5b5092915050565b60006040820190506135506000830185612c25565b61355d6020830184612e99565b9392505050565b7f4e487b7100000000000000000000000000000000000000000000000000000000600052603260045260246000fd5b7f4e6f6e6578697374656e7420746f6b656e000000000000000000000000000000600082015250565b60006135c9601183612ae9565b91506135d482613593565b602082019050919050565b600060208201905081810360008301526135f8816135bc565b9050919050565b600061360a82612b90565b915061361583612b90565b925082820390508181111561362d5761362c613267565b5b92915050565b60006040820190506136486000830185612e99565b6136556020830184612e99565b9392505050565b60008190508160005260206000209050919050565b60006020601f8301049050919050565b600082821b905092915050565b6000600883026136be7fffffffffffffffffffffffffffffffffffffffffffffffffffffffffffffffff82613681565b6136c88683613681565b95508019841693508086168417925050509392505050565b6000819050919050565b60006137056137006136fb84612b90565b6136e0565b612b90565b9050919050565b6000819050919050565b61371f836136ea565b61373361372b8261370c565b84845461368e565b825550505050565b600090565b61374861373b565b613753818484613716565b505050565b5b818110156137775761376c600082613740565b600181019050613759565b5050565b601f8211156137bc5761378d8161365c565b61379684613671565b810160208510156137a5578190505b6137b96137b185613671565b830182613758565b50505b505050565b600082821c905092915050565b60006137df600019846008026137c1565b1980831691505092915050565b60006137f883836137ce565b9150826002028217905092915050565b61381182612ade565b67ffffffffffffffff81111561382a57613829612cc5565b5b6138348254613236565b61383f82828561377b565b600060209050601f8311600181146138725760008415613860578287015190505b61386a85826137ec565b8655506138d2565b601f1984166138808661365c565b60005b828110156138a857848901518255600182019150602085019450602081019050613883565b868310156138c557848901516138c1601f8916826137ce565b8355505b6001600288020188555050505b505050505050565b600081519050919050565b600082825260208201905092915050565b6000613901826138da565b61390b81856138e5565b935061391b818560208601612afa565b61392481612b24565b840191505092915050565b60006080820190506139446000830187612c25565b6139516020830186612c25565b61395e6040830185612e99565b818103606083015261397081846138f6565b905095945050505050565b60008151905061398a81612a4f565b92915050565b6000602082840312156139a6576139a5612a19565b5b60006139b48482850161397b565b91505092915050565b600081905092915050565b60006139d382612ade565b6139dd81856139bd565b93506139ed818560208601612afa565b80840191505092915050565b6000613a0582856139c8565b9150613a1182846139c8565b91508190509392505050565b7f4e487b7100000000000000000000000000000000000000000000000000000000600052603160045260246000fd5b7f4e487b7100000000000000000000000000000000000000000000000000000000600052601260045260246000fdfe68747470733a2f2f6d6f63636173696e2d6269672d6261626f6f6e2d3131302e6d7970696e6174612e636c6f75642f697066732f6261666b72656963646a6e64716c6e6632637573656b6771617778376b697567376e7678633573627632766976347074373262336c6164786b676da2646970667358221220fa4a261bc56153f6a9201be5bbb91e632184ff535f313ade925b11ce59ba298f64736f6c634300081b0033",
  "linkReferences": {},
  "deployedLinkReferences": {}
}