{
  "_format": "hh-sol-artifact-1",
  "contractName": "CreatureNFT",
  "sourceName": "contracts/CreatureNFT.sol",
  "abi": [
    {
      "inputs": [],
      "stateMutability": "nonpayable",
      "type": "constructor"
    },
    {
      "inputs": [
        {
          "internalType": "address",
          "name": "sender",
          "type": "address"
        },
        {
          "internalType": "uint256",
          "name": "tokenId",
          "type": "uint256"
        },
        {
          "internalType": "address",
          "name": "owner",
          "type": "address"
        }
      ],
      "name": "ERC721IncorrectOwner",
      "type": "error"
    },
    {
      "inputs": [
        {
          "internalType": "address",
          "name": "operator",
          "type": "address"
        },
        {
          "internalType": "uint256",
          "name": "tokenId",
          "type": "uint256"
        }
      ],
      "name": "ERC721InsufficientApproval",
      "type": "error"
    },
    {
      "inputs": [
        {
          "internalType": "address",
          "name": "approver",
          "type": "address"
        }
      ],
      "name": "ERC721InvalidApprover",
      "type": "error"
    },
    {
      "inputs": [
        {
          "internalType": "address",
          "name": "operator",
          "type": "address"
        }
      ],
      "name": "ERC721InvalidOperator",
      "type": "error"
    },
    {
      "inputs": [
        {
          "internalType": "address",
          "name": "owner",
          "type": "address"
        }
      ],
      "name": "ERC721InvalidOwner",
      "type": "error"
    },
    {
      "inputs": [
        {
          "internalType": "address",
          "name": "receiver",
          "type": "address"
        }
      ],
      "name": "ERC721InvalidReceiver",
      "type": "error"
    },
    {
      "inputs": [
        {
          "internalType": "address",
          "name": "sender",
          "type": "address"
        }
      ],
      "name": "ERC721InvalidSender",
      "type": "error"
    },
    {
      "inputs": [
        {
          "internalType": "uint256",
          "name": "tokenId",
          "type": "uint256"
        }
      ],
      "name": "ERC721NonexistentToken",
      "type": "error"
    },
    {
      "inputs": [
        {
          "internalType": "address",
          "name": "owner",
          "type": "address"
        }
      ],
      "name": "OwnableInvalidOwner",
      "type": "error"
    },
    {
      "inputs": [
        {
          "internalType": "address",
          "name": "account",
          "type": "address"
        }
      ],
      "name": "OwnableUnauthorizedAccount",
      "type": "error"
    },
    {
      "anonymous": false,
      "inputs": [
        {
          "indexed": true,
          "internalType": "address",
          "name": "owner",
          "type": "address"
        },
        {
          "indexed": true,
          "internalType": "address",
          "name": "approved",
          "type": "address"
        },
        {
          "indexed": true,
          "internalType": "uint256",
          "name": "tokenId",
          "type": "uint256"
        }
      ],
      "name": "Approval",
      "type": "event"
    },
    {
      "anonymous": false,
      "inputs": [
        {
          "indexed": true,
          "internalType": "address",
          "name": "owner",
          "type": "address"
        },
        {
          "indexed": true,
          "internalType": "address",
          "name": "operator",
          "type": "address"
        },
        {
          "indexed": false,
          "internalType": "bool",
          "name": "approved",
          "type": "bool"
        }
      ],
      "name": "ApprovalForAll",
      "type": "event"
    },
    {
      "anonymous": false,
      "inputs": [
        {
          "indexed": false,
          "internalType": "uint256",
          "name": "_fromTokenId",
          "type": "uint256"
        },
        {
          "indexed": false,
          "internalType": "uint256",
          "name": "_toTokenId",
          "type": "uint256"
        }
      ],
      "name": "BatchMetadataUpdate",
      "type": "event"
    },
    {
      "anonymous": false,
      "inputs": [
        {
          "indexed": false,
          "internalType": "uint256",
          "name": "_tokenId",
          "type": "uint256"
        }
      ],
      "name": "MetadataUpdate",
      "type": "event"
    },
    {
      "anonymous": false,
      "inputs": [
        {
          "indexed": true,
          "internalType": "address",
          "name": "previousOwner",
          "type": "address"
        },
        {
          "indexed": true,
          "internalType": "address",
          "name": "newOwner",
          "type": "address"
        }
      ],
      "name": "OwnershipTransferred",
      "type": "event"
    },
    {
      "anonymous": false,
      "inputs": [
        {
          "indexed": true,
          "internalType": "address",
          "name": "from",
          "type": "address"
        },
        {
          "indexed": true,
          "internalType": "address",
          "name": "to",
          "type": "address"
        },
        {
          "indexed": true,
          "internalType": "uint256",
          "name": "tokenId",
          "type": "uint256"
        }
      ],
      "name": "Transfer",
      "type": "event"
    },
    {
      "inputs": [
        {
          "internalType": "address",
          "name": "to",
          "type": "address"
        },
        {
          "internalType": "uint256",
          "name": "tokenId",
          "type": "uint256"
        }
      ],
      "name": "approve",
      "outputs": [],
      "stateMutability": "nonpayable",
      "type": "function"
    },
    {
      "inputs": [
        {
          "internalType": "address",
          "name": "owner",
          "type": "address"
        }
      ],
      "name": "balanceOf",
      "outputs": [
        {
          "internalType": "uint256",
          "name": "",
          "type": "uint256"
        }
      ],
      "stateMutability": "view",
      "type": "function"
    },
    {
      "inputs": [
        {
          "internalType": "uint256",
          "name": "tokenId",
          "type": "uint256"
        }
      ],
      "name": "getApproved",
      "outputs": [
        {
          "internalType": "address",
          "name": "",
          "type": "address"
        }
      ],
      "stateMutability": "view",
      "type": "function"
    },
    {
      "inputs": [
        {
          "internalType": "address",
          "name": "owner",
          "type": "address"
        },
        {
          "internalType": "address",
          "name": "operator",
          "type": "address"
        }
      ],
      "name": "isApprovedForAll",
      "outputs": [
        {
          "internalType": "bool",
          "name": "",
          "type": "bool"
        }
      ],
      "stateMutability": "view",
      "type": "function"
    },
    {
      "inputs": [
        {
          "internalType": "address",
          "name": "to",
          "type": "address"
        },
        {
          "internalType": "string",
          "name": "tokenURI",
          "type": "string"
        }
      ],
      "name": "mintCreature",
      "outputs": [],
      "stateMutability": "nonpayable",
      "type": "function"
    },
    {
      "inputs": [],
      "name": "name",
      "outputs": [
        {
          "internalType": "string",
          "name": "",
          "type": "string"
        }
      ],
      "stateMutability": "view",
      "type": "function"
    },
    {
      "inputs": [],
      "name": "owner",
      "outputs": [
        {
          "internalType": "address",
          "name": "",
          "type": "address"
        }
      ],
      "stateMutability": "view",
      "type": "function"
    },
    {
      "inputs": [
        {
          "internalType": "uint256",
          "name": "tokenId",
          "type": "uint256"
        }
      ],
      "name": "ownerOf",
      "outputs": [
        {
          "internalType": "address",
          "name": "",
          "type": "address"
        }
      ],
      "stateMutability": "view",
      "type": "function"
    },
    {
      "inputs": [],
      "name": "renounceOwnership",
      "outputs": [],
      "stateMutability": "nonpayable",
      "type": "function"
    },
    {
      "inputs": [
        {
          "internalType": "address",
          "name": "from",
          "type": "address"
        },
        {
          "internalType": "address",
          "name": "to",
          "type": "address"
        },
        {
          "internalType": "uint256",
          "name": "tokenId",
          "type": "uint256"
        }
      ],
      "name": "safeTransferFrom",
      "outputs": [],
      "stateMutability": "nonpayable",
      "type": "function"
    },
    {
      "inputs": [
        {
          "internalType": "address",
          "name": "from",
          "type": "address"
        },
        {
          "internalType": "address",
          "name": "to",
          "type": "address"
        },
        {
          "internalType": "uint256",
          "name": "tokenId",
          "type": "uint256"
        },
        {
          "internalType": "bytes",
          "name": "data",
          "type": "bytes"
        }
      ],
      "name": "safeTransferFrom",
      "outputs": [],
      "stateMutability": "nonpayable",
      "type": "function"
    },
    {
      "inputs": [
        {
          "internalType": "address",
          "name": "operator",
          "type": "address"
        },
        {
          "internalType": "bool",
          "name": "approved",
          "type": "bool"
        }
      ],
      "name": "setApprovalForAll",
      "outputs": [],
      "stateMutability": "nonpayable",
      "type": "function"
    },
    {
      "inputs": [
        {
          "internalType": "bytes4",
          "name": "interfaceId",
          "type": "bytes4"
        }
      ],
      "name": "supportsInterface",
      "outputs": [
        {
          "internalType": "bool",
          "name": "",
          "type": "bool"
        }
      ],
      "stateMutability": "view",
      "type": "function"
    },
    {
      "inputs": [],
      "name": "symbol",
      "outputs": [
        {
          "internalType": "string",
          "name": "",
          "type": "string"
        }
      ],
      "stateMutability": "view",
      "type": "function"
    },
    {
      "inputs": [
        {
          "internalType": "uint256",
          "name": "tokenId",
          "type": "uint256"
        }
      ],
      "name": "tokenURI",
      "outputs": [
        {
          "internalType": "string",
          "name": "",
          "type": "string"
        }
      ],
      "stateMutability": "view",
      "type": "function"
    },
    {
      "inputs": [
        {
          "internalType": "address",
          "name": "from",
          "type": "address"
        },
        {
          "internalType": "address",
          "name": "to",
          "type": "address"
        },
        {
          "internalType": "uint256",
          "name": "tokenId",
          "type": "uint256"
        }
      ],
      "name": "transferFrom",
      "outputs": [],
      "stateMutability": "nonpayable",
      "type": "function"
    },
    {
      "inputs": [
        {
          "internalType": "address",
          "name": "newOwner",
          "type": "address"
        }
      ],
      "name": "transferOwnership",
      "outputs": [],
      "stateMutability": "nonpayable",
      "type": "function"
    }
  ],
  "bytecode": "0x60806040523480156200001157600080fd5b50336040518060400160405280600b81526020017f43726561747572654e46540000000000000000000000000000000000000000008152506040518060400160405280600481526020017f4352545200000000000000000000000000000000000000000000000000000000815250816000908162000090919062000472565b508060019081620000a2919062000472565b505050600073ffffffffffffffffffffffffffffffffffffffff168173ffffffffffffffffffffffffffffffffffffffff16036200011a5760006040517f1e4fbdf70000000000000000000000000000000000000000000000000000000081526004016200011191906200059e565b60405180910390fd5b6200012b816200013260201b60201c565b50620005bb565b6000600760009054906101000a900473ffffffffffffffffffffffffffffffffffffffff16905081600760006101000a81548173ffffffffffffffffffffffffffffffffffffffff021916908373ffffffffffffffffffffffffffffffffffffffff1602179055508173ffffffffffffffffffffffffffffffffffffffff168173ffffffffffffffffffffffffffffffffffffffff167f8be0079c531659141344cd1fd0a4f28419497f9722a3daafe3b4186f6b6457e060405160405180910390a35050565b600081519050919050565b7f4e487b7100000000000000000000000000000000000000000000000000000000600052604160045260246000fd5b7f4e487b7100000000000000000000000000000000000000000000000000000000600052602260045260246000fd5b600060028204905060018216806200027a57607f821691505b60208210810362000290576200028f62000232565b5b50919050565b60008190508160005260206000209050919050565b60006020601f8301049050919050565b600082821b905092915050565b600060088302620002fa7fffffffffffffffffffffffffffffffffffffffffffffffffffffffffffffffff82620002bb565b620003068683620002bb565b95508019841693508086168417925050509392505050565b6000819050919050565b6000819050919050565b6000620003536200034d62000347846200031e565b62000328565b6200031e565b9050919050565b6000819050919050565b6200036f8362000332565b620003876200037e826200035a565b848454620002c8565b825550505050565b600090565b6200039e6200038f565b620003ab81848462000364565b505050565b5b81811015620003d357620003c760008262000394565b600181019050620003b1565b5050565b601f8211156200042257620003ec8162000296565b620003f784620002ab565b8101602085101562000407578190505b6200041f6200041685620002ab565b830182620003b0565b50505b505050565b600082821c905092915050565b6000620004476000198460080262000427565b1980831691505092915050565b600062000462838362000434565b9150826002028217905092915050565b6200047d82620001f8565b67ffffffffffffffff81111562000499576200049862000203565b5b620004a5825462000261565b620004b2828285620003d7565b600060209050601f831160018114620004ea5760008415620004d5578287015190505b620004e1858262000454565b86555062000551565b601f198416620004fa8662000296565b60005b828110156200052457848901518255600182019150602085019450602081019050620004fd565b8683101562000544578489015162000540601f89168262000434565b8355505b6001600288020188555050505b505050505050565b600073ffffffffffffffffffffffffffffffffffffffff82169050919050565b6000620005868262000559565b9050919050565b620005988162000579565b82525050565b6000602082019050620005b560008301846200058d565b92915050565b61266880620005cb6000396000f3fe608060405234801561001057600080fd5b506004361061010b5760003560e01c806370a08231116100a2578063a22cb46511610071578063a22cb465146102a4578063b88d4fde146102c0578063c87b56dd146102dc578063e985e9c51461030c578063f2fde38b1461033c5761010b565b806370a082311461022e578063715018a61461025e5780638da5cb5b1461026857806395d89b41146102865761010b565b806323b872dd116100de57806323b872dd146101aa57806342842e0e146101c65780634a54d544146101e25780636352211e146101fe5761010b565b806301ffc9a71461011057806306fdde0314610140578063081812fc1461015e578063095ea7b31461018e575b600080fd5b61012a60048036038101906101259190611ac0565b610358565b6040516101379190611b08565b60405180910390f35b6101486103b9565b6040516101559190611bb3565b60405180910390f35b61017860048036038101906101739190611c0b565b61044b565b6040516101859190611c79565b60405180910390f35b6101a860048036038101906101a39190611cc0565b610467565b005b6101c460048036038101906101bf9190611d00565b61047d565b005b6101e060048036038101906101db9190611d00565b61057f565b005b6101fc60048036038101906101f79190611e88565b61059f565b005b61021860048036038101906102139190611c0b565b6105df565b6040516102259190611c79565b60405180910390f35b61024860048036038101906102439190611ee4565b6105f1565b6040516102559190611f20565b60405180910390f35b6102666106ab565b005b6102706106bf565b60405161027d9190611c79565b60405180910390f35b61028e6106e9565b60405161029b9190611bb3565b60405180910390f35b6102be60048036038101906102b99190611f67565b61077b565b005b6102da60048036038101906102d59190612048565b610791565b005b6102f660048036038101906102f19190611c0b565b6107b6565b6040516103039190611bb3565b60405180910390f35b610326600480360381019061032191906120cb565b6108c9565b6040516103339190611b08565b60405180910390f35b61035660048036038101906103519190611ee4565b61095d565b005b6000634906490660e01b7bffffffffffffffffffffffffffffffffffffffffffffffffffffffff1916827bffffffffffffffffffffffffffffffffffffffffffffffffffffffff191614806103b257506103b1826109e3565b5b9050919050565b6060600080546103c89061213a565b80601f01602080910402602001604051908101604052809291908181526020018280546103f49061213a565b80156104415780601f1061041657610100808354040283529160200191610441565b820191906000526020600020905b81548152906001019060200180831161042457829003601f168201915b5050505050905090565b600061045682610ac5565b5061046082610b4d565b9050919050565b6104798282610474610b8a565b610b92565b5050565b600073ffffffffffffffffffffffffffffffffffffffff168273ffffffffffffffffffffffffffffffffffffffff16036104ef5760006040517f64a0ae920000000000000000000000000000000000000000000000000000000081526004016104e69190611c79565b60405180910390fd5b600061050383836104fe610b8a565b610ba4565b90508373ffffffffffffffffffffffffffffffffffffffff168173ffffffffffffffffffffffffffffffffffffffff1614610579578382826040517f64283d7b0000000000000000000000000000000000000000000000000000000081526004016105709392919061216b565b60405180910390fd5b50505050565b61059a83838360405180602001604052806000815250610791565b505050565b6105a7610dbe565b60006008549050600860008154809291906105c1906121d1565b91905055506105d08382610e45565b6105da8183610e63565b505050565b60006105ea82610ac5565b9050919050565b60008073ffffffffffffffffffffffffffffffffffffffff168273ffffffffffffffffffffffffffffffffffffffff16036106645760006040517f89c62b6400000000000000000000000000000000000000000000000000000000815260040161065b9190611c79565b60405180910390fd5b600360008373ffffffffffffffffffffffffffffffffffffffff1673ffffffffffffffffffffffffffffffffffffffff168152602001908152602001600020549050919050565b6106b3610dbe565b6106bd6000610ebf565b565b6000600760009054906101000a900473ffffffffffffffffffffffffffffffffffffffff16905090565b6060600180546106f89061213a565b80601f01602080910402602001604051908101604052809291908181526020018280546107249061213a565b80156107715780601f1061074657610100808354040283529160200191610771565b820191906000526020600020905b81548152906001019060200180831161075457829003601f168201915b5050505050905090565b61078d610786610b8a565b8383610f85565b5050565b61079c84848461047d565b6107b06107a7610b8a565b858585856110f4565b50505050565b60606107c182610ac5565b5060006006600084815260200190815260200160002080546107e29061213a565b80601f016020809104026020016040519081016040528092919081815260200182805461080e9061213a565b801561085b5780601f106108305761010080835404028352916020019161085b565b820191906000526020600020905b81548152906001019060200180831161083e57829003601f168201915b50505050509050600061086c6112a5565b905060008151036108815781925050506108c4565b6000825111156108b657808260405160200161089e929190612255565b604051602081830303815290604052925050506108c4565b6108bf846112bc565b925050505b919050565b6000600560008473ffffffffffffffffffffffffffffffffffffffff1673ffffffffffffffffffffffffffffffffffffffff16815260200190815260200160002060008373ffffffffffffffffffffffffffffffffffffffff1673ffffffffffffffffffffffffffffffffffffffff16815260200190815260200160002060009054906101000a900460ff16905092915050565b610965610dbe565b600073ffffffffffffffffffffffffffffffffffffffff168173ffffffffffffffffffffffffffffffffffffffff16036109d75760006040517f1e4fbdf70000000000000000000000000000000000000000000000000000000081526004016109ce9190611c79565b60405180910390fd5b6109e081610ebf565b50565b60007f80ac58cd000000000000000000000000000000000000000000000000000000007bffffffffffffffffffffffffffffffffffffffffffffffffffffffff1916827bffffffffffffffffffffffffffffffffffffffffffffffffffffffff19161480610aae57507f5b5e139f000000000000000000000000000000000000000000000000000000007bffffffffffffffffffffffffffffffffffffffffffffffffffffffff1916827bffffffffffffffffffffffffffffffffffffffffffffffffffffffff1916145b80610abe5750610abd82611325565b5b9050919050565b600080610ad18361138f565b9050600073ffffffffffffffffffffffffffffffffffffffff168173ffffffffffffffffffffffffffffffffffffffff1603610b4457826040517f7e273289000000000000000000000000000000000000000000000000000000008152600401610b3b9190611f20565b60405180910390fd5b80915050919050565b60006004600083815260200190815260200160002060009054906101000a900473ffffffffffffffffffffffffffffffffffffffff169050919050565b600033905090565b610b9f83838360016113cc565b505050565b600080610bb08461138f565b9050600073ffffffffffffffffffffffffffffffffffffffff168373ffffffffffffffffffffffffffffffffffffffff1614610bf257610bf1818486611591565b5b600073ffffffffffffffffffffffffffffffffffffffff168173ffffffffffffffffffffffffffffffffffffffff1614610c8357610c346000856000806113cc565b6001600360008373ffffffffffffffffffffffffffffffffffffffff1673ffffffffffffffffffffffffffffffffffffffff168152602001908152602001600020600082825403925050819055505b600073ffffffffffffffffffffffffffffffffffffffff168573ffffffffffffffffffffffffffffffffffffffff1614610d06576001600360008773ffffffffffffffffffffffffffffffffffffffff1673ffffffffffffffffffffffffffffffffffffffff168152602001908152602001600020600082825401925050819055505b846002600086815260200190815260200160002060006101000a81548173ffffffffffffffffffffffffffffffffffffffff021916908373ffffffffffffffffffffffffffffffffffffffff160217905550838573ffffffffffffffffffffffffffffffffffffffff168273ffffffffffffffffffffffffffffffffffffffff167fddf252ad1be2c89b69c2b068fc378daa952ba7f163c4a11628f55a4df523b3ef60405160405180910390a4809150509392505050565b610dc6610b8a565b73ffffffffffffffffffffffffffffffffffffffff16610de46106bf565b73ffffffffffffffffffffffffffffffffffffffff1614610e4357610e07610b8a565b6040517f118cdaa7000000000000000000000000000000000000000000000000000000008152600401610e3a9190611c79565b60405180910390fd5b565b610e5f828260405180602001604052806000815250611655565b5050565b80600660008481526020019081526020016000209081610e839190612425565b507ff8e1a15aba9398e019f0b49df1a4fde98ee17ae345cb5f6b5e2c27f5033e8ce782604051610eb39190611f20565b60405180910390a15050565b6000600760009054906101000a900473ffffffffffffffffffffffffffffffffffffffff16905081600760006101000a81548173ffffffffffffffffffffffffffffffffffffffff021916908373ffffffffffffffffffffffffffffffffffffffff1602179055508173ffffffffffffffffffffffffffffffffffffffff168173ffffffffffffffffffffffffffffffffffffffff167f8be0079c531659141344cd1fd0a4f28419497f9722a3daafe3b4186f6b6457e060405160405180910390a35050565b600073ffffffffffffffffffffffffffffffffffffffff168273ffffffffffffffffffffffffffffffffffffffff1603610ff657816040517f5b08ba18000000000000000000000000000000000000000000000000000000008152600401610fed9190611c79565b60405180910390fd5b80600560008573ffffffffffffffffffffffffffffffffffffffff1673ffffffffffffffffffffffffffffffffffffffff16815260200190815260200160002060008473ffffffffffffffffffffffffffffffffffffffff1673ffffffffffffffffffffffffffffffffffffffff16815260200190815260200160002060006101000a81548160ff0219169083151502179055508173ffffffffffffffffffffffffffffffffffffffff168373ffffffffffffffffffffffffffffffffffffffff167f17307eab39ab6107e8899845ad3d59bd9653f200f220920489ca2b5937696c31836040516110e79190611b08565b60405180910390a3505050565b60008373ffffffffffffffffffffffffffffffffffffffff163b111561129e578273ffffffffffffffffffffffffffffffffffffffff1663150b7a02868685856040518563ffffffff1660e01b8152600401611153949392919061254c565b6020604051808303816000875af192505050801561118f57506040513d601f19601f8201168201806040525081019061118c91906125ad565b60015b611213573d80600081146111bf576040519150601f19603f3d011682016040523d82523d6000602084013e6111c4565b606091505b50600081510361120b57836040517f64a0ae920000000000000000000000000000000000000000000000000000000081526004016112029190611c79565b60405180910390fd5b805181602001fd5b63150b7a0260e01b7bffffffffffffffffffffffffffffffffffffffffffffffffffffffff1916817bffffffffffffffffffffffffffffffffffffffffffffffffffffffff19161461129c57836040517f64a0ae920000000000000000000000000000000000000000000000000000000081526004016112939190611c79565b60405180910390fd5b505b5050505050565b606060405180602001604052806000815250905090565b60606112c782610ac5565b5060006112d26112a5565b905060008151116112f2576040518060200160405280600081525061131d565b806112fc84611679565b60405160200161130d929190612255565b6040516020818303038152906040525b915050919050565b60007f01ffc9a7000000000000000000000000000000000000000000000000000000007bffffffffffffffffffffffffffffffffffffffffffffffffffffffff1916827bffffffffffffffffffffffffffffffffffffffffffffffffffffffff1916149050919050565b60006002600083815260200190815260200160002060009054906101000a900473ffffffffffffffffffffffffffffffffffffffff169050919050565b80806114055750600073ffffffffffffffffffffffffffffffffffffffff168273ffffffffffffffffffffffffffffffffffffffff1614155b1561153957600061141584610ac5565b9050600073ffffffffffffffffffffffffffffffffffffffff168373ffffffffffffffffffffffffffffffffffffffff161415801561148057508273ffffffffffffffffffffffffffffffffffffffff168173ffffffffffffffffffffffffffffffffffffffff1614155b8015611493575061149181846108c9565b155b156114d557826040517fa9fbf51f0000000000000000000000000000000000000000000000000000000081526004016114cc9190611c79565b60405180910390fd5b811561153757838573ffffffffffffffffffffffffffffffffffffffff168273ffffffffffffffffffffffffffffffffffffffff167f8c5be1e5ebec7d5bd14f71427d1e84f3dd0314c0f7b2291e5b200ac8c7c3b92560405160405180910390a45b505b836004600085815260200190815260200160002060006101000a81548173ffffffffffffffffffffffffffffffffffffffff021916908373ffffffffffffffffffffffffffffffffffffffff16021790555050505050565b61159c838383611747565b61165057600073ffffffffffffffffffffffffffffffffffffffff168373ffffffffffffffffffffffffffffffffffffffff160361161157806040517f7e2732890000000000000000000000000000000000000000000000000000000081526004016116089190611f20565b60405180910390fd5b81816040517f177e802f0000000000000000000000000000000000000000000000000000000081526004016116479291906125da565b60405180910390fd5b505050565b61165f8383611808565b61167461166a610b8a565b60008585856110f4565b505050565b60606000600161168884611901565b01905060008167ffffffffffffffff8111156116a7576116a6611d5d565b5b6040519080825280601f01601f1916602001820160405280156116d95781602001600182028036833780820191505090505b509050600082602001820190505b60011561173c578080600190039150507f3031323334353637383961626364656600000000000000000000000000000000600a86061a8153600a85816117305761172f612603565b5b049450600085036116e7575b819350505050919050565b60008073ffffffffffffffffffffffffffffffffffffffff168373ffffffffffffffffffffffffffffffffffffffff16141580156117ff57508273ffffffffffffffffffffffffffffffffffffffff168473ffffffffffffffffffffffffffffffffffffffff1614806117c057506117bf84846108c9565b5b806117fe57508273ffffffffffffffffffffffffffffffffffffffff166117e683610b4d565b73ffffffffffffffffffffffffffffffffffffffff16145b5b90509392505050565b600073ffffffffffffffffffffffffffffffffffffffff168273ffffffffffffffffffffffffffffffffffffffff160361187a5760006040517f64a0ae920000000000000000000000000000000000000000000000000000000081526004016118719190611c79565b60405180910390fd5b600061188883836000610ba4565b9050600073ffffffffffffffffffffffffffffffffffffffff168173ffffffffffffffffffffffffffffffffffffffff16146118fc5760006040517f73c6ac6e0000000000000000000000000000000000000000000000000000000081526004016118f39190611c79565b60405180910390fd5b505050565b600080600090507a184f03e93ff9f4daa797ed6e38ed64bf6a1f010000000000000000831061195f577a184f03e93ff9f4daa797ed6e38ed64bf6a1f010000000000000000838161195557611954612603565b5b0492506040810190505b6d04ee2d6d415b85acef8100000000831061199c576d04ee2d6d415b85acef8100000000838161199257611991612603565b5b0492506020810190505b662386f26fc1000083106119cb57662386f26fc1000083816119c1576119c0612603565b5b0492506010810190505b6305f5e10083106119f4576305f5e10083816119ea576119e9612603565b5b0492506008810190505b6127108310611a19576127108381611a0f57611a0e612603565b5b0492506004810190505b60648310611a3c5760648381611a3257611a31612603565b5b0492506002810190505b600a8310611a4b576001810190505b80915050919050565b6000604051905090565b600080fd5b600080fd5b60007fffffffff0000000000000000000000000000000000000000000000000000000082169050919050565b611a9d81611a68565b8114611aa857600080fd5b50565b600081359050611aba81611a94565b92915050565b600060208284031215611ad657611ad5611a5e565b5b6000611ae484828501611aab565b91505092915050565b60008115159050919050565b611b0281611aed565b82525050565b6000602082019050611b1d6000830184611af9565b92915050565b600081519050919050565b600082825260208201905092915050565b60005b83811015611b5d578082015181840152602081019050611b42565b60008484015250505050565b6000601f19601f8301169050919050565b6000611b8582611b23565b611b8f8185611b2e565b9350611b9f818560208601611b3f565b611ba881611b69565b840191505092915050565b60006020820190508181036000830152611bcd8184611b7a565b905092915050565b6000819050919050565b611be881611bd5565b8114611bf357600080fd5b50565b600081359050611c0581611bdf565b92915050565b600060208284031215611c2157611c20611a5e565b5b6000611c2f84828501611bf6565b91505092915050565b600073ffffffffffffffffffffffffffffffffffffffff82169050919050565b6000611c6382611c38565b9050919050565b611c7381611c58565b82525050565b6000602082019050611c8e6000830184611c6a565b92915050565b611c9d81611c58565b8114611ca857600080fd5b50565b600081359050611cba81611c94565b92915050565b60008060408385031215611cd757611cd6611a5e565b5b6000611ce585828601611cab565b9250506020611cf685828601611bf6565b9150509250929050565b600080600060608486031215611d1957611d18611a5e565b5b6000611d2786828701611cab565b9350506020611d3886828701611cab565b9250506040611d4986828701611bf6565b9150509250925092565b600080fd5b600080fd5b7f4e487b7100000000000000000000000000000000000000000000000000000000600052604160045260246000fd5b611d9582611b69565b810181811067ffffffffffffffff82111715611db457611db3611d5d565b5b80604052505050565b6000611dc7611a54565b9050611dd38282611d8c565b919050565b600067ffffffffffffffff821115611df357611df2611d5d565b5b611dfc82611b69565b9050602081019050919050565b82818337600083830152505050565b6000611e2b611e2684611dd8565b611dbd565b905082815260208101848484011115611e4757611e46611d58565b5b611e52848285611e09565b509392505050565b600082601f830112611e6f57611e6e611d53565b5b8135611e7f848260208601611e18565b91505092915050565b60008060408385031215611e9f57611e9e611a5e565b5b6000611ead85828601611cab565b925050602083013567ffffffffffffffff811115611ece57611ecd611a63565b5b611eda85828601611e5a565b9150509250929050565b600060208284031215611efa57611ef9611a5e565b5b6000611f0884828501611cab565b91505092915050565b611f1a81611bd5565b82525050565b6000602082019050611f356000830184611f11565b92915050565b611f4481611aed565b8114611f4f57600080fd5b50565b600081359050611f6181611f3b565b92915050565b60008060408385031215611f7e57611f7d611a5e565b5b6000611f8c85828601611cab565b9250506020611f9d85828601611f52565b9150509250929050565b600067ffffffffffffffff821115611fc257611fc1611d5d565b5b611fcb82611b69565b9050602081019050919050565b6000611feb611fe684611fa7565b611dbd565b90508281526020810184848401111561200757612006611d58565b5b612012848285611e09565b509392505050565b600082601f83011261202f5761202e611d53565b5b813561203f848260208601611fd8565b91505092915050565b6000806000806080858703121561206257612061611a5e565b5b600061207087828801611cab565b945050602061208187828801611cab565b935050604061209287828801611bf6565b925050606085013567ffffffffffffffff8111156120b3576120b2611a63565b5b6120bf8782880161201a565b91505092959194509250565b600080604083850312156120e2576120e1611a5e565b5b60006120f085828601611cab565b925050602061210185828601611cab565b9150509250929050565b7f4e487b7100000000000000000000000000000000000000000000000000000000600052602260045260246000fd5b6000600282049050600182168061215257607f821691505b6020821081036121655761216461210b565b5b50919050565b60006060820190506121806000830186611c6a565b61218d6020830185611f11565b61219a6040830184611c6a565b949350505050565b7f4e487b7100000000000000000000000000000000000000000000000000000000600052601160045260246000fd5b60006121dc82611bd5565b91507fffffffffffffffffffffffffffffffffffffffffffffffffffffffffffffffff820361220e5761220d6121a2565b5b600182019050919050565b600081905092915050565b600061222f82611b23565b6122398185612219565b9350612249818560208601611b3f565b80840191505092915050565b60006122618285612224565b915061226d8284612224565b91508190509392505050565b60008190508160005260206000209050919050565b60006020601f8301049050919050565b600082821b905092915050565b6000600883026122db7fffffffffffffffffffffffffffffffffffffffffffffffffffffffffffffffff8261229e565b6122e5868361229e565b95508019841693508086168417925050509392505050565b6000819050919050565b600061232261231d61231884611bd5565b6122fd565b611bd5565b9050919050565b6000819050919050565b61233c83612307565b61235061234882612329565b8484546122ab565b825550505050565b600090565b612365612358565b612370818484612333565b505050565b5b818110156123945761238960008261235d565b600181019050612376565b5050565b601f8211156123d9576123aa81612279565b6123b38461228e565b810160208510156123c2578190505b6123d66123ce8561228e565b830182612375565b50505b505050565b600082821c905092915050565b60006123fc600019846008026123de565b1980831691505092915050565b600061241583836123eb565b9150826002028217905092915050565b61242e82611b23565b67ffffffffffffffff81111561244757612446611d5d565b5b612451825461213a565b61245c828285612398565b600060209050601f83116001811461248f576000841561247d578287015190505b6124878582612409565b8655506124ef565b601f19841661249d86612279565b60005b828110156124c5578489015182556001820191506020850194506020810190506124a0565b868310156124e257848901516124de601f8916826123eb565b8355505b6001600288020188555050505b505050505050565b600081519050919050565b600082825260208201905092915050565b600061251e826124f7565b6125288185612502565b9350612538818560208601611b3f565b61254181611b69565b840191505092915050565b60006080820190506125616000830187611c6a565b61256e6020830186611c6a565b61257b6040830185611f11565b818103606083015261258d8184612513565b905095945050505050565b6000815190506125a781611a94565b92915050565b6000602082840312156125c3576125c2611a5e565b5b60006125d184828501612598565b91505092915050565b60006040820190506125ef6000830185611c6a565b6125fc6020830184611f11565b9392505050565b7f4e487b7100000000000000000000000000000000000000000000000000000000600052601260045260246000fdfea2646970667358221220a889d686512c9ba3a679e49901964a5c7c7669dfaeb0507557ddd9e32f4f8b9c64736f6c63430008140033",
  "linkReferences": {},
  "deployedLinkReferences": {}
}