{
  "_format": "hh-sol-artifact-1",
  "contractName": "CreatureNFT",
  "sourceName": "contracts/CreatureNFT.sol",
  "abi": [
    {
      "inputs": [
        {
          "internalType": "address",
          "name": "initialOwner",
          "type": "address"
        }
      ],
      "stateMutability": "nonpayable",
      "type": "constructor"
    },
    {
      "inputs": [],
      "name": "ERC721EnumerableForbiddenBatchMint",
      "type": "error"
    },
    {
      "inputs": [
        {
          "internalType": "address",
          "name": "sender",
          "type": "address"
        },
        {
          "internalType": "uint256",
          "name": "tokenId",
          "type": "uint256"
        },
        {
          "internalType": "address",
          "name": "owner",
          "type": "address"
        }
      ],
      "name": "ERC721IncorrectOwner",
      "type": "error"
    },
    {
      "inputs": [
        {
          "internalType": "address",
          "name": "operator",
          "type": "address"
        },
        {
          "internalType": "uint256",
          "name": "tokenId",
          "type": "uint256"
        }
      ],
      "name": "ERC721InsufficientApproval",
      "type": "error"
    },
    {
      "inputs": [
        {
          "internalType": "address",
          "name": "approver",
          "type": "address"
        }
      ],
      "name": "ERC721InvalidApprover",
      "type": "error"
    },
    {
      "inputs": [
        {
          "internalType": "address",
          "name": "operator",
          "type": "address"
        }
      ],
      "name": "ERC721InvalidOperator",
      "type": "error"
    },
    {
      "inputs": [
        {
          "internalType": "address",
          "name": "owner",
          "type": "address"
        }
      ],
      "name": "ERC721InvalidOwner",
      "type": "error"
    },
    {
      "inputs": [
        {
          "internalType": "address",
          "name": "receiver",
          "type": "address"
        }
      ],
      "name": "ERC721InvalidReceiver",
      "type": "error"
    },
    {
      "inputs": [
        {
          "internalType": "address",
          "name": "sender",
          "type": "address"
        }
      ],
      "name": "ERC721InvalidSender",
      "type": "error"
    },
    {
      "inputs": [
        {
          "internalType": "uint256",
          "name": "tokenId",
          "type": "uint256"
        }
      ],
      "name": "ERC721NonexistentToken",
      "type": "error"
    },
    {
      "inputs": [
        {
          "internalType": "address",
          "name": "owner",
          "type": "address"
        },
        {
          "internalType": "uint256",
          "name": "index",
          "type": "uint256"
        }
      ],
      "name": "ERC721OutOfBoundsIndex",
      "type": "error"
    },
    {
      "inputs": [
        {
          "internalType": "address",
          "name": "owner",
          "type": "address"
        }
      ],
      "name": "OwnableInvalidOwner",
      "type": "error"
    },
    {
      "inputs": [
        {
          "internalType": "address",
          "name": "account",
          "type": "address"
        }
      ],
      "name": "OwnableUnauthorizedAccount",
      "type": "error"
    },
    {
      "anonymous": false,
      "inputs": [
        {
          "indexed": true,
          "internalType": "address",
          "name": "owner",
          "type": "address"
        },
        {
          "indexed": true,
          "internalType": "address",
          "name": "approved",
          "type": "address"
        },
        {
          "indexed": true,
          "internalType": "uint256",
          "name": "tokenId",
          "type": "uint256"
        }
      ],
      "name": "Approval",
      "type": "event"
    },
    {
      "anonymous": false,
      "inputs": [
        {
          "indexed": true,
          "internalType": "address",
          "name": "owner",
          "type": "address"
        },
        {
          "indexed": true,
          "internalType": "address",
          "name": "operator",
          "type": "address"
        },
        {
          "indexed": false,
          "internalType": "bool",
          "name": "approved",
          "type": "bool"
        }
      ],
      "name": "ApprovalForAll",
      "type": "event"
    },
    {
      "anonymous": false,
      "inputs": [
        {
          "indexed": false,
          "internalType": "uint256",
          "name": "_fromTokenId",
          "type": "uint256"
        },
        {
          "indexed": false,
          "internalType": "uint256",
          "name": "_toTokenId",
          "type": "uint256"
        }
      ],
      "name": "BatchMetadataUpdate",
      "type": "event"
    },
    {
      "anonymous": false,
      "inputs": [
        {
          "indexed": false,
          "internalType": "uint256",
          "name": "_tokenId",
          "type": "uint256"
        }
      ],
      "name": "MetadataUpdate",
      "type": "event"
    },
    {
      "anonymous": false,
      "inputs": [
        {
          "indexed": true,
          "internalType": "address",
          "name": "previousOwner",
          "type": "address"
        },
        {
          "indexed": true,
          "internalType": "address",
          "name": "newOwner",
          "type": "address"
        }
      ],
      "name": "OwnershipTransferred",
      "type": "event"
    },
    {
      "anonymous": false,
      "inputs": [
        {
          "indexed": true,
          "internalType": "address",
          "name": "from",
          "type": "address"
        },
        {
          "indexed": true,
          "internalType": "address",
          "name": "to",
          "type": "address"
        },
        {
          "indexed": true,
          "internalType": "uint256",
          "name": "tokenId",
          "type": "uint256"
        }
      ],
      "name": "Transfer",
      "type": "event"
    },
    {
      "inputs": [
        {
          "internalType": "address",
          "name": "to",
          "type": "address"
        },
        {
          "internalType": "uint256",
          "name": "tokenId",
          "type": "uint256"
        }
      ],
      "name": "approve",
      "outputs": [],
      "stateMutability": "nonpayable",
      "type": "function"
    },
    {
      "inputs": [
        {
          "internalType": "address",
          "name": "owner",
          "type": "address"
        }
      ],
      "name": "balanceOf",
      "outputs": [
        {
          "internalType": "uint256",
          "name": "",
          "type": "uint256"
        }
      ],
      "stateMutability": "view",
      "type": "function"
    },
    {
      "inputs": [
        {
          "internalType": "uint256",
          "name": "tokenId",
          "type": "uint256"
        }
      ],
      "name": "burn",
      "outputs": [],
      "stateMutability": "nonpayable",
      "type": "function"
    },
    {
      "inputs": [
        {
          "internalType": "uint256",
          "name": "tokenId",
          "type": "uint256"
        }
      ],
      "name": "getApproved",
      "outputs": [
        {
          "internalType": "address",
          "name": "",
          "type": "address"
        }
      ],
      "stateMutability": "view",
      "type": "function"
    },
    {
      "inputs": [
        {
          "internalType": "address",
          "name": "owner",
          "type": "address"
        },
        {
          "internalType": "address",
          "name": "operator",
          "type": "address"
        }
      ],
      "name": "isApprovedForAll",
      "outputs": [
        {
          "internalType": "bool",
          "name": "",
          "type": "bool"
        }
      ],
      "stateMutability": "view",
      "type": "function"
    },
    {
      "inputs": [
        {
          "internalType": "address",
          "name": "to",
          "type": "address"
        },
        {
          "internalType": "string",
          "name": "uri",
          "type": "string"
        }
      ],
      "name": "mintCreature",
      "outputs": [],
      "stateMutability": "nonpayable",
      "type": "function"
    },
    {
      "inputs": [],
      "name": "mintFirstCreature",
      "outputs": [],
      "stateMutability": "nonpayable",
      "type": "function"
    },
    {
      "inputs": [],
      "name": "name",
      "outputs": [
        {
          "internalType": "string",
          "name": "",
          "type": "string"
        }
      ],
      "stateMutability": "view",
      "type": "function"
    },
    {
      "inputs": [],
      "name": "owner",
      "outputs": [
        {
          "internalType": "address",
          "name": "",
          "type": "address"
        }
      ],
      "stateMutability": "view",
      "type": "function"
    },
    {
      "inputs": [
        {
          "internalType": "uint256",
          "name": "tokenId",
          "type": "uint256"
        }
      ],
      "name": "ownerOf",
      "outputs": [
        {
          "internalType": "address",
          "name": "",
          "type": "address"
        }
      ],
      "stateMutability": "view",
      "type": "function"
    },
    {
      "inputs": [],
      "name": "renounceOwnership",
      "outputs": [],
      "stateMutability": "nonpayable",
      "type": "function"
    },
    {
      "inputs": [
        {
          "internalType": "address",
          "name": "from",
          "type": "address"
        },
        {
          "internalType": "address",
          "name": "to",
          "type": "address"
        },
        {
          "internalType": "uint256",
          "name": "tokenId",
          "type": "uint256"
        }
      ],
      "name": "safeTransferFrom",
      "outputs": [],
      "stateMutability": "nonpayable",
      "type": "function"
    },
    {
      "inputs": [
        {
          "internalType": "address",
          "name": "from",
          "type": "address"
        },
        {
          "internalType": "address",
          "name": "to",
          "type": "address"
        },
        {
          "internalType": "uint256",
          "name": "tokenId",
          "type": "uint256"
        },
        {
          "internalType": "bytes",
          "name": "data",
          "type": "bytes"
        }
      ],
      "name": "safeTransferFrom",
      "outputs": [],
      "stateMutability": "nonpayable",
      "type": "function"
    },
    {
      "inputs": [
        {
          "internalType": "address",
          "name": "operator",
          "type": "address"
        },
        {
          "internalType": "bool",
          "name": "approved",
          "type": "bool"
        }
      ],
      "name": "setApprovalForAll",
      "outputs": [],
      "stateMutability": "nonpayable",
      "type": "function"
    },
    {
      "inputs": [
        {
          "internalType": "bytes4",
          "name": "interfaceId",
          "type": "bytes4"
        }
      ],
      "name": "supportsInterface",
      "outputs": [
        {
          "internalType": "bool",
          "name": "",
          "type": "bool"
        }
      ],
      "stateMutability": "view",
      "type": "function"
    },
    {
      "inputs": [],
      "name": "symbol",
      "outputs": [
        {
          "internalType": "string",
          "name": "",
          "type": "string"
        }
      ],
      "stateMutability": "view",
      "type": "function"
    },
    {
      "inputs": [
        {
          "internalType": "uint256",
          "name": "index",
          "type": "uint256"
        }
      ],
      "name": "tokenByIndex",
      "outputs": [
        {
          "internalType": "uint256",
          "name": "",
          "type": "uint256"
        }
      ],
      "stateMutability": "view",
      "type": "function"
    },
    {
      "inputs": [
        {
          "internalType": "address",
          "name": "owner",
          "type": "address"
        },
        {
          "internalType": "uint256",
          "name": "index",
          "type": "uint256"
        }
      ],
      "name": "tokenOfOwnerByIndex",
      "outputs": [
        {
          "internalType": "uint256",
          "name": "",
          "type": "uint256"
        }
      ],
      "stateMutability": "view",
      "type": "function"
    },
    {
      "inputs": [
        {
          "internalType": "uint256",
          "name": "tokenId",
          "type": "uint256"
        }
      ],
      "name": "tokenURI",
      "outputs": [
        {
          "internalType": "string",
          "name": "",
          "type": "string"
        }
      ],
      "stateMutability": "view",
      "type": "function"
    },
    {
      "inputs": [],
      "name": "totalSupply",
      "outputs": [
        {
          "internalType": "uint256",
          "name": "",
          "type": "uint256"
        }
      ],
      "stateMutability": "view",
      "type": "function"
    },
    {
      "inputs": [
        {
          "internalType": "address",
          "name": "from",
          "type": "address"
        },
        {
          "internalType": "address",
          "name": "to",
          "type": "address"
        },
        {
          "internalType": "uint256",
          "name": "tokenId",
          "type": "uint256"
        }
      ],
      "name": "transferFrom",
      "outputs": [],
      "stateMutability": "nonpayable",
      "type": "function"
    },
    {
      "inputs": [
        {
          "internalType": "address",
          "name": "newOwner",
          "type": "address"
        }
      ],
      "name": "transferOwnership",
      "outputs": [],
      "stateMutability": "nonpayable",
      "type": "function"
    }
  ],
  "bytecode": "0x608060405234801561001057600080fd5b506040516134e53803806134e583398181016040528101906100329190610272565b806040518060400160405280600b81526020017f43726561747572654e46540000000000000000000000000000000000000000008152506040518060400160405280600481526020017f435254520000000000000000000000000000000000000000000000000000000081525081600090816100ae91906104ef565b5080600190816100be91906104ef565b505050600073ffffffffffffffffffffffffffffffffffffffff168173ffffffffffffffffffffffffffffffffffffffff16036101335760006040517f1e4fbdf700000000000000000000000000000000000000000000000000000000815260040161012a91906105d0565b60405180910390fd5b6101428161014960201b60201c565b50506105eb565b6000600b60009054906101000a900473ffffffffffffffffffffffffffffffffffffffff16905081600b60006101000a81548173ffffffffffffffffffffffffffffffffffffffff021916908373ffffffffffffffffffffffffffffffffffffffff1602179055508173ffffffffffffffffffffffffffffffffffffffff168173ffffffffffffffffffffffffffffffffffffffff167f8be0079c531659141344cd1fd0a4f28419497f9722a3daafe3b4186f6b6457e060405160405180910390a35050565b600080fd5b600073ffffffffffffffffffffffffffffffffffffffff82169050919050565b600061023f82610214565b9050919050565b61024f81610234565b811461025a57600080fd5b50565b60008151905061026c81610246565b92915050565b6000602082840312156102885761028761020f565b5b60006102968482850161025d565b91505092915050565b600081519050919050565b7f4e487b7100000000000000000000000000000000000000000000000000000000600052604160045260246000fd5b7f4e487b7100000000000000000000000000000000000000000000000000000000600052602260045260246000fd5b6000600282049050600182168061032057607f821691505b602082108103610333576103326102d9565b5b50919050565b60008190508160005260206000209050919050565b60006020601f8301049050919050565b600082821b905092915050565b60006008830261039b7fffffffffffffffffffffffffffffffffffffffffffffffffffffffffffffffff8261035e565b6103a5868361035e565b95508019841693508086168417925050509392505050565b6000819050919050565b6000819050919050565b60006103ec6103e76103e2846103bd565b6103c7565b6103bd565b9050919050565b6000819050919050565b610406836103d1565b61041a610412826103f3565b84845461036b565b825550505050565b600090565b61042f610422565b61043a8184846103fd565b505050565b5b8181101561045e57610453600082610427565b600181019050610440565b5050565b601f8211156104a35761047481610339565b61047d8461034e565b8101602085101561048c578190505b6104a06104988561034e565b83018261043f565b50505b505050565b600082821c905092915050565b60006104c6600019846008026104a8565b1980831691505092915050565b60006104df83836104b5565b9150826002028217905092915050565b6104f88261029f565b67ffffffffffffffff811115610511576105106102aa565b5b61051b8254610308565b610526828285610462565b600060209050601f8311600181146105595760008415610547578287015190505b61055185826104d3565b8655506105b9565b601f19841661056786610339565b60005b8281101561058f5784890151825560018201915060208501945060208101905061056a565b868310156105ac57848901516105a8601f8916826104b5565b8355505b6001600288020188555050505b505050505050565b6105ca81610234565b82525050565b60006020820190506105e560008301846105c1565b92915050565b612eeb806105fa6000396000f3fe608060405234801561001057600080fd5b50600436106101425760003560e01c80634f6ccce7116100b857806395d89b411161007c57806395d89b4114610361578063a22cb4651461037f578063b88d4fde1461039b578063c87b56dd146103b7578063e985e9c5146103e7578063f2fde38b1461041757610142565b80634f6ccce7146102a95780636352211e146102d957806370a0823114610309578063715018a6146103395780638da5cb5b1461034357610142565b806323b872dd1161010a57806323b872dd146101ff5780632a9616031461021b5780632f745c591461022557806342842e0e1461025557806342966c68146102715780634a54d5441461028d57610142565b806301ffc9a71461014757806306fdde0314610177578063081812fc14610195578063095ea7b3146101c557806318160ddd146101e1575b600080fd5b610161600480360381019061015c91906121d6565b610433565b60405161016e919061221e565b60405180910390f35b61017f610445565b60405161018c91906122c9565b60405180910390f35b6101af60048036038101906101aa9190612321565b6104d7565b6040516101bc919061238f565b60405180910390f35b6101df60048036038101906101da91906123d6565b6104f3565b005b6101e9610509565b6040516101f69190612425565b60405180910390f35b61021960048036038101906102149190612440565b610516565b005b610223610618565b005b61023f600480360381019061023a91906123d6565b6106b7565b60405161024c9190612425565b60405180910390f35b61026f600480360381019061026a9190612440565b610760565b005b61028b60048036038101906102869190612321565b610780565b005b6102a760048036038101906102a291906125c8565b610797565b005b6102c360048036038101906102be9190612321565b6107cf565b6040516102d09190612425565b60405180910390f35b6102f360048036038101906102ee9190612321565b610845565b604051610300919061238f565b60405180910390f35b610323600480360381019061031e9190612624565b610857565b6040516103309190612425565b60405180910390f35b610341610911565b005b61034b610925565b604051610358919061238f565b60405180910390f35b61036961094f565b60405161037691906122c9565b60405180910390f35b6103996004803603810190610394919061267d565b6109e1565b005b6103b560048036038101906103b0919061275e565b6109f7565b005b6103d160048036038101906103cc9190612321565b610a1c565b6040516103de91906122c9565b60405180910390f35b61040160048036038101906103fc91906127e1565b610a2e565b60405161040e919061221e565b60405180910390f35b610431600480360381019061042c9190612624565b610ac2565b005b600061043e82610b48565b9050919050565b60606000805461045490612850565b80601f016020809104026020016040519081016040528092919081815260200182805461048090612850565b80156104cd5780601f106104a2576101008083540402835291602001916104cd565b820191906000526020600020905b8154815290600101906020018083116104b057829003601f168201915b5050505050905090565b60006104e282610ba9565b506104ec82610c31565b9050919050565b6105058282610500610c6e565b610c76565b5050565b6000600880549050905090565b600073ffffffffffffffffffffffffffffffffffffffff168273ffffffffffffffffffffffffffffffffffffffff16036105885760006040517f64a0ae9200000000000000000000000000000000000000000000000000000000815260040161057f919061238f565b60405180910390fd5b600061059c8383610597610c6e565b610c88565b90508373ffffffffffffffffffffffffffffffffffffffff168173ffffffffffffffffffffffffffffffffffffffff1614610612578382826040517f64283d7b00000000000000000000000000000000000000000000000000000000815260040161060993929190612881565b60405180910390fd5b50505050565b600061062333610857565b14610663576040517f08c379a000000000000000000000000000000000000000000000000000000000815260040161065a90612904565b60405180910390fd5b60006040518060a00160405280606f8152602001612e47606f913990506000600c549050600c600081548092919061069a90612953565b91905055506106a93382610c9e565b6106b38183610cbc565b5050565b60006106c283610857565b82106107075782826040517fa57d13dc0000000000000000000000000000000000000000000000000000000081526004016106fe92919061299b565b60405180910390fd5b600660008473ffffffffffffffffffffffffffffffffffffffff1673ffffffffffffffffffffffffffffffffffffffff168152602001908152602001600020600083815260200190815260200160002054905092915050565b61077b838383604051806020016040528060008152506109f7565b505050565b61079360008261078e610c6e565b610c88565b5050565b6000600c549050600c60008154809291906107b190612953565b91905055506107c08382610c9e565b6107ca8183610cbc565b505050565b60006107d9610509565b821061081f576000826040517fa57d13dc00000000000000000000000000000000000000000000000000000000815260040161081692919061299b565b60405180910390fd5b60088281548110610833576108326129c4565b5b90600052602060002001549050919050565b600061085082610ba9565b9050919050565b60008073ffffffffffffffffffffffffffffffffffffffff168273ffffffffffffffffffffffffffffffffffffffff16036108ca5760006040517f89c62b640000000000000000000000000000000000000000000000000000000081526004016108c1919061238f565b60405180910390fd5b600360008373ffffffffffffffffffffffffffffffffffffffff1673ffffffffffffffffffffffffffffffffffffffff168152602001908152602001600020549050919050565b610919610d18565b6109236000610d9f565b565b6000600b60009054906101000a900473ffffffffffffffffffffffffffffffffffffffff16905090565b60606001805461095e90612850565b80601f016020809104026020016040519081016040528092919081815260200182805461098a90612850565b80156109d75780601f106109ac576101008083540402835291602001916109d7565b820191906000526020600020905b8154815290600101906020018083116109ba57829003601f168201915b5050505050905090565b6109f36109ec610c6e565b8383610e65565b5050565b610a02848484610516565b610a16610a0d610c6e565b85858585610fd4565b50505050565b6060610a2782611185565b9050919050565b6000600560008473ffffffffffffffffffffffffffffffffffffffff1673ffffffffffffffffffffffffffffffffffffffff16815260200190815260200160002060008373ffffffffffffffffffffffffffffffffffffffff1673ffffffffffffffffffffffffffffffffffffffff16815260200190815260200160002060009054906101000a900460ff16905092915050565b610aca610d18565b600073ffffffffffffffffffffffffffffffffffffffff168173ffffffffffffffffffffffffffffffffffffffff1603610b3c5760006040517f1e4fbdf7000000000000000000000000000000000000000000000000000000008152600401610b33919061238f565b60405180910390fd5b610b4581610d9f565b50565b6000634906490660e01b7bffffffffffffffffffffffffffffffffffffffffffffffffffffffff1916827bffffffffffffffffffffffffffffffffffffffffffffffffffffffff19161480610ba25750610ba182611298565b5b9050919050565b600080610bb583611312565b9050600073ffffffffffffffffffffffffffffffffffffffff168173ffffffffffffffffffffffffffffffffffffffff1603610c2857826040517f7e273289000000000000000000000000000000000000000000000000000000008152600401610c1f9190612425565b60405180910390fd5b80915050919050565b60006004600083815260200190815260200160002060009054906101000a900473ffffffffffffffffffffffffffffffffffffffff169050919050565b600033905090565b610c83838383600161134f565b505050565b6000610c95848484611514565b90509392505050565b610cb8828260405180602001604052806000815250611631565b5050565b80600a60008481526020019081526020016000209081610cdc9190612b9f565b507ff8e1a15aba9398e019f0b49df1a4fde98ee17ae345cb5f6b5e2c27f5033e8ce782604051610d0c9190612425565b60405180910390a15050565b610d20610c6e565b73ffffffffffffffffffffffffffffffffffffffff16610d3e610925565b73ffffffffffffffffffffffffffffffffffffffff1614610d9d57610d61610c6e565b6040517f118cdaa7000000000000000000000000000000000000000000000000000000008152600401610d94919061238f565b60405180910390fd5b565b6000600b60009054906101000a900473ffffffffffffffffffffffffffffffffffffffff16905081600b60006101000a81548173ffffffffffffffffffffffffffffffffffffffff021916908373ffffffffffffffffffffffffffffffffffffffff1602179055508173ffffffffffffffffffffffffffffffffffffffff168173ffffffffffffffffffffffffffffffffffffffff167f8be0079c531659141344cd1fd0a4f28419497f9722a3daafe3b4186f6b6457e060405160405180910390a35050565b600073ffffffffffffffffffffffffffffffffffffffff168273ffffffffffffffffffffffffffffffffffffffff1603610ed657816040517f5b08ba18000000000000000000000000000000000000000000000000000000008152600401610ecd919061238f565b60405180910390fd5b80600560008573ffffffffffffffffffffffffffffffffffffffff1673ffffffffffffffffffffffffffffffffffffffff16815260200190815260200160002060008473ffffffffffffffffffffffffffffffffffffffff1673ffffffffffffffffffffffffffffffffffffffff16815260200190815260200160002060006101000a81548160ff0219169083151502179055508173ffffffffffffffffffffffffffffffffffffffff168373ffffffffffffffffffffffffffffffffffffffff167f17307eab39ab6107e8899845ad3d59bd9653f200f220920489ca2b5937696c3183604051610fc7919061221e565b60405180910390a3505050565b60008373ffffffffffffffffffffffffffffffffffffffff163b111561117e578273ffffffffffffffffffffffffffffffffffffffff1663150b7a02868685856040518563ffffffff1660e01b81526004016110339493929190612cc6565b6020604051808303816000875af192505050801561106f57506040513d601f19601f8201168201806040525081019061106c9190612d27565b60015b6110f3573d806000811461109f576040519150601f19603f3d011682016040523d82523d6000602084013e6110a4565b606091505b5060008151036110eb57836040517f64a0ae920000000000000000000000000000000000000000000000000000000081526004016110e2919061238f565b60405180910390fd5b805181602001fd5b63150b7a0260e01b7bffffffffffffffffffffffffffffffffffffffffffffffffffffffff1916817bffffffffffffffffffffffffffffffffffffffffffffffffffffffff19161461117c57836040517f64a0ae92000000000000000000000000000000000000000000000000000000008152600401611173919061238f565b60405180910390fd5b505b5050505050565b606061119082610ba9565b506000600a600084815260200190815260200160002080546111b190612850565b80601f01602080910402602001604051908101604052809291908181526020018280546111dd90612850565b801561122a5780601f106111ff5761010080835404028352916020019161122a565b820191906000526020600020905b81548152906001019060200180831161120d57829003601f168201915b50505050509050600061123b611655565b90506000815103611250578192505050611293565b60008251111561128557808260405160200161126d929190612d90565b60405160208183030381529060405292505050611293565b61128e8461166c565b925050505b919050565b60007f780e9d63000000000000000000000000000000000000000000000000000000007bffffffffffffffffffffffffffffffffffffffffffffffffffffffff1916827bffffffffffffffffffffffffffffffffffffffffffffffffffffffff1916148061130b575061130a826116d5565b5b9050919050565b60006002600083815260200190815260200160002060009054906101000a900473ffffffffffffffffffffffffffffffffffffffff169050919050565b80806113885750600073ffffffffffffffffffffffffffffffffffffffff168273ffffffffffffffffffffffffffffffffffffffff1614155b156114bc57600061139884610ba9565b9050600073ffffffffffffffffffffffffffffffffffffffff168373ffffffffffffffffffffffffffffffffffffffff161415801561140357508273ffffffffffffffffffffffffffffffffffffffff168173ffffffffffffffffffffffffffffffffffffffff1614155b801561141657506114148184610a2e565b155b1561145857826040517fa9fbf51f00000000000000000000000000000000000000000000000000000000815260040161144f919061238f565b60405180910390fd5b81156114ba57838573ffffffffffffffffffffffffffffffffffffffff168273ffffffffffffffffffffffffffffffffffffffff167f8c5be1e5ebec7d5bd14f71427d1e84f3dd0314c0f7b2291e5b200ac8c7c3b92560405160405180910390a45b505b836004600085815260200190815260200160002060006101000a81548173ffffffffffffffffffffffffffffffffffffffff021916908373ffffffffffffffffffffffffffffffffffffffff16021790555050505050565b6000806115228585856117b7565b9050600073ffffffffffffffffffffffffffffffffffffffff168173ffffffffffffffffffffffffffffffffffffffff160361156657611561846119d1565b6115a5565b8473ffffffffffffffffffffffffffffffffffffffff168173ffffffffffffffffffffffffffffffffffffffff16146115a4576115a38185611a1a565b5b5b600073ffffffffffffffffffffffffffffffffffffffff168573ffffffffffffffffffffffffffffffffffffffff16036115e7576115e284611b05565b611626565b8473ffffffffffffffffffffffffffffffffffffffff168173ffffffffffffffffffffffffffffffffffffffff1614611625576116248585611bd6565b5b5b809150509392505050565b61163b8383611c61565b611650611646610c6e565b6000858585610fd4565b505050565b606060405180602001604052806000815250905090565b606061167782610ba9565b506000611682611655565b905060008151116116a257604051806020016040528060008152506116cd565b806116ac84611d5a565b6040516020016116bd929190612d90565b6040516020818303038152906040525b915050919050565b60007f80ac58cd000000000000000000000000000000000000000000000000000000007bffffffffffffffffffffffffffffffffffffffffffffffffffffffff1916827bffffffffffffffffffffffffffffffffffffffffffffffffffffffff191614806117a057507f5b5e139f000000000000000000000000000000000000000000000000000000007bffffffffffffffffffffffffffffffffffffffffffffffffffffffff1916827bffffffffffffffffffffffffffffffffffffffffffffffffffffffff1916145b806117b057506117af82611e28565b5b9050919050565b6000806117c384611312565b9050600073ffffffffffffffffffffffffffffffffffffffff168373ffffffffffffffffffffffffffffffffffffffff161461180557611804818486611e92565b5b600073ffffffffffffffffffffffffffffffffffffffff168173ffffffffffffffffffffffffffffffffffffffff16146118965761184760008560008061134f565b6001600360008373ffffffffffffffffffffffffffffffffffffffff1673ffffffffffffffffffffffffffffffffffffffff168152602001908152602001600020600082825403925050819055505b600073ffffffffffffffffffffffffffffffffffffffff168573ffffffffffffffffffffffffffffffffffffffff1614611919576001600360008773ffffffffffffffffffffffffffffffffffffffff1673ffffffffffffffffffffffffffffffffffffffff168152602001908152602001600020600082825401925050819055505b846002600086815260200190815260200160002060006101000a81548173ffffffffffffffffffffffffffffffffffffffff021916908373ffffffffffffffffffffffffffffffffffffffff160217905550838573ffffffffffffffffffffffffffffffffffffffff168273ffffffffffffffffffffffffffffffffffffffff167fddf252ad1be2c89b69c2b068fc378daa952ba7f163c4a11628f55a4df523b3ef60405160405180910390a4809150509392505050565b6008805490506009600083815260200190815260200160002081905550600881908060018154018082558091505060019003906000526020600020016000909190919091505550565b6000611a2583610857565b90506000600760008481526020019081526020016000205490506000600660008673ffffffffffffffffffffffffffffffffffffffff1673ffffffffffffffffffffffffffffffffffffffff1681526020019081526020016000209050828214611ad15760008160008581526020019081526020016000205490508082600085815260200190815260200160002081905550826007600083815260200190815260200160002081905550505b6007600085815260200190815260200160002060009055806000848152602001908152602001600020600090555050505050565b60006001600880549050611b199190612db4565b9050600060096000848152602001908152602001600020549050600060088381548110611b4957611b486129c4565b5b906000526020600020015490508060088381548110611b6b57611b6a6129c4565b5b906000526020600020018190555081600960008381526020019081526020016000208190555060096000858152602001908152602001600020600090556008805480611bba57611bb9612de8565b5b6001900381819060005260206000200160009055905550505050565b60006001611be384610857565b611bed9190612db4565b905081600660008573ffffffffffffffffffffffffffffffffffffffff1673ffffffffffffffffffffffffffffffffffffffff168152602001908152602001600020600083815260200190815260200160002081905550806007600084815260200190815260200160002081905550505050565b600073ffffffffffffffffffffffffffffffffffffffff168273ffffffffffffffffffffffffffffffffffffffff1603611cd35760006040517f64a0ae92000000000000000000000000000000000000000000000000000000008152600401611cca919061238f565b60405180910390fd5b6000611ce183836000610c88565b9050600073ffffffffffffffffffffffffffffffffffffffff168173ffffffffffffffffffffffffffffffffffffffff1614611d555760006040517f73c6ac6e000000000000000000000000000000000000000000000000000000008152600401611d4c919061238f565b60405180910390fd5b505050565b606060006001611d6984611f56565b01905060008167ffffffffffffffff811115611d8857611d8761249d565b5b6040519080825280601f01601f191660200182016040528015611dba5781602001600182028036833780820191505090505b509050600082602001820190505b600115611e1d578080600190039150507f3031323334353637383961626364656600000000000000000000000000000000600a86061a8153600a8581611e1157611e10612e17565b5b04945060008503611dc8575b819350505050919050565b60007f01ffc9a7000000000000000000000000000000000000000000000000000000007bffffffffffffffffffffffffffffffffffffffffffffffffffffffff1916827bffffffffffffffffffffffffffffffffffffffffffffffffffffffff1916149050919050565b611e9d8383836120a9565b611f5157600073ffffffffffffffffffffffffffffffffffffffff168373ffffffffffffffffffffffffffffffffffffffff1603611f1257806040517f7e273289000000000000000000000000000000000000000000000000000000008152600401611f099190612425565b60405180910390fd5b81816040517f177e802f000000000000000000000000000000000000000000000000000000008152600401611f4892919061299b565b60405180910390fd5b505050565b600080600090507a184f03e93ff9f4daa797ed6e38ed64bf6a1f0100000000000000008310611fb4577a184f03e93ff9f4daa797ed6e38ed64bf6a1f0100000000000000008381611faa57611fa9612e17565b5b0492506040810190505b6d04ee2d6d415b85acef81000000008310611ff1576d04ee2d6d415b85acef81000000008381611fe757611fe6612e17565b5b0492506020810190505b662386f26fc10000831061202057662386f26fc10000838161201657612015612e17565b5b0492506010810190505b6305f5e1008310612049576305f5e100838161203f5761203e612e17565b5b0492506008810190505b612710831061206e57612710838161206457612063612e17565b5b0492506004810190505b60648310612091576064838161208757612086612e17565b5b0492506002810190505b600a83106120a0576001810190505b80915050919050565b60008073ffffffffffffffffffffffffffffffffffffffff168373ffffffffffffffffffffffffffffffffffffffff161415801561216157508273ffffffffffffffffffffffffffffffffffffffff168473ffffffffffffffffffffffffffffffffffffffff16148061212257506121218484610a2e565b5b8061216057508273ffffffffffffffffffffffffffffffffffffffff1661214883610c31565b73ffffffffffffffffffffffffffffffffffffffff16145b5b90509392505050565b6000604051905090565b600080fd5b600080fd5b60007fffffffff0000000000000000000000000000000000000000000000000000000082169050919050565b6121b38161217e565b81146121be57600080fd5b50565b6000813590506121d0816121aa565b92915050565b6000602082840312156121ec576121eb612174565b5b60006121fa848285016121c1565b91505092915050565b60008115159050919050565b61221881612203565b82525050565b6000602082019050612233600083018461220f565b92915050565b600081519050919050565b600082825260208201905092915050565b60005b83811015612273578082015181840152602081019050612258565b60008484015250505050565b6000601f19601f8301169050919050565b600061229b82612239565b6122a58185612244565b93506122b5818560208601612255565b6122be8161227f565b840191505092915050565b600060208201905081810360008301526122e38184612290565b905092915050565b6000819050919050565b6122fe816122eb565b811461230957600080fd5b50565b60008135905061231b816122f5565b92915050565b60006020828403121561233757612336612174565b5b60006123458482850161230c565b91505092915050565b600073ffffffffffffffffffffffffffffffffffffffff82169050919050565b60006123798261234e565b9050919050565b6123898161236e565b82525050565b60006020820190506123a46000830184612380565b92915050565b6123b38161236e565b81146123be57600080fd5b50565b6000813590506123d0816123aa565b92915050565b600080604083850312156123ed576123ec612174565b5b60006123fb858286016123c1565b925050602061240c8582860161230c565b9150509250929050565b61241f816122eb565b82525050565b600060208201905061243a6000830184612416565b92915050565b60008060006060848603121561245957612458612174565b5b6000612467868287016123c1565b9350506020612478868287016123c1565b92505060406124898682870161230c565b9150509250925092565b600080fd5b600080fd5b7f4e487b7100000000000000000000000000000000000000000000000000000000600052604160045260246000fd5b6124d58261227f565b810181811067ffffffffffffffff821117156124f4576124f361249d565b5b80604052505050565b600061250761216a565b905061251382826124cc565b919050565b600067ffffffffffffffff8211156125335761253261249d565b5b61253c8261227f565b9050602081019050919050565b82818337600083830152505050565b600061256b61256684612518565b6124fd565b90508281526020810184848401111561258757612586612498565b5b612592848285612549565b509392505050565b600082601f8301126125af576125ae612493565b5b81356125bf848260208601612558565b91505092915050565b600080604083850312156125df576125de612174565b5b60006125ed858286016123c1565b925050602083013567ffffffffffffffff81111561260e5761260d612179565b5b61261a8582860161259a565b9150509250929050565b60006020828403121561263a57612639612174565b5b6000612648848285016123c1565b91505092915050565b61265a81612203565b811461266557600080fd5b50565b60008135905061267781612651565b92915050565b6000806040838503121561269457612693612174565b5b60006126a2858286016123c1565b92505060206126b385828601612668565b9150509250929050565b600067ffffffffffffffff8211156126d8576126d761249d565b5b6126e18261227f565b9050602081019050919050565b60006127016126fc846126bd565b6124fd565b90508281526020810184848401111561271d5761271c612498565b5b612728848285612549565b509392505050565b600082601f83011261274557612744612493565b5b81356127558482602086016126ee565b91505092915050565b6000806000806080858703121561277857612777612174565b5b6000612786878288016123c1565b9450506020612797878288016123c1565b93505060406127a88782880161230c565b925050606085013567ffffffffffffffff8111156127c9576127c8612179565b5b6127d587828801612730565b91505092959194509250565b600080604083850312156127f8576127f7612174565b5b6000612806858286016123c1565b9250506020612817858286016123c1565b9150509250929050565b7f4e487b7100000000000000000000000000000000000000000000000000000000600052602260045260246000fd5b6000600282049050600182168061286857607f821691505b60208210810361287b5761287a612821565b5b50919050565b60006060820190506128966000830186612380565b6128a36020830185612416565b6128b06040830184612380565b949350505050565b7f596f7520616c7265616479206f776e2061206372656174757265000000000000600082015250565b60006128ee601a83612244565b91506128f9826128b8565b602082019050919050565b6000602082019050818103600083015261291d816128e1565b9050919050565b7f4e487b7100000000000000000000000000000000000000000000000000000000600052601160045260246000fd5b600061295e826122eb565b91507fffffffffffffffffffffffffffffffffffffffffffffffffffffffffffffffff82036129905761298f612924565b5b600182019050919050565b60006040820190506129b06000830185612380565b6129bd6020830184612416565b9392505050565b7f4e487b7100000000000000000000000000000000000000000000000000000000600052603260045260246000fd5b60008190508160005260206000209050919050565b60006020601f8301049050919050565b600082821b905092915050565b600060088302612a557fffffffffffffffffffffffffffffffffffffffffffffffffffffffffffffffff82612a18565b612a5f8683612a18565b95508019841693508086168417925050509392505050565b6000819050919050565b6000612a9c612a97612a92846122eb565b612a77565b6122eb565b9050919050565b6000819050919050565b612ab683612a81565b612aca612ac282612aa3565b848454612a25565b825550505050565b600090565b612adf612ad2565b612aea818484612aad565b505050565b5b81811015612b0e57612b03600082612ad7565b600181019050612af0565b5050565b601f821115612b5357612b24816129f3565b612b2d84612a08565b81016020851015612b3c578190505b612b50612b4885612a08565b830182612aef565b50505b505050565b600082821c905092915050565b6000612b7660001984600802612b58565b1980831691505092915050565b6000612b8f8383612b65565b9150826002028217905092915050565b612ba882612239565b67ffffffffffffffff811115612bc157612bc061249d565b5b612bcb8254612850565b612bd6828285612b12565b600060209050601f831160018114612c095760008415612bf7578287015190505b612c018582612b83565b865550612c69565b601f198416612c17866129f3565b60005b82811015612c3f57848901518255600182019150602085019450602081019050612c1a565b86831015612c5c5784890151612c58601f891682612b65565b8355505b6001600288020188555050505b505050505050565b600081519050919050565b600082825260208201905092915050565b6000612c9882612c71565b612ca28185612c7c565b9350612cb2818560208601612255565b612cbb8161227f565b840191505092915050565b6000608082019050612cdb6000830187612380565b612ce86020830186612380565b612cf56040830185612416565b8181036060830152612d078184612c8d565b905095945050505050565b600081519050612d21816121aa565b92915050565b600060208284031215612d3d57612d3c612174565b5b6000612d4b84828501612d12565b91505092915050565b600081905092915050565b6000612d6a82612239565b612d748185612d54565b9350612d84818560208601612255565b80840191505092915050565b6000612d9c8285612d5f565b9150612da88284612d5f565b91508190509392505050565b6000612dbf826122eb565b9150612dca836122eb565b9250828203905081811115612de257612de1612924565b5b92915050565b7f4e487b7100000000000000000000000000000000000000000000000000000000600052603160045260246000fd5b7f4e487b7100000000000000000000000000000000000000000000000000000000600052601260045260246000fdfe68747470733a2f2f6d6f63636173696e2d6269672d6261626f6f6e2d3131302e6d7970696e6174612e636c6f75642f697066732f6261666b72656963646a6e64716c6e6632637573656b6771617778376b697567376e7678633573627632766976347074373262336c6164786b676da264697066735822122016eaabd5e086e52045b101ab775bf17040171ca4af4a4717b877a97cf822e8ed64736f6c634300081b0033",
  "linkReferences": {},
  "deployedLinkReferences": {}
}