{
  "_format": "hh-sol-artifact-1",
  "contractName": "CreatureNFT",
  "sourceName": "contracts/CreatureNFT.sol",
  "abi": [
    {
      "inputs": [
        {
          "internalType": "address",
          "name": "initialOwner",
          "type": "address"
        }
      ],
      "stateMutability": "nonpayable",
      "type": "constructor"
    },
    {
      "inputs": [],
      "name": "ERC721EnumerableForbiddenBatchMint",
      "type": "error"
    },
    {
      "inputs": [
        {
          "internalType": "address",
          "name": "sender",
          "type": "address"
        },
        {
          "internalType": "uint256",
          "name": "tokenId",
          "type": "uint256"
        },
        {
          "internalType": "address",
          "name": "owner",
          "type": "address"
        }
      ],
      "name": "ERC721IncorrectOwner",
      "type": "error"
    },
    {
      "inputs": [
        {
          "internalType": "address",
          "name": "operator",
          "type": "address"
        },
        {
          "internalType": "uint256",
          "name": "tokenId",
          "type": "uint256"
        }
      ],
      "name": "ERC721InsufficientApproval",
      "type": "error"
    },
    {
      "inputs": [
        {
          "internalType": "address",
          "name": "approver",
          "type": "address"
        }
      ],
      "name": "ERC721InvalidApprover",
      "type": "error"
    },
    {
      "inputs": [
        {
          "internalType": "address",
          "name": "operator",
          "type": "address"
        }
      ],
      "name": "ERC721InvalidOperator",
      "type": "error"
    },
    {
      "inputs": [
        {
          "internalType": "address",
          "name": "owner",
          "type": "address"
        }
      ],
      "name": "ERC721InvalidOwner",
      "type": "error"
    },
    {
      "inputs": [
        {
          "internalType": "address",
          "name": "receiver",
          "type": "address"
        }
      ],
      "name": "ERC721InvalidReceiver",
      "type": "error"
    },
    {
      "inputs": [
        {
          "internalType": "address",
          "name": "sender",
          "type": "address"
        }
      ],
      "name": "ERC721InvalidSender",
      "type": "error"
    },
    {
      "inputs": [
        {
          "internalType": "uint256",
          "name": "tokenId",
          "type": "uint256"
        }
      ],
      "name": "ERC721NonexistentToken",
      "type": "error"
    },
    {
      "inputs": [
        {
          "internalType": "address",
          "name": "owner",
          "type": "address"
        },
        {
          "internalType": "uint256",
          "name": "index",
          "type": "uint256"
        }
      ],
      "name": "ERC721OutOfBoundsIndex",
      "type": "error"
    },
    {
      "inputs": [
        {
          "internalType": "address",
          "name": "owner",
          "type": "address"
        }
      ],
      "name": "OwnableInvalidOwner",
      "type": "error"
    },
    {
      "inputs": [
        {
          "internalType": "address",
          "name": "account",
          "type": "address"
        }
      ],
      "name": "OwnableUnauthorizedAccount",
      "type": "error"
    },
    {
      "anonymous": false,
      "inputs": [
        {
          "indexed": true,
          "internalType": "address",
          "name": "owner",
          "type": "address"
        },
        {
          "indexed": true,
          "internalType": "address",
          "name": "approved",
          "type": "address"
        },
        {
          "indexed": true,
          "internalType": "uint256",
          "name": "tokenId",
          "type": "uint256"
        }
      ],
      "name": "Approval",
      "type": "event"
    },
    {
      "anonymous": false,
      "inputs": [
        {
          "indexed": true,
          "internalType": "address",
          "name": "owner",
          "type": "address"
        },
        {
          "indexed": true,
          "internalType": "address",
          "name": "operator",
          "type": "address"
        },
        {
          "indexed": false,
          "internalType": "bool",
          "name": "approved",
          "type": "bool"
        }
      ],
      "name": "ApprovalForAll",
      "type": "event"
    },
    {
      "anonymous": false,
      "inputs": [
        {
          "indexed": false,
          "internalType": "uint256",
          "name": "_fromTokenId",
          "type": "uint256"
        },
        {
          "indexed": false,
          "internalType": "uint256",
          "name": "_toTokenId",
          "type": "uint256"
        }
      ],
      "name": "BatchMetadataUpdate",
      "type": "event"
    },
    {
      "anonymous": false,
      "inputs": [
        {
          "indexed": false,
          "internalType": "uint256",
          "name": "_tokenId",
          "type": "uint256"
        }
      ],
      "name": "MetadataUpdate",
      "type": "event"
    },
    {
      "anonymous": false,
      "inputs": [
        {
          "indexed": true,
          "internalType": "address",
          "name": "previousOwner",
          "type": "address"
        },
        {
          "indexed": true,
          "internalType": "address",
          "name": "newOwner",
          "type": "address"
        }
      ],
      "name": "OwnershipTransferred",
      "type": "event"
    },
    {
      "anonymous": false,
      "inputs": [
        {
          "indexed": true,
          "internalType": "address",
          "name": "from",
          "type": "address"
        },
        {
          "indexed": true,
          "internalType": "address",
          "name": "to",
          "type": "address"
        },
        {
          "indexed": true,
          "internalType": "uint256",
          "name": "tokenId",
          "type": "uint256"
        }
      ],
      "name": "Transfer",
      "type": "event"
    },
    {
      "inputs": [
        {
          "internalType": "address",
          "name": "to",
          "type": "address"
        },
        {
          "internalType": "uint256",
          "name": "tokenId",
          "type": "uint256"
        }
      ],
      "name": "approve",
      "outputs": [],
      "stateMutability": "nonpayable",
      "type": "function"
    },
    {
      "inputs": [
        {
          "internalType": "address",
          "name": "owner",
          "type": "address"
        }
      ],
      "name": "balanceOf",
      "outputs": [
        {
          "internalType": "uint256",
          "name": "",
          "type": "uint256"
        }
      ],
      "stateMutability": "view",
      "type": "function"
    },
    {
      "inputs": [
        {
          "internalType": "uint256",
          "name": "tokenId",
          "type": "uint256"
        }
      ],
      "name": "burn",
      "outputs": [],
      "stateMutability": "nonpayable",
      "type": "function"
    },
    {
      "inputs": [
        {
          "internalType": "uint256",
          "name": "tokenId",
          "type": "uint256"
        }
      ],
      "name": "getApproved",
      "outputs": [
        {
          "internalType": "address",
          "name": "",
          "type": "address"
        }
      ],
      "stateMutability": "view",
      "type": "function"
    },
    {
      "inputs": [
        {
          "internalType": "address",
          "name": "owner",
          "type": "address"
        },
        {
          "internalType": "address",
          "name": "operator",
          "type": "address"
        }
      ],
      "name": "isApprovedForAll",
      "outputs": [
        {
          "internalType": "bool",
          "name": "",
          "type": "bool"
        }
      ],
      "stateMutability": "view",
      "type": "function"
    },
    {
      "inputs": [
        {
          "internalType": "address",
          "name": "to",
          "type": "address"
        },
        {
          "internalType": "string",
          "name": "uri",
          "type": "string"
        }
      ],
      "name": "mintCreature",
      "outputs": [],
      "stateMutability": "nonpayable",
      "type": "function"
    },
    {
      "inputs": [],
      "name": "mintFirstCreature",
      "outputs": [],
      "stateMutability": "nonpayable",
      "type": "function"
    },
    {
      "inputs": [],
      "name": "name",
      "outputs": [
        {
          "internalType": "string",
          "name": "",
          "type": "string"
        }
      ],
      "stateMutability": "view",
      "type": "function"
    },
    {
      "inputs": [],
      "name": "owner",
      "outputs": [
        {
          "internalType": "address",
          "name": "",
          "type": "address"
        }
      ],
      "stateMutability": "view",
      "type": "function"
    },
    {
      "inputs": [
        {
          "internalType": "uint256",
          "name": "tokenId",
          "type": "uint256"
        }
      ],
      "name": "ownerOf",
      "outputs": [
        {
          "internalType": "address",
          "name": "",
          "type": "address"
        }
      ],
      "stateMutability": "view",
      "type": "function"
    },
    {
      "inputs": [],
      "name": "renounceOwnership",
      "outputs": [],
      "stateMutability": "nonpayable",
      "type": "function"
    },
    {
      "inputs": [
        {
          "internalType": "address",
          "name": "from",
          "type": "address"
        },
        {
          "internalType": "address",
          "name": "to",
          "type": "address"
        },
        {
          "internalType": "uint256",
          "name": "tokenId",
          "type": "uint256"
        }
      ],
      "name": "safeTransferFrom",
      "outputs": [],
      "stateMutability": "nonpayable",
      "type": "function"
    },
    {
      "inputs": [
        {
          "internalType": "address",
          "name": "from",
          "type": "address"
        },
        {
          "internalType": "address",
          "name": "to",
          "type": "address"
        },
        {
          "internalType": "uint256",
          "name": "tokenId",
          "type": "uint256"
        },
        {
          "internalType": "bytes",
          "name": "data",
          "type": "bytes"
        }
      ],
      "name": "safeTransferFrom",
      "outputs": [],
      "stateMutability": "nonpayable",
      "type": "function"
    },
    {
      "inputs": [
        {
          "internalType": "address",
          "name": "operator",
          "type": "address"
        },
        {
          "internalType": "bool",
          "name": "approved",
          "type": "bool"
        }
      ],
      "name": "setApprovalForAll",
      "outputs": [],
      "stateMutability": "nonpayable",
      "type": "function"
    },
    {
      "inputs": [
        {
          "internalType": "bytes4",
          "name": "interfaceId",
          "type": "bytes4"
        }
      ],
      "name": "supportsInterface",
      "outputs": [
        {
          "internalType": "bool",
          "name": "",
          "type": "bool"
        }
      ],
      "stateMutability": "view",
      "type": "function"
    },
    {
      "inputs": [],
      "name": "symbol",
      "outputs": [
        {
          "internalType": "string",
          "name": "",
          "type": "string"
        }
      ],
      "stateMutability": "view",
      "type": "function"
    },
    {
      "inputs": [
        {
          "internalType": "uint256",
          "name": "index",
          "type": "uint256"
        }
      ],
      "name": "tokenByIndex",
      "outputs": [
        {
          "internalType": "uint256",
          "name": "",
          "type": "uint256"
        }
      ],
      "stateMutability": "view",
      "type": "function"
    },
    {
      "inputs": [
        {
          "internalType": "address",
          "name": "owner",
          "type": "address"
        },
        {
          "internalType": "uint256",
          "name": "index",
          "type": "uint256"
        }
      ],
      "name": "tokenOfOwnerByIndex",
      "outputs": [
        {
          "internalType": "uint256",
          "name": "",
          "type": "uint256"
        }
      ],
      "stateMutability": "view",
      "type": "function"
    },
    {
      "inputs": [
        {
          "internalType": "uint256",
          "name": "tokenId",
          "type": "uint256"
        }
      ],
      "name": "tokenURI",
      "outputs": [
        {
          "internalType": "string",
          "name": "",
          "type": "string"
        }
      ],
      "stateMutability": "view",
      "type": "function"
    },
    {
      "inputs": [],
      "name": "totalSupply",
      "outputs": [
        {
          "internalType": "uint256",
          "name": "",
          "type": "uint256"
        }
      ],
      "stateMutability": "view",
      "type": "function"
    },
    {
      "inputs": [
        {
          "internalType": "address",
          "name": "from",
          "type": "address"
        },
        {
          "internalType": "address",
          "name": "to",
          "type": "address"
        },
        {
          "internalType": "uint256",
          "name": "tokenId",
          "type": "uint256"
        }
      ],
      "name": "transferFrom",
      "outputs": [],
      "stateMutability": "nonpayable",
      "type": "function"
    },
    {
      "inputs": [
        {
          "internalType": "address",
          "name": "newOwner",
          "type": "address"
        }
      ],
      "name": "transferOwnership",
      "outputs": [],
      "stateMutability": "nonpayable",
      "type": "function"
    }
  ],
  "bytecode": "0x608060405234801561001057600080fd5b506040516134ed3803806134ed83398181016040528101906100329190610272565b806040518060400160405280600b81526020017f43726561747572654e46540000000000000000000000000000000000000000008152506040518060400160405280600481526020017f435254520000000000000000000000000000000000000000000000000000000081525081600090816100ae91906104ef565b5080600190816100be91906104ef565b505050600073ffffffffffffffffffffffffffffffffffffffff168173ffffffffffffffffffffffffffffffffffffffff16036101335760006040517f1e4fbdf700000000000000000000000000000000000000000000000000000000815260040161012a91906105d0565b60405180910390fd5b6101428161014960201b60201c565b50506105eb565b6000600b60009054906101000a900473ffffffffffffffffffffffffffffffffffffffff16905081600b60006101000a81548173ffffffffffffffffffffffffffffffffffffffff021916908373ffffffffffffffffffffffffffffffffffffffff1602179055508173ffffffffffffffffffffffffffffffffffffffff168173ffffffffffffffffffffffffffffffffffffffff167f8be0079c531659141344cd1fd0a4f28419497f9722a3daafe3b4186f6b6457e060405160405180910390a35050565b600080fd5b600073ffffffffffffffffffffffffffffffffffffffff82169050919050565b600061023f82610214565b9050919050565b61024f81610234565b811461025a57600080fd5b50565b60008151905061026c81610246565b92915050565b6000602082840312156102885761028761020f565b5b60006102968482850161025d565b91505092915050565b600081519050919050565b7f4e487b7100000000000000000000000000000000000000000000000000000000600052604160045260246000fd5b7f4e487b7100000000000000000000000000000000000000000000000000000000600052602260045260246000fd5b6000600282049050600182168061032057607f821691505b602082108103610333576103326102d9565b5b50919050565b60008190508160005260206000209050919050565b60006020601f8301049050919050565b600082821b905092915050565b60006008830261039b7fffffffffffffffffffffffffffffffffffffffffffffffffffffffffffffffff8261035e565b6103a5868361035e565b95508019841693508086168417925050509392505050565b6000819050919050565b6000819050919050565b60006103ec6103e76103e2846103bd565b6103c7565b6103bd565b9050919050565b6000819050919050565b610406836103d1565b61041a610412826103f3565b84845461036b565b825550505050565b600090565b61042f610422565b61043a8184846103fd565b505050565b5b8181101561045e57610453600082610427565b600181019050610440565b5050565b601f8211156104a35761047481610339565b61047d8461034e565b8101602085101561048c578190505b6104a06104988561034e565b83018261043f565b50505b505050565b600082821c905092915050565b60006104c6600019846008026104a8565b1980831691505092915050565b60006104df83836104b5565b9150826002028217905092915050565b6104f88261029f565b67ffffffffffffffff811115610511576105106102aa565b5b61051b8254610308565b610526828285610462565b600060209050601f8311600181146105595760008415610547578287015190505b61055185826104d3565b8655506105b9565b601f19841661056786610339565b60005b8281101561058f5784890151825560018201915060208501945060208101905061056a565b868310156105ac57848901516105a8601f8916826104b5565b8355505b6001600288020188555050505b505050505050565b6105ca81610234565b82525050565b60006020820190506105e560008301846105c1565b92915050565b612ef3806105fa6000396000f3fe608060405234801561001057600080fd5b50600436106101425760003560e01c80634f6ccce7116100b857806395d89b411161007c57806395d89b4114610361578063a22cb4651461037f578063b88d4fde1461039b578063c87b56dd146103b7578063e985e9c5146103e7578063f2fde38b1461041757610142565b80634f6ccce7146102a95780636352211e146102d957806370a0823114610309578063715018a6146103395780638da5cb5b1461034357610142565b806323b872dd1161010a57806323b872dd146101ff5780632a9616031461021b5780632f745c591461022557806342842e0e1461025557806342966c68146102715780634a54d5441461028d57610142565b806301ffc9a71461014757806306fdde0314610177578063081812fc14610195578063095ea7b3146101c557806318160ddd146101e1575b600080fd5b610161600480360381019061015c91906121de565b610433565b60405161016e9190612226565b60405180910390f35b61017f610445565b60405161018c91906122d1565b60405180910390f35b6101af60048036038101906101aa9190612329565b6104d7565b6040516101bc9190612397565b60405180910390f35b6101df60048036038101906101da91906123de565b6104f3565b005b6101e9610509565b6040516101f6919061242d565b60405180910390f35b61021960048036038101906102149190612448565b610516565b005b610223610618565b005b61023f600480360381019061023a91906123de565b6106b7565b60405161024c919061242d565b60405180910390f35b61026f600480360381019061026a9190612448565b610760565b005b61028b60048036038101906102869190612329565b610780565b005b6102a760048036038101906102a291906125d0565b610797565b005b6102c360048036038101906102be9190612329565b6107d7565b6040516102d0919061242d565b60405180910390f35b6102f360048036038101906102ee9190612329565b61084d565b6040516103009190612397565b60405180910390f35b610323600480360381019061031e919061262c565b61085f565b604051610330919061242d565b60405180910390f35b610341610919565b005b61034b61092d565b6040516103589190612397565b60405180910390f35b610369610957565b60405161037691906122d1565b60405180910390f35b61039960048036038101906103949190612685565b6109e9565b005b6103b560048036038101906103b09190612766565b6109ff565b005b6103d160048036038101906103cc9190612329565b610a24565b6040516103de91906122d1565b60405180910390f35b61040160048036038101906103fc91906127e9565b610a36565b60405161040e9190612226565b60405180910390f35b610431600480360381019061042c919061262c565b610aca565b005b600061043e82610b50565b9050919050565b60606000805461045490612858565b80601f016020809104026020016040519081016040528092919081815260200182805461048090612858565b80156104cd5780601f106104a2576101008083540402835291602001916104cd565b820191906000526020600020905b8154815290600101906020018083116104b057829003601f168201915b5050505050905090565b60006104e282610bb1565b506104ec82610c39565b9050919050565b6105058282610500610c76565b610c7e565b5050565b6000600880549050905090565b600073ffffffffffffffffffffffffffffffffffffffff168273ffffffffffffffffffffffffffffffffffffffff16036105885760006040517f64a0ae9200000000000000000000000000000000000000000000000000000000815260040161057f9190612397565b60405180910390fd5b600061059c8383610597610c76565b610c90565b90508373ffffffffffffffffffffffffffffffffffffffff168173ffffffffffffffffffffffffffffffffffffffff1614610612578382826040517f64283d7b00000000000000000000000000000000000000000000000000000000815260040161060993929190612889565b60405180910390fd5b50505050565b60006106233361085f565b14610663576040517f08c379a000000000000000000000000000000000000000000000000000000000815260040161065a9061290c565b60405180910390fd5b60006040518060a00160405280606f8152602001612e4f606f913990506000600c549050600c600081548092919061069a9061295b565b91905055506106a93382610ca6565b6106b38183610cc4565b5050565b60006106c28361085f565b82106107075782826040517fa57d13dc0000000000000000000000000000000000000000000000000000000081526004016106fe9291906129a3565b60405180910390fd5b600660008473ffffffffffffffffffffffffffffffffffffffff1673ffffffffffffffffffffffffffffffffffffffff168152602001908152602001600020600083815260200190815260200160002054905092915050565b61077b838383604051806020016040528060008152506109ff565b505050565b61079360008261078e610c76565b610c90565b5050565b61079f610d20565b6000600c549050600c60008154809291906107b99061295b565b91905055506107c88382610ca6565b6107d28183610cc4565b505050565b60006107e1610509565b8210610827576000826040517fa57d13dc00000000000000000000000000000000000000000000000000000000815260040161081e9291906129a3565b60405180910390fd5b6008828154811061083b5761083a6129cc565b5b90600052602060002001549050919050565b600061085882610bb1565b9050919050565b60008073ffffffffffffffffffffffffffffffffffffffff168273ffffffffffffffffffffffffffffffffffffffff16036108d25760006040517f89c62b640000000000000000000000000000000000000000000000000000000081526004016108c99190612397565b60405180910390fd5b600360008373ffffffffffffffffffffffffffffffffffffffff1673ffffffffffffffffffffffffffffffffffffffff168152602001908152602001600020549050919050565b610921610d20565b61092b6000610da7565b565b6000600b60009054906101000a900473ffffffffffffffffffffffffffffffffffffffff16905090565b60606001805461096690612858565b80601f016020809104026020016040519081016040528092919081815260200182805461099290612858565b80156109df5780601f106109b4576101008083540402835291602001916109df565b820191906000526020600020905b8154815290600101906020018083116109c257829003601f168201915b5050505050905090565b6109fb6109f4610c76565b8383610e6d565b5050565b610a0a848484610516565b610a1e610a15610c76565b85858585610fdc565b50505050565b6060610a2f8261118d565b9050919050565b6000600560008473ffffffffffffffffffffffffffffffffffffffff1673ffffffffffffffffffffffffffffffffffffffff16815260200190815260200160002060008373ffffffffffffffffffffffffffffffffffffffff1673ffffffffffffffffffffffffffffffffffffffff16815260200190815260200160002060009054906101000a900460ff16905092915050565b610ad2610d20565b600073ffffffffffffffffffffffffffffffffffffffff168173ffffffffffffffffffffffffffffffffffffffff1603610b445760006040517f1e4fbdf7000000000000000000000000000000000000000000000000000000008152600401610b3b9190612397565b60405180910390fd5b610b4d81610da7565b50565b6000634906490660e01b7bffffffffffffffffffffffffffffffffffffffffffffffffffffffff1916827bffffffffffffffffffffffffffffffffffffffffffffffffffffffff19161480610baa5750610ba9826112a0565b5b9050919050565b600080610bbd8361131a565b9050600073ffffffffffffffffffffffffffffffffffffffff168173ffffffffffffffffffffffffffffffffffffffff1603610c3057826040517f7e273289000000000000000000000000000000000000000000000000000000008152600401610c27919061242d565b60405180910390fd5b80915050919050565b60006004600083815260200190815260200160002060009054906101000a900473ffffffffffffffffffffffffffffffffffffffff169050919050565b600033905090565b610c8b8383836001611357565b505050565b6000610c9d84848461151c565b90509392505050565b610cc0828260405180602001604052806000815250611639565b5050565b80600a60008481526020019081526020016000209081610ce49190612ba7565b507ff8e1a15aba9398e019f0b49df1a4fde98ee17ae345cb5f6b5e2c27f5033e8ce782604051610d14919061242d565b60405180910390a15050565b610d28610c76565b73ffffffffffffffffffffffffffffffffffffffff16610d4661092d565b73ffffffffffffffffffffffffffffffffffffffff1614610da557610d69610c76565b6040517f118cdaa7000000000000000000000000000000000000000000000000000000008152600401610d9c9190612397565b60405180910390fd5b565b6000600b60009054906101000a900473ffffffffffffffffffffffffffffffffffffffff16905081600b60006101000a81548173ffffffffffffffffffffffffffffffffffffffff021916908373ffffffffffffffffffffffffffffffffffffffff1602179055508173ffffffffffffffffffffffffffffffffffffffff168173ffffffffffffffffffffffffffffffffffffffff167f8be0079c531659141344cd1fd0a4f28419497f9722a3daafe3b4186f6b6457e060405160405180910390a35050565b600073ffffffffffffffffffffffffffffffffffffffff168273ffffffffffffffffffffffffffffffffffffffff1603610ede57816040517f5b08ba18000000000000000000000000000000000000000000000000000000008152600401610ed59190612397565b60405180910390fd5b80600560008573ffffffffffffffffffffffffffffffffffffffff1673ffffffffffffffffffffffffffffffffffffffff16815260200190815260200160002060008473ffffffffffffffffffffffffffffffffffffffff1673ffffffffffffffffffffffffffffffffffffffff16815260200190815260200160002060006101000a81548160ff0219169083151502179055508173ffffffffffffffffffffffffffffffffffffffff168373ffffffffffffffffffffffffffffffffffffffff167f17307eab39ab6107e8899845ad3d59bd9653f200f220920489ca2b5937696c3183604051610fcf9190612226565b60405180910390a3505050565b60008373ffffffffffffffffffffffffffffffffffffffff163b1115611186578273ffffffffffffffffffffffffffffffffffffffff1663150b7a02868685856040518563ffffffff1660e01b815260040161103b9493929190612cce565b6020604051808303816000875af192505050801561107757506040513d601f19601f820116820180604052508101906110749190612d2f565b60015b6110fb573d80600081146110a7576040519150601f19603f3d011682016040523d82523d6000602084013e6110ac565b606091505b5060008151036110f357836040517f64a0ae920000000000000000000000000000000000000000000000000000000081526004016110ea9190612397565b60405180910390fd5b805181602001fd5b63150b7a0260e01b7bffffffffffffffffffffffffffffffffffffffffffffffffffffffff1916817bffffffffffffffffffffffffffffffffffffffffffffffffffffffff19161461118457836040517f64a0ae9200000000000000000000000000000000000000000000000000000000815260040161117b9190612397565b60405180910390fd5b505b5050505050565b606061119882610bb1565b506000600a600084815260200190815260200160002080546111b990612858565b80601f01602080910402602001604051908101604052809291908181526020018280546111e590612858565b80156112325780601f1061120757610100808354040283529160200191611232565b820191906000526020600020905b81548152906001019060200180831161121557829003601f168201915b50505050509050600061124361165d565b9050600081510361125857819250505061129b565b60008251111561128d578082604051602001611275929190612d98565b6040516020818303038152906040529250505061129b565b61129684611674565b925050505b919050565b60007f780e9d63000000000000000000000000000000000000000000000000000000007bffffffffffffffffffffffffffffffffffffffffffffffffffffffff1916827bffffffffffffffffffffffffffffffffffffffffffffffffffffffff191614806113135750611312826116dd565b5b9050919050565b60006002600083815260200190815260200160002060009054906101000a900473ffffffffffffffffffffffffffffffffffffffff169050919050565b80806113905750600073ffffffffffffffffffffffffffffffffffffffff168273ffffffffffffffffffffffffffffffffffffffff1614155b156114c45760006113a084610bb1565b9050600073ffffffffffffffffffffffffffffffffffffffff168373ffffffffffffffffffffffffffffffffffffffff161415801561140b57508273ffffffffffffffffffffffffffffffffffffffff168173ffffffffffffffffffffffffffffffffffffffff1614155b801561141e575061141c8184610a36565b155b1561146057826040517fa9fbf51f0000000000000000000000000000000000000000000000000000000081526004016114579190612397565b60405180910390fd5b81156114c257838573ffffffffffffffffffffffffffffffffffffffff168273ffffffffffffffffffffffffffffffffffffffff167f8c5be1e5ebec7d5bd14f71427d1e84f3dd0314c0f7b2291e5b200ac8c7c3b92560405160405180910390a45b505b836004600085815260200190815260200160002060006101000a81548173ffffffffffffffffffffffffffffffffffffffff021916908373ffffffffffffffffffffffffffffffffffffffff16021790555050505050565b60008061152a8585856117bf565b9050600073ffffffffffffffffffffffffffffffffffffffff168173ffffffffffffffffffffffffffffffffffffffff160361156e57611569846119d9565b6115ad565b8473ffffffffffffffffffffffffffffffffffffffff168173ffffffffffffffffffffffffffffffffffffffff16146115ac576115ab8185611a22565b5b5b600073ffffffffffffffffffffffffffffffffffffffff168573ffffffffffffffffffffffffffffffffffffffff16036115ef576115ea84611b0d565b61162e565b8473ffffffffffffffffffffffffffffffffffffffff168173ffffffffffffffffffffffffffffffffffffffff161461162d5761162c8585611bde565b5b5b809150509392505050565b6116438383611c69565b61165861164e610c76565b6000858585610fdc565b505050565b606060405180602001604052806000815250905090565b606061167f82610bb1565b50600061168a61165d565b905060008151116116aa57604051806020016040528060008152506116d5565b806116b484611d62565b6040516020016116c5929190612d98565b6040516020818303038152906040525b915050919050565b60007f80ac58cd000000000000000000000000000000000000000000000000000000007bffffffffffffffffffffffffffffffffffffffffffffffffffffffff1916827bffffffffffffffffffffffffffffffffffffffffffffffffffffffff191614806117a857507f5b5e139f000000000000000000000000000000000000000000000000000000007bffffffffffffffffffffffffffffffffffffffffffffffffffffffff1916827bffffffffffffffffffffffffffffffffffffffffffffffffffffffff1916145b806117b857506117b782611e30565b5b9050919050565b6000806117cb8461131a565b9050600073ffffffffffffffffffffffffffffffffffffffff168373ffffffffffffffffffffffffffffffffffffffff161461180d5761180c818486611e9a565b5b600073ffffffffffffffffffffffffffffffffffffffff168173ffffffffffffffffffffffffffffffffffffffff161461189e5761184f600085600080611357565b6001600360008373ffffffffffffffffffffffffffffffffffffffff1673ffffffffffffffffffffffffffffffffffffffff168152602001908152602001600020600082825403925050819055505b600073ffffffffffffffffffffffffffffffffffffffff168573ffffffffffffffffffffffffffffffffffffffff1614611921576001600360008773ffffffffffffffffffffffffffffffffffffffff1673ffffffffffffffffffffffffffffffffffffffff168152602001908152602001600020600082825401925050819055505b846002600086815260200190815260200160002060006101000a81548173ffffffffffffffffffffffffffffffffffffffff021916908373ffffffffffffffffffffffffffffffffffffffff160217905550838573ffffffffffffffffffffffffffffffffffffffff168273ffffffffffffffffffffffffffffffffffffffff167fddf252ad1be2c89b69c2b068fc378daa952ba7f163c4a11628f55a4df523b3ef60405160405180910390a4809150509392505050565b6008805490506009600083815260200190815260200160002081905550600881908060018154018082558091505060019003906000526020600020016000909190919091505550565b6000611a2d8361085f565b90506000600760008481526020019081526020016000205490506000600660008673ffffffffffffffffffffffffffffffffffffffff1673ffffffffffffffffffffffffffffffffffffffff1681526020019081526020016000209050828214611ad95760008160008581526020019081526020016000205490508082600085815260200190815260200160002081905550826007600083815260200190815260200160002081905550505b6007600085815260200190815260200160002060009055806000848152602001908152602001600020600090555050505050565b60006001600880549050611b219190612dbc565b9050600060096000848152602001908152602001600020549050600060088381548110611b5157611b506129cc565b5b906000526020600020015490508060088381548110611b7357611b726129cc565b5b906000526020600020018190555081600960008381526020019081526020016000208190555060096000858152602001908152602001600020600090556008805480611bc257611bc1612df0565b5b6001900381819060005260206000200160009055905550505050565b60006001611beb8461085f565b611bf59190612dbc565b905081600660008573ffffffffffffffffffffffffffffffffffffffff1673ffffffffffffffffffffffffffffffffffffffff168152602001908152602001600020600083815260200190815260200160002081905550806007600084815260200190815260200160002081905550505050565b600073ffffffffffffffffffffffffffffffffffffffff168273ffffffffffffffffffffffffffffffffffffffff1603611cdb5760006040517f64a0ae92000000000000000000000000000000000000000000000000000000008152600401611cd29190612397565b60405180910390fd5b6000611ce983836000610c90565b9050600073ffffffffffffffffffffffffffffffffffffffff168173ffffffffffffffffffffffffffffffffffffffff1614611d5d5760006040517f73c6ac6e000000000000000000000000000000000000000000000000000000008152600401611d549190612397565b60405180910390fd5b505050565b606060006001611d7184611f5e565b01905060008167ffffffffffffffff811115611d9057611d8f6124a5565b5b6040519080825280601f01601f191660200182016040528015611dc25781602001600182028036833780820191505090505b509050600082602001820190505b600115611e25578080600190039150507f3031323334353637383961626364656600000000000000000000000000000000600a86061a8153600a8581611e1957611e18612e1f565b5b04945060008503611dd0575b819350505050919050565b60007f01ffc9a7000000000000000000000000000000000000000000000000000000007bffffffffffffffffffffffffffffffffffffffffffffffffffffffff1916827bffffffffffffffffffffffffffffffffffffffffffffffffffffffff1916149050919050565b611ea58383836120b1565b611f5957600073ffffffffffffffffffffffffffffffffffffffff168373ffffffffffffffffffffffffffffffffffffffff1603611f1a57806040517f7e273289000000000000000000000000000000000000000000000000000000008152600401611f11919061242d565b60405180910390fd5b81816040517f177e802f000000000000000000000000000000000000000000000000000000008152600401611f509291906129a3565b60405180910390fd5b505050565b600080600090507a184f03e93ff9f4daa797ed6e38ed64bf6a1f0100000000000000008310611fbc577a184f03e93ff9f4daa797ed6e38ed64bf6a1f0100000000000000008381611fb257611fb1612e1f565b5b0492506040810190505b6d04ee2d6d415b85acef81000000008310611ff9576d04ee2d6d415b85acef81000000008381611fef57611fee612e1f565b5b0492506020810190505b662386f26fc10000831061202857662386f26fc10000838161201e5761201d612e1f565b5b0492506010810190505b6305f5e1008310612051576305f5e100838161204757612046612e1f565b5b0492506008810190505b612710831061207657612710838161206c5761206b612e1f565b5b0492506004810190505b60648310612099576064838161208f5761208e612e1f565b5b0492506002810190505b600a83106120a8576001810190505b80915050919050565b60008073ffffffffffffffffffffffffffffffffffffffff168373ffffffffffffffffffffffffffffffffffffffff161415801561216957508273ffffffffffffffffffffffffffffffffffffffff168473ffffffffffffffffffffffffffffffffffffffff16148061212a57506121298484610a36565b5b8061216857508273ffffffffffffffffffffffffffffffffffffffff1661215083610c39565b73ffffffffffffffffffffffffffffffffffffffff16145b5b90509392505050565b6000604051905090565b600080fd5b600080fd5b60007fffffffff0000000000000000000000000000000000000000000000000000000082169050919050565b6121bb81612186565b81146121c657600080fd5b50565b6000813590506121d8816121b2565b92915050565b6000602082840312156121f4576121f361217c565b5b6000612202848285016121c9565b91505092915050565b60008115159050919050565b6122208161220b565b82525050565b600060208201905061223b6000830184612217565b92915050565b600081519050919050565b600082825260208201905092915050565b60005b8381101561227b578082015181840152602081019050612260565b60008484015250505050565b6000601f19601f8301169050919050565b60006122a382612241565b6122ad818561224c565b93506122bd81856020860161225d565b6122c681612287565b840191505092915050565b600060208201905081810360008301526122eb8184612298565b905092915050565b6000819050919050565b612306816122f3565b811461231157600080fd5b50565b600081359050612323816122fd565b92915050565b60006020828403121561233f5761233e61217c565b5b600061234d84828501612314565b91505092915050565b600073ffffffffffffffffffffffffffffffffffffffff82169050919050565b600061238182612356565b9050919050565b61239181612376565b82525050565b60006020820190506123ac6000830184612388565b92915050565b6123bb81612376565b81146123c657600080fd5b50565b6000813590506123d8816123b2565b92915050565b600080604083850312156123f5576123f461217c565b5b6000612403858286016123c9565b925050602061241485828601612314565b9150509250929050565b612427816122f3565b82525050565b6000602082019050612442600083018461241e565b92915050565b6000806000606084860312156124615761246061217c565b5b600061246f868287016123c9565b9350506020612480868287016123c9565b925050604061249186828701612314565b9150509250925092565b600080fd5b600080fd5b7f4e487b7100000000000000000000000000000000000000000000000000000000600052604160045260246000fd5b6124dd82612287565b810181811067ffffffffffffffff821117156124fc576124fb6124a5565b5b80604052505050565b600061250f612172565b905061251b82826124d4565b919050565b600067ffffffffffffffff82111561253b5761253a6124a5565b5b61254482612287565b9050602081019050919050565b82818337600083830152505050565b600061257361256e84612520565b612505565b90508281526020810184848401111561258f5761258e6124a0565b5b61259a848285612551565b509392505050565b600082601f8301126125b7576125b661249b565b5b81356125c7848260208601612560565b91505092915050565b600080604083850312156125e7576125e661217c565b5b60006125f5858286016123c9565b925050602083013567ffffffffffffffff81111561261657612615612181565b5b612622858286016125a2565b9150509250929050565b6000602082840312156126425761264161217c565b5b6000612650848285016123c9565b91505092915050565b6126628161220b565b811461266d57600080fd5b50565b60008135905061267f81612659565b92915050565b6000806040838503121561269c5761269b61217c565b5b60006126aa858286016123c9565b92505060206126bb85828601612670565b9150509250929050565b600067ffffffffffffffff8211156126e0576126df6124a5565b5b6126e982612287565b9050602081019050919050565b6000612709612704846126c5565b612505565b905082815260208101848484011115612725576127246124a0565b5b612730848285612551565b509392505050565b600082601f83011261274d5761274c61249b565b5b813561275d8482602086016126f6565b91505092915050565b600080600080608085870312156127805761277f61217c565b5b600061278e878288016123c9565b945050602061279f878288016123c9565b93505060406127b087828801612314565b925050606085013567ffffffffffffffff8111156127d1576127d0612181565b5b6127dd87828801612738565b91505092959194509250565b60008060408385031215612800576127ff61217c565b5b600061280e858286016123c9565b925050602061281f858286016123c9565b9150509250929050565b7f4e487b7100000000000000000000000000000000000000000000000000000000600052602260045260246000fd5b6000600282049050600182168061287057607f821691505b60208210810361288357612882612829565b5b50919050565b600060608201905061289e6000830186612388565b6128ab602083018561241e565b6128b86040830184612388565b949350505050565b7f596f7520616c7265616479206f776e2061206372656174757265000000000000600082015250565b60006128f6601a8361224c565b9150612901826128c0565b602082019050919050565b60006020820190508181036000830152612925816128e9565b9050919050565b7f4e487b7100000000000000000000000000000000000000000000000000000000600052601160045260246000fd5b6000612966826122f3565b91507fffffffffffffffffffffffffffffffffffffffffffffffffffffffffffffffff82036129985761299761292c565b5b600182019050919050565b60006040820190506129b86000830185612388565b6129c5602083018461241e565b9392505050565b7f4e487b7100000000000000000000000000000000000000000000000000000000600052603260045260246000fd5b60008190508160005260206000209050919050565b60006020601f8301049050919050565b600082821b905092915050565b600060088302612a5d7fffffffffffffffffffffffffffffffffffffffffffffffffffffffffffffffff82612a20565b612a678683612a20565b95508019841693508086168417925050509392505050565b6000819050919050565b6000612aa4612a9f612a9a846122f3565b612a7f565b6122f3565b9050919050565b6000819050919050565b612abe83612a89565b612ad2612aca82612aab565b848454612a2d565b825550505050565b600090565b612ae7612ada565b612af2818484612ab5565b505050565b5b81811015612b1657612b0b600082612adf565b600181019050612af8565b5050565b601f821115612b5b57612b2c816129fb565b612b3584612a10565b81016020851015612b44578190505b612b58612b5085612a10565b830182612af7565b50505b505050565b600082821c905092915050565b6000612b7e60001984600802612b60565b1980831691505092915050565b6000612b978383612b6d565b9150826002028217905092915050565b612bb082612241565b67ffffffffffffffff811115612bc957612bc86124a5565b5b612bd38254612858565b612bde828285612b1a565b600060209050601f831160018114612c115760008415612bff578287015190505b612c098582612b8b565b865550612c71565b601f198416612c1f866129fb565b60005b82811015612c4757848901518255600182019150602085019450602081019050612c22565b86831015612c645784890151612c60601f891682612b6d565b8355505b6001600288020188555050505b505050505050565b600081519050919050565b600082825260208201905092915050565b6000612ca082612c79565b612caa8185612c84565b9350612cba81856020860161225d565b612cc381612287565b840191505092915050565b6000608082019050612ce36000830187612388565b612cf06020830186612388565b612cfd604083018561241e565b8181036060830152612d0f8184612c95565b905095945050505050565b600081519050612d29816121b2565b92915050565b600060208284031215612d4557612d4461217c565b5b6000612d5384828501612d1a565b91505092915050565b600081905092915050565b6000612d7282612241565b612d7c8185612d5c565b9350612d8c81856020860161225d565b80840191505092915050565b6000612da48285612d67565b9150612db08284612d67565b91508190509392505050565b6000612dc7826122f3565b9150612dd2836122f3565b9250828203905081811115612dea57612de961292c565b5b92915050565b7f4e487b7100000000000000000000000000000000000000000000000000000000600052603160045260246000fd5b7f4e487b7100000000000000000000000000000000000000000000000000000000600052601260045260246000fdfe68747470733a2f2f6d6f63636173696e2d6269672d6261626f6f6e2d3131302e6d7970696e6174612e636c6f75642f697066732f6261666b72656963646a6e64716c6e6632637573656b6771617778376b697567376e7678633573627632766976347074373262336c6164786b676da264697066735822122032a5db51aa618fa1b967e9f5b237834acdcf83ed04f7df82c4c1e2e3b2dce0f064736f6c634300081b0033",
  "linkReferences": {},
  "deployedLinkReferences": {}
}